:100000000C9446000C9465000C9465000C946500FB
:100010000C9465000C94DB030C9465000C94650053
:100020000C9465000C9465000C9465000C946500BC
:100030000C9465000C9465000C9465000C946500AC
:100040000C9465000C9465000C9465000C9465009C
:100050000C9465000C940B040C9465000C946500E2
:100060000C9465000C9465000C943B040C946500A2
:100070000C9465000C9465000C9465000C9465006C
:100080000C9465000C946B040C94650011241FBE45
:10009000CFEFD0E1DEBFCDBF12E0A0E0B1E0E4E4FD
:1000A000F7E200E00BBF02C007900D92A232B10749
:1000B000D9F712E0A2E2B2E001C01D92AB34B10761
:1000C000E1F70E94C9030C94A0130C940000DF9385
:1000D000CF9300D0CDB7DEB70E940D028FEF89839A
:1000E00080EE8A83898160E20E94A8028A8161E2AF
:1000F0000E94A80283E0898380EE8A83898160E080
:100100000E94A8028A8161E00E94A8028FE060EE4E
:1001100040E00E94540380E660E640E20E945403FF
:100120008BE261E04FEF0E9454030E946A010F903E
:100130000F90CF91DF910895DF93CF93CDB7DEB7C6
:1001400027970FB6F894DEBF0FBECDBF1C821B826F
:1001500088E08D8380E091E09F838E8380E090E053
:1001600027960FB6F894DEBF0FBECDBFCF91DF91BB
:100170000895DF93CF93CDB7DEB72E970FB6F894DF
:10018000DEBF0FBECDBF9A8789877C876B871C82B5
:100190001B8282E091E09A8389831E821D8215C0B2
:1001A00029813A818D819E81D901A80FB91F2985A6
:1001B0003A858D819E81F901E80FF91F80818C932A
:1001C0008D819E8101969E838D838D819E81883055
:1001D000910530F3F8948B859C8595958795959539
:1001E000879595958795982F81E36FEF492F0E940A
:1001F00054038B85982F9295990F907E82E360EE41
:10020000492F0E94540388E065E30E94A802898177
:100210009A8160E00E94C50280E00E9406031E826F
:100220001D820DC00E942A03882F90E08470907078
:10023000009759F08D819E8101969E838D838D81DB
:100240009E812FEF8F3F920769F778948D819E8171
:100250002FEF8F3F920729F48FEF9FEF9E878D87B7
:1002600002C01E861D868D859E852E960FB6F8943B
:10027000DEBF0FBECDBFCF91DF910895DF93CF9347
:1002800000D000D0CDB7DEB79A8389837C836B839F
:100290000E942A03282F30E08B819C81880F991FB0
:1002A000019682239323009799F32B8189819A8168
:1002B000622F0E945D02E981FA818FE190E09183D3
:1002C000808380E090E00F900F900F900F90CF917F
:1002D000DF910895DF93CF93CDB7DEB7A2E2B0E010
:1002E000E2E2F0E080818F7E8C93A3E2B0E0E3E273
:1002F000F0E0808180618C93EAE5F0E01082A9E56E
:10030000B0E0E9E5F0E0808180618C937894CF9152
:10031000DF9108950F931F93DF93CF93CDB7DEB78F
:100320002F970FB6F894DEBF0FBECDBF8AE091E0E5
:100330009D878C87CE01099660E070E00E943E01A7
:10034000EC85FD8580818F3009F05CC08C859D85B2
:10035000FC0131968081282F30E03F872E878E85E3
:100360009F858236910509F44BC02E853F85233643
:10037000310534F48E859F8581369105E1F042C0C8
:100380002E853F852837310531F08E859F85893749
:10039000910549F037C08C859D85FC01329680819E
:1003A0000E94B6042FC08C859D85FC013296808109
:1003B0000E94A30727C00C851D850E9491059C0102
:1003C00000D000D000D0EDB7FEB731961183008386
:1003D00083E191E093838283358324830E94C81054
:1003E0002DB73EB72A5F3F4F0FB6F8943EBF0FBE02
:1003F0002DBF8C859D856FE170E00E94B90002C021
:100400000E9431062F960FB6F894DEBF0FBECDBF07
:10041000CF91DF911F910F910895DF93CF93CDB7C7
:10042000DEB783E70E94AA0380EC0E9485030E9446
:10043000BB03CF91DF9108950F931F93DF93CF9369
:10044000CDB7DEB727970FB6F894DEBF0FBECDBF8E
:100450009C838B836D835F834E8383E70E94AA0313
:1004600083E00E9485038D810E9485031A82198290
:1004700010C029813A818B819C818C01020F131F4E
:100480000E949803F801808389819A8101969A835A
:10049000898329813A818E819F81281739074CF3FE
:1004A0000E94BB0327960FB6F894DEBF0FBECDBFE8
:1004B000CF91DF911F910F9108950F931F93DF93B9
:1004C000CF9300D000D00F92CDB7DEB79C838B8343
:1004D0006D838D81823090F58D81882319F481E0C0
:1004E0008D8305C08D81813011F483E08D8383E796
:1004F0000E94AA038D81882F90E0880F991F806940
:100500000E9485031A82198212C0EB81FC8123812B
:10051000348189819A818901080F191F0E949803EB
:10052000F801808389819A8101969A8389838981E0
:100530009A81883091054CF30E94BB030F900F9075
:100540000F900F900F90CF91DF911F910F91089511
:10055000DF93CF9300D000D0CDB7DEB78B836C8311
:1005600083E70E94AA0382E00E9485038C810E9497
:1005700085038B810E9485030E94BB030F900F901F
:100580000F900F90CF91DF910895DF93CF9300D01C
:1005900000D00F92CDB7DEB79C838B836D838D81A6
:1005A000833060F58D81882F90E00196880F991F28
:1005B00081508D8383E70E94AA038D8180640E940D
:1005C00085031A8219820FC029813A818B819C810F
:1005D000FC01E20FF31F80810E94850389819A81CB
:1005E00001969A83898389819A818830910564F381
:1005F0000E94BB038AE090E00E94C1100F900F9010
:100600000F900F900F90CF91DF910895DF93CF93CC
:100610000F92CDB7DEB789838981882319F481E0F1
:1006200089830BC08981813019F482E0898305C0F8
:100630008981823059F484E0898383E70E94AA0388
:10064000898180680E9485030E94BB030F90CF912F
:10065000DF910895DF93CF930F92CDB7DEB783E795
:100660000E94AA0380EA0E9485030E94980389835E
:100670000E94BB0389810F90CF91DF910895DF9392
:10068000CF930F92CDB7DEB783E70E94AA0380EB2A
:100690000E9485030E94980389830E94BB0389817D
:1006A0000F90CF91DF910895DF93CF9300D00F92F9
:1006B000CDB7DEB789836A834B8383E70E94AA03A1
:1006C00085E00E94850389810E9485038A810E94BA
:1006D00085038B810E9485030E94BB030F900F90BE
:1006E0000F90CF91DF910895DF93CF93CDB7DEB711
:1006F000E7E3F0E087EF8083EDE2F0E081E58083DF
:100700000E94BB03CF91DF910895DF93CF930F92A7
:10071000CDB7DEB78983EFE2F0E089818083EEE236
:10072000F0E080818823DCF70F90CF91DF9108956E
:10073000DF93CF93CDB7DEB780E40E948503EEE26E
:10074000F0E080818823DCF7EFE2F0E08081CF9158
:10075000DF910895DF93CF930F92CDB7DEB78983F2
:10076000A8E3B0E0E8E3F0E080818E7F8C930F9007
:10077000CF91DF910895DF93CF93CDB7DEB7A8E394
:10078000B0E0E8E3F0E0808181608C93CF91DF916D
:100790000895DF93CF93CDB7DEB70E94BB030E94CD
:1007A00074030E9467000E949B040E946E050E94D1
:1007B0001C067894FFCF1F920F920FB60F920090F5
:1007C0005B000F9211242F933F934F935F936F938E
:1007D0007F938F939F93AF93BF93EF93FF93DF9399
:1007E000CF93CDB7DEB70E948A01CF91DF91FF9101
:1007F000EF91BF91AF919F918F917F916F915F9199
:100800004F913F912F910F9000925B000F900FBE80
:100810000F901F9018951F920F920FB60F92009095
:100820005B000F9211242F933F934F935F936F932D
:100830007F938F939F93AF93BF93EF93FF93DF9338
:10084000CF93CDB7DEB70E94A705CF91DF91FF917F
:10085000EF91BF91AF919F918F917F916F915F9138
:100860004F913F912F910F9000925B000F900FBE20
:100870000F901F9018951F920F920FB60F92009035
:100880005B000F9211242F933F934F935F936F93CD
:100890007F938F939F93AF93BF93EF93FF93DF93D8
:1008A000CF93CDB7DEB70E94B507CF91DF91FF910F
:1008B000EF91BF91AF919F918F917F916F915F91D8
:1008C0004F913F912F910F9000925B000F900FBEC0
:1008D0000F901F9018951F920F920FB60F920090D5
:1008E0005B000F9211242F933F934F935F936F936D
:1008F0007F938F939F93AF93BF93EF93FF93DF9378
:10090000CF93CDB7DEB70E945709CF91DF91FF910A
:10091000EF91BF91AF919F918F917F916F915F9177
:100920004F913F912F910F9000925B000F900FBE5F
:100930000F901F901895DF93CF93CDB7DEB7EFE4FC
:10094000F0E082E28083EEE4F0E08AE18083E8E494
:10095000F0E083E196E091838083E6E4F0E08CEDC3
:1009600090E591838083CF91DF910895EF92FF927C
:100970000F931F93DF93CF9300D000D00F92CDB78A
:10098000DEB78D838D81992787FD9095A92FB92F8B
:10099000BC01CD010E941A0EDC01CB01BC01CD01CE
:1009A00020E030E84DE154E40E94E40BDC01CB018F
:1009B000BC01CD0120E030E040E053E40E94DE0CB9
:1009C000DC01CB0189839A83AB83BC8369817A8103
:1009D0008B819C8120E030E642EC54E40E94B70B0E
:1009E000DC01CB0189839A83AB83BC8369817A81E3
:1009F0008B819C8120E030EC49E654E40E94EA0DB2
:100A000088234CF480E090ECA9E6B4E489839A83CF
:100A1000AB83BC8314C069817A818B819C8120E087
:100A200030E448E055E40E948A0D181644F480E052
:100A300090E4A8E0B5E489839A83AB83BC8380917A
:100A4000220290912302A0912402B0912502BC01C0
:100A5000CD012AE939E949E15FE30E94E40BDC01B9
:100A6000CB017C018D0169817A818B819C812CEC89
:100A70003CEC4CEC5EE30E94E40BDC01CB019C01FE
:100A8000AD01C801B7010E94B70BDC01CB01809317
:100A9000220290932302A0932402B093250208E43B
:100AA00010E08091220290912302A0912402B09143
:100AB0002502BC01CD010E94780EDC01CB01F801BA
:100AC000918380830F900F900F900F900F90CF9194
:100AD000DF911F910F91FF90EF900895DF93CF93D7
:100AE000CDB7DEB7E7E2F0E080EE8083E6E2F0E04B
:100AF0008FEE8083CF91DF910895DF93CF930F9294
:100B0000CDB7DEB78091260290912702009711F0B1
:100B1000198202C081E0898389810F90CF91DF9192
:100B20000895DF93CF93CDB7DEB7809128029091DF
:100B30002902CF91DF910895DF93CF93CDB7DEB730
:100B40001092290210922802CF91DF910895DF932D
:100B5000CF93CDB7DEB7E5E2F0E08081282F30E01B
:100B600080912C0290912D02820F931F90932D0261
:100B700080932C0280912E0290912F0201969093E7
:100B80002F0280932E0220912E0230912F0280910D
:100B9000160190911701281739070CF44AC080916B
:100BA00026029091270281309105C1F4209116010F
:100BB00030911701C901880F991F820F931F880F69
:100BC000991F9C0180912C0290912D0228173907C2
:100BD0002CF4109227021092260223C08091260244
:100BE000909127020097E9F48091160190911701E6
:100BF0009C01220F331F80912C0290912D028217AD
:100C000093077CF481E090E0909327028093260282
:100C10008091280290912902019690932902809355
:100C2000280210922D0210922C0210922F02109284
:100C30002E02CF91DF910895DF93CF93CDB7DEB72A
:100C4000A2E6B0E0E2E6F0E0808182608C93A1E66B
:100C5000B0E0E1E6F0E0808182608C93CF91DF919B
:100C60000895DF93CF93CDB7DEB72E970FB6F894E4
:100C7000DEBF0FBECDBFA2E6B0E0E2E6F0E08081CD
:100C80008D7F8C9380E090E0A0E7B1E48B879C8718
:100C9000AD87BE876B857C858D859E8520E030E0A5
:100CA0004AEF54E40E94E40BDC01CB018F83988768
:100CB000A987BA876F81788589859A8520E030E099
:100CC00040E85FE30E94EA0D88232CF481E090E085
:100CD0009E838D833FC06F81788589859A8520E0CA
:100CE0003FEF4FE757E40E948A0D18164CF56B85CD
:100CF0007C858D859E8520E030E040E251E40E94B5
:100D0000E40BDC01CB01BC01CD010E940E0ADC0129
:100D1000CB019E838D830FC088EC90E09C838B83F6
:100D20008B819C810197F1F79C838B838D819E81C0
:100D300001979E838D838D819E81009769F714C0F2
:100D40006F81788589859A850E940E0ADC01CB0126
:100D50009E838D838D819E819A83898389819A81E7
:100D60000197F1F79A838983A2E6B0E0E2E6F0E02A
:100D7000808182608C932E960FB6F894DEBF0FBEF2
:100D8000CDBFCF91DF910895DF93CF93CDB7DEB77D
:100D900028970FB6F894DEBF0FBECDBF1092310278
:100DA00010923002EBE8F0E083E08083EAE8F0E0C4
:100DB0008DE1808384E289838DEC8A838FEF8B833E
:100DC0008FEF8C838FEF8D838FEF8E838FEF8F83E9
:100DD0008FEF8887E6E8F0E08981882F90E09183A3
:100DE0008083ADE7B0E0EDE7F0E0808180618C9337
:100DF0000E949B08EAE3F0E08FEF8083ABE3B0E072
:100E0000EBE3F0E080818C608C93E4E3F0E010820F
:100E1000E5E3F0E01082ABE3B0E0EBE3F0E08081EB
:100E2000877F8C93ABE3B0E0EBE3F0E080818860F8
:100E30008C9328960FB6F894DEBF0FBECDBFCF912E
:100E4000DF910895DF93CF93CDB7DEB7CF91DF91D8
:100E50000895DF93CF930F92CDB7DEB789830F90BC
:100E6000CF91DF910895DF93CF9300D0CDB7DEB758
:100E7000ABE3B0E0EBE3F0E080818B7F8C93ABE3FE
:100E8000B0E0EBE3F0E080818F7E8C930000000007
:100E900000000000E3E3F0E08081882F90E0982FCD
:100EA00088279A838983ABE3B0E0EBE3F0E08081AD
:100EB00080618C93000000000000000089819A810D
:100EC00080E29802812D990B1124009789F0898185
:100ED0009A81906F9A838983E3E3F0E08081282FE1
:100EE00030E089819A81821B930B9A83898310C099
:100EF00089819A819F709A838983E3E3F0E08081FE
:100F0000282F30E089819A81820F931F9A838983E9
:100F1000ABE3B0E0EBE3F0E08081877F8C93ABE361
:100F2000B0E0EBE3F0E0808188608C93ABE3B0E06D
:100F3000EBE3F0E0808184608C9380E00F900F9071
:100F4000CF91DF910895DF93CF930F92CDB7DEB7A6
:100F500089838981992787FD9095909331028093A9
:100F600030020F90CF91DF9108950F931F93DF937D
:100F7000CF9300D000D0CDB7DEB780E090E0A0E006
:100F8000B0E089839A83AB83BC83009130021091D7
:100F900031020E943307992787FD90959801281BFD
:100FA000390BC901AA2797FDA095BA2FBC01CD0125
:100FB0000E941A0EDC01CB0189839A83AB83BC8328
:100FC00000913002109131020E943307992787FD6A
:100FD00090959801281B390BC901AA2797FDA09568
:100FE000BA2FBC01CD010E941A0EDC01CB01BC015D
:100FF000CD012DEC3CEC4CEC5DE30E94E40BDC01FC
:10100000CB0120913A0230913B0240913C02509139
:101010003D02BC01CD010E94B70BDC01CB018093E6
:101020003A0290933B02A0933C02B0933D02809120
:101030003A0290913B02A0913C02B0913D02BC016A
:10104000CD0129813A814B815C810E94B70BDC0183
:10105000CB01BC01CD0120E030E04EEF52E40E9414
:101060008A0D1816ACF460E070E08EEF92E42981EE
:101070003A814B815C810E94860BDC01CB0180931D
:101080003A0290933B02A0933C02B0933D0230C0E1
:1010900080913A0290913B02A0913C02B0913D02B6
:1010A000BC01CD0129813A814B815C810E94B70B43
:1010B000DC01CB01BC01CD0120E030E040E053EC8D
:1010C0000E94EA0D8823A4F460E070E080E093ECD5
:1010D00029813A814B815C810E94860BDC01CB0126
:1010E00080933A0290933B02A0933C02B0933D025E
:1010F00080913A0290913B02A0913C02B0913D0256
:10110000BC01CD0129813A814B815C810E94B70BE2
:10111000DC01CB01BC01CD010E94780EDC01CB01CA
:101120000E9429070F900F900F900F90CF91DF91A1
:101130001F910F910895DF93CF93CDB7DEB7E0E70E
:10114000F0E08CE08083E3E7F0E08FEF8083E4E77A
:10115000F0E084E08083CF91DF910895DF93CF9317
:10116000CDB7DEB7E4E7F0E080818170CF91DF9109
:101170000895DF93CF93CDB7DEB70E94AE088823E2
:10118000E1F780911801CF91DF910895DF93CF931C
:1011900000D000D0CDB7DEB79B838A836C830E94DA
:1011A000AE088823E1F78C8180934402EA81FB81B9
:1011B000808180934002EA81FB818081882F90E0CA
:1011C000817090700097D1F481E0898313C0898188
:1011D000482F50E08981282F30E08A819B81FC01D3
:1011E000E20FF31F8081FA01E05CFD4F808389816B
:1011F0008F5F898399818C81981748F310923E0202
:1012000088EF80931801E4E7F0E085EA80830F908F
:101210000F900F900F90CF91DF910895DF93CF93B0
:10122000CDB7DEB70E94AE088823E1F710923E02E8
:1012300088EF80931801E4E7F0E085EA8083CF919E
:10124000DF910895DF93CF9300D000D0CDB7DEB704
:101250009B838A836C830E94AE088823E1F7809188
:101260003E0281708823C9F0198213C08981282F1A
:1012700030E08A819B81DC01A20FB31F8981882F16
:1012800090E0FC01E05CFD4F80818C9389818F5F51
:10129000898399818C81981748F380913E028170EF
:1012A0000F900F900F900F90CF91DF910895DF93E3
:1012B000CF9300D0CDB7DEB7E1E7F0E08081282FF3
:1012C00030E03A83298389819A8188329105A9F196
:1012D00029813A812932310584F489819A818031CA
:1012E000910549F129813A812831310531F189810E
:1012F0009A8188309105F9F083C029813A812034A0
:10130000310509F44DC089819A81813491053CF4FD
:1013100029813A812833310509F46DC071C0898172
:101320009A818035910569F129813A812835310505
:1013300009F44CC065C010923F0290913F02809129
:1013400044029817A0F4A3E7B0E020913F02822F57
:1013500090E0FC01E05CFD4F80818C93822F8F5FD9
:1013600080933F02E4E7F0E085E8808352C08091FB
:101370003E02816080933E02E4E7F0E084E98083EE
:1013800048C030913F02832F90E0E3E7F0E02081F6
:10139000FC01E05CFD4F2083832F8F5F80933F0231
:1013A00080913F02282F30E080914402882F90E006
:1013B0000197281739072CF4E4E7F0E085EC8083E7
:1013C00028C0E4E7F0E085E8808323C080913F02F5
:1013D000882F90E0E3E7F0E02081FC01E05CFD4F26
:1013E000208380913E02816080933E02E4E7F0E03A
:1013F00084E980830EC0E4E7F0E085EA808309C0D9
:10140000E1E7F0E0808180931801E4E7F0E084E018
:1014100080830F900F90CF91DF910895EF92FF920C
:101420000F931F937B018C0120E030E040E05FE4EC
:101430000E94BA0D88238CF0C801B70120E030E08B
:1014400040E05FE40E94860B0E94780E9B01AC0195
:10145000205030404040504806C0C801B7010E94AB
:10146000780E9B01AC01B901CA011F910F91FF9049
:10147000EF900895A0E0B0E0E0E4FAE00C94691386
:10148000DC012B01FA019C91923008F439C1EB0187
:101490008881823008F433C1943069F4843009F0D3
:1014A0002FC111969C9111978981981709F428C131
:1014B000A9E1B1E025C1843009F421C18230A9F449
:1014C000923009F01DC19A01AD0188E0EA0109904E
:1014D000AE01E90109929E018150C1F7E2018981C3
:1014E00011969C918923818308C1923009F407C128
:1014F00012962D903C901397EB018A819B81149654
:10150000AD90BD90CD90DC901797EC80FD800E8162
:101510001F819101281B390BB90137FF04C06627D1
:101520007727621B730B603271050CF061C01216D5
:1015300013066CF537014801062E04C09694879473
:10154000779467940A94D2F721E030E040E050E0CD
:1015500004C0220F331F441F551F6A95D2F7215034
:101560003040404050402E213F214023512321153F
:1015700031054105510521F021E030E040E050E027
:1015800079018A01E628F728082919293CC0232B6C
:10159000D1F1260E371E35014601062E04C0969461
:1015A0008794779467940A94D2F721E030E040E082
:1015B00050E004C0220F331F441F551F6A95D2F715
:1015C00021503040404050402A213B214C215D2198
:1015D000211531054105510521F021E030E040E0C1
:1015E00050E059016A01A628B728C828D9280BC09D
:1015F000821593052CF01C01AA24BB24650103C0AD
:10160000EE24FF24870111969C91D20111968C91B2
:10161000981709F445C0992339F0A80197012A19B0
:101620003B094C095D0906C0A60195012E193F0929
:10163000400B510B57FD08C0118233822282248354
:101640003583468357831DC081E0818333822282A4
:1016500088279927DC01821B930BA40BB50B84838D
:101660009583A683B7830DC0220F331F441F551FD8
:1016700024833583468357838281938101979383A3
:1016800082832481358146815781DA01C90101971E
:10169000A109B1098F5F9F4FAF4FBF4328F30BC024
:1016A000918333822282EA0CFB1C0C1D1D1DE482F7
:1016B000F5820683178383E0808324813581468108
:1016C000578157FF1AC0C901AA2797FDA095BA2FC5
:1016D00081709070A070B07056954795379527959A
:1016E000822B932BA42BB52B84839583A683B7835E
:1016F00082819381019693838283DF0101C0D201AD
:10170000CD01CDB7DEB7E2E10C948513A0E2B0E0E5
:10171000ECE8FBE00C94751369837A838B839C83DC
:101720002D833E834F835887E9E0EE2EF12CEC0E9B
:10173000FD1ECE010196B7010E94F00F8E010F5ED3
:101740001F4FCE010596B8010E94F00F8A8991E0E3
:1017500089278A8BC701B801AE01475E5F4F0E949F
:101760003A0A0E941B0FA096E6E00C949113A0E2A7
:10177000B0E0EDEBFBE00C94751369837A838B8307
:101780009C832D833E834F835887F9E0EF2EF12C05
:10179000EC0EFD1ECE010196B7010E94F00F8E01E6
:1017A0000F5E1F4FCE010596B8010E94F00FC701D2
:1017B000B801AE01475E5F4F0E943A0A0E941B0FBC
:1017C000A096E6E00C949113A0E2B0E0EAEEFBE014
:1017D0000C94691369837A838B839C832D833E8366
:1017E0004F835887CE010196BE01675F7F4F0E94ED
:1017F000F00FCE010596BE016F5E7F4F0E94F00F85
:101800009985923088F089898230C8F0943019F433
:10181000823051F404C0843029F4923081F489E19B
:1018200091E0C6C0923049F420E09A858A899813E5
:1018300021E02A87CE010996BBC0823049F420E01E
:101840009A858A89981321E02A8BCE014196B0C0EF
:101850002D843E844F8458886D887E888F88988C2C
:10186000EE24FF248701AA24BB24650140E050E058
:1018700060E070E0E0E0F0E0C10181709070892BE1
:10188000E9F0E60CF71C081D191D9A01AB012A0DA1
:101890003B1D4C1D5D1D80E090E0A0E0B0E0E61433
:1018A000F7040805190520F481E090E0A0E0B0E01D
:1018B000BA01A901480F591F6A1F7B1FAA0CBB1C44
:1018C000CC1CDD1C97FE08C081E090E0A0E0B0E0F9
:1018D000A82AB92ACA2ADB2A3196E032F10549F052
:1018E000660C771C881C991C56944794379427944F
:1018F000C3CFFA85EA892B893C898B859C85280F83
:10190000391F2E5F3F4F17C0CA0181709070892B1D
:1019100061F016950795F794E79480E090E0A0E0D9
:10192000B0E8E82AF92A0A2B1B2B7695679557957C
:1019300047952F5F3F4F77FDE7CF0CC0440F551FF2
:10194000661F771F17FD4160EE0CFF1C001F111F63
:1019500021503040403090E0590790E0690790E412
:10196000790760F32B8F3C8FDB01CA018F77907072
:10197000A070B07080349105A105B10561F447FDF8
:101980000AC0E114F1040105110529F0405C5F4F24
:101990006F4F7F4F40781A8EFE1711F081E08A8FCB
:1019A0004D8F5E8F6F8F78A383E0898FCE0149962C
:1019B0000E941B0FA096E2E10C948513A8E1B0E011
:1019C000E4EEFCE00C94711369837A838B839C832F
:1019D0002D833E834F835887B9E0EB2EF12CEC0E1C
:1019E000FD1ECE010196B7010E94F00F8E010F5E21
:1019F0001F4FCE010596B8010E94F00F29852230B5
:101A000008F47EC03989323010F4B8017CC08A8570
:101A10009A8989278A87243011F0223031F42317DC
:101A200009F06EC069E171E06EC0343039F41D8692
:101A30001E861F86188A1C861B8604C0323021F43D
:101A400084E08987B7015FC02B853C858B899C89A1
:101A5000281B390B3C872B87ED84FE840F85188962
:101A6000AD88BE88CF88D88CEA14FB040C051D0510
:101A700040F4EE0CFF1C001F111F215030403C872A
:101A80002B8720E030E040E050E080E090E0A0E0F4
:101A9000B0E460E070E0EA14FB040C051D0540F0C2
:101AA000282B392B4A2B5B2BEA18FB080C091D0944
:101AB000B695A79597958795EE0CFF1C001F111FF3
:101AC0006F5F7F4F6F31710531F7DA01C9018F7791
:101AD0009070A070B07080349105A105B10561F4DB
:101AE00027FD0AC0E114F1040105110529F0205C6D
:101AF0003F4F4F4F5F4F20782D873E874F87588B42
:101B0000BE01675F7F4FCB010E941B0F6896EAE022
:101B10000C948D13A8E1B0E0E0E9FDE00C9475139E
:101B200069837A838B839C832D833E834F8358877D
:101B300089E0E82EF12CEC0EFD1ECE010196B701D6
:101B40000E94F00F8E010F5E1F4FCE010596B80167
:101B50000E94F00F8985823040F08989823028F018
:101B6000C701B8010E94681001C08FEF6896E6E0D7
:101B70000C949113A8E1B0E0E0ECFDE00C94751337
:101B800069837A838B839C832D833E834F8358871D
:101B900089E0E82EF12CEC0EFD1ECE010196B70176
:101BA0000E94F00F8E010F5E1F4FCE010596B80107
:101BB0000E94F00F8985823040F08989823028F0B8
:101BC000C701B8010E94681001C08FEF6896E6E077
:101BD0000C949113A8E1B0E0E0EFFDE00C947513D4
:101BE00069837A838B839C832D833E834F835887BD
:101BF00089E0E82EF12CEC0EFD1ECE010196B70116
:101C00000E94F00F8E010F5E1F4FCE010596B801A6
:101C10000E94F00F8985823040F08989823028F057
:101C2000C701B8010E94681001C081E06896E6E033
:101C30000C949113A8E0B0E0E0E2FEE00C94721383
:101C40009B01AC0183E08983DA01C9018827B7FDD4
:101C500083959927AA27BB27B82E21153105410561
:101C6000510519F482E089833AC08823A9F0203015
:101C700080E0380780E0480780E8580729F460E0F2
:101C800070E080E09FEC30C0EE24FF248701E21A70
:101C9000F30A040B150B02C079018A018EE1C82EEC
:101CA000D12CDC82CB82ED82FE820F831887C801A3
:101CB000B7010E94CC0E01971816190684F4082E5D
:101CC00004C0EE0CFF1C001F111F0A94D2F7ED8216
:101CD000FE820F831887C81AD90ADC82CB82BA82A7
:101CE000CE0101960E941B0F2896E9E00C948E13FA
:101CF000ACE0B0E0EEE7FEE00C94791369837A8300
:101D00008B839C83CE010196BE016B5F7F4F0E9447
:101D1000F00F8D81823061F1823050F1843021F4F6
:101D20008E81882351F12EC02F81388537FD20C048
:101D30006E812F3131051CF06623F9F023C08EE14E
:101D400090E0821B930B29853A854B855C8504C006
:101D500056954795379527958A95D2F76623B1F022
:101D600050954095309521953F4F4F4F5F4F0EC096
:101D700020E030E040E050E009C02FEF3FEF4FEFB0
:101D80005FE704C020E030E040E050E8B901CA015C
:101D90002C96E2E00C949513EF92FF920F931F9311
:101DA0007B018C0180E0E81680E0F80681E00807FE
:101DB00080E0180788F48FEFE816F104010511059B
:101DC00031F028F088E090E0A0E0B0E017C080E0BB
:101DD00090E0A0E0B0E012C080E0E81680E0F806F5
:101DE00080E0080781E0180728F088E190E0A0E093
:101DF000B0E004C080E190E0A0E0B0E020E230E09C
:101E000040E050E0281B390B4A0B5B0B04C01695D1
:101E10000795F794E7948A95D2F7F701EF5DFE4FA7
:101E20008081281B310941095109C9011F910F9176
:101E3000FF90EF900895DF92EF92FF920F931F9320
:101E4000FC01E480F58006811781D1808081823099
:101E500048F480E090E0A0E1B0E0E82AF92A0A2BFB
:101E60001B2BA5C0843009F49FC0823021F4EE24DE
:101E7000FF24870105C0E114F1040105110519F4DF
:101E8000E0E0F0E096C0628173819FEF62387907ED
:101E90000CF05BC022E83FEF261B370B2A313105DF
:101EA0002CF020E030E040E050E02AC0B801A7016B
:101EB000022E04C076956795579547950A94D2F7F8
:101EC00081E090E0A0E0B0E004C0880F991FAA1F55
:101ED000BB1F2A95D2F70197A109B1098E219F2135
:101EE000A023B1230097A105B10521F081E090E086
:101EF000A0E0B0E09A01AB01282B392B4A2B5B2BD9
:101F0000DA01C9018F779070A070B07080349105AC
:101F1000A105B10539F427FF09C0205C3F4F4F4FA1
:101F20005F4F04C0215C3F4F4F4F5F4FE0E0F0E058
:101F30002030A0E03A07A0E04A07A0E45A0710F0DA
:101F4000E1E0F0E079018A0127C06038710564F5AD
:101F5000FB01E158FF4FD801C7018F779070A07047
:101F6000B07080349105A105B10539F4E7FE0DC0CC
:101F700080E490E0A0E0B0E004C08FE390E0A0E057
:101F8000B0E0E80EF91E0A1F1B1F17FF05C01695CB
:101F90000795F794E794319687E016950795F7949F
:101FA000E7948A95D1F705C0EE24FF248701EFEF6F
:101FB000F0E06E2F679566276795902F9F77D794EF
:101FC000DD24D7948E2F8695492F462B582F5D29D7
:101FD000B701CA011F910F91FF90EF90DF90089514
:101FE000FC01DB01408151812281622F6F7770E01B
:101FF000221F2227221F9381892F880F822B282FAF
:1020000030E0991F9927991F11969C9311972115DC
:102010003105A9F5411551056105710511F482E0FD
:1020200037C082E89FEF13969C938E9312979A0184
:10203000AB0167E0220F331F441F551F6A95D1F78C
:1020400083E08C930DC0220F331F441F551F12963F
:102050008D919C911397019713969C938E93129751
:10206000203080E0380780E0480780E4580758F3C4
:1020700014962D933D934D935C93179708952F3F9E
:10208000310579F4411551056105710519F484E0B4
:102090008C93089564FF03C081E08C9312C01C925E
:1020A00010C02F57304013963C932E93129783E025
:1020B0008C9387E0440F551F661F771F8A95D1F7D1
:1020C000706414964D935D936D937C931797089568
:1020D0001F93DC01FB019C91923008F447C0808182
:1020E000823008F443C0943051F411961C9184302E
:1020F00099F58181682F70E0611B71093FC08430C0
:1021000021F0923031F48230B9F18181882389F154
:102110002DC011961C9111978230F1F08181181712
:10212000D9F412962D913C91139782819381821755
:10213000930794F028173907BCF014968D919D9160
:102140000D90BC91A02D248135814681578128179F
:1021500039074A075B0718F4112341F00AC08217B8
:102160009307A407B50740F4112319F061E070E06C
:1021700005C06FEF7FEF02C060E070E0CB011F9100
:10218000089560914702709148020E94DF120895FD
:10219000AEE0B0E0EEECF0E10C9477130D891E890F
:1021A00086E08C831A8309838FEF9FE79E838D835C
:1021B0009E01275E3F4FCE0101966F89788DA90160
:1021C0000E94EC102F813885020F131FF801108236
:1021D0002E96E4E00C949313ABE0B0E0E2EFF0E174
:1021E0000C9469133C012B015A01FC0117821682E1
:1021F000838181FD03C06FEF7FEFC6C19AE0892E16
:102200001E010894211C311CF3012381F20123FDDE
:10221000859123FF81912F01882309F4B2C1853272
:1022200039F423FD859123FF81912F01853229F413
:1022300090E0B3010E94DF12E7CF982FFF24EE2435
:102240009924FFE1FF15D0F09B3269F09C3228F40D
:10225000903259F0933291F40EC09D3249F0903390
:1022600069F441E024C052E0F52A84E0F82A28C04D
:1022700098E0F92A25C0E0E1FE2A22C0F7FC29C037
:10228000892F80538A3070F4F6FE05C0989C902CFC
:102290001124980E15C0E89CE02C1124E80EF0E201
:1022A000FF2A0EC09E3229F4F6FC6BC140E4F42AEA
:1022B00007C09C3619F450E8F52A02C0983649F454
:1022C000F20123FD959123FF91912F01992309F0AC
:1022D000B8CF892F8554833018F08052833038F47A
:1022E00044E050E0A40EB51E5FE359830FC093365F
:1022F00031F0933779F0933509F056C020C0F501DD
:102300008081898342E050E0A40EB51E610101E0A6
:1023100010E012C0F501C080D180F6FC03C06FEF61
:102320007FEF02C0692D70E042E050E0A40EB51EC0
:10233000C6010E94D4128C015FE7F52214C0F5019A
:10234000C080D180F6FC03C06FEF7FEF02C0692D23
:1023500070E042E050E0A40EB51EC6010E94C91212
:102360008C0150E8F52AF3FE07C01AC080E290E025
:10237000B3010E94DF12EA948E2D90E0081719072E
:10238000A8F30EC0F601F7FC8591F7FE81916F016D
:1023900090E0B3010E94DF12E110EA940150104076
:1023A0000115110579F7EAC0943611F0993669F5EF
:1023B000F7FE08C0F501208131814281538184E01C
:1023C00090E00AC0F501808191819C01442737FD8E
:1023D0004095542F82E090E0A80EB91E9FE6F922A6
:1023E00057FF09C050954095309521953F4F4F4F6D
:1023F0005F4FE0E8FE2ACA01B901A1012AE030E0FE
:102400000E940B13D82ED21840C0953729F41F2DE7
:102410001F7E2AE030E01DC01F2D197F9F3661F01E
:10242000903720F4983509F0ACC00FC0903739F0E0
:10243000983709F0A6C004C028E030E00AC0106157
:1024400014FD146020E130E004C014FD166020E1AA
:1024500032E017FF08C0F5016081718182819381AC
:1024600044E050E008C0F50180819181BC0180E02A
:1024700090E042E050E0A40EB51EA1010E940B13B3
:10248000D82ED2188FE7F82EF122F6FE0BC05EEFA1
:10249000F522D91438F4F4FE07C0F2FC05C08FEE23
:1024A000F82202C01D2D01C0192DF4FE0DC0FE0141
:1024B000ED0DF11D8081803319F499EEF92208C0E9
:1024C0001F5FF2FE05C003C08F2D867809F01F5FE5
:1024D0000F2DF3FC14C0F0FE0FC01E1510F09D2C44
:1024E0000BC09D2C9E0C911A1E2D06C080E290E020
:1024F000B3010E94DF121F5F1E15C0F304C01E153A
:1025000010F4E11A01C0EE2404FF0FC080E390E054
:10251000B3010E94DF1202FF1DC001FD03C088E766
:1025200090E00EC088E590E00BC0802F867891F097
:1025300001FF02C08BE201C080E2F7FC8DE290E077
:10254000B3010E94DF1206C080E390E0B3010E9455
:10255000DF129A94D914C0F3DA94F101ED0DF11D54
:10256000808190E0B3010E94DF12DD20A9F706C050
:1025700080E290E0B3010E94DF12EA94EE20C1F7FE
:1025800043CEF30166817781CB012B96E2E10C9477
:102590008513FC010590615070400110D8F78095BB
:1025A00090958E0F9F1F0895FC016150704001901F
:1025B0000110D8F7809590958E0F9F1F08950F9367
:1025C0001F93CF93DF938C01EB018B8181FF1BC0A5
:1025D00082FF0DC02E813F818C819D812817390794
:1025E00064F4E881F9810193F983E88306C0E88502
:1025F000F985802F0995892B31F48E819F81019671
:102600009F838E8302C00FEF1FEFC801DF91CF9130
:102610001F910F910895FA01AA27283051F1203116
:1026200081F1E8946F936E7F6E5F7F4F8F4F9F4F66
:10263000AF4FB1E03ED0B4E03CD0670F781F891FA8
:102640009A1FA11D680F791F8A1F911DA11D6A0F76
:10265000711D811D911DA11D20D009F468943F9129
:102660002AE0269F11243019305D3193DEF6CF0128
:102670000895462F4770405D4193B3E00FD0C9F7EE
:10268000F6CF462F4F70405D4A3318F0495D31FD5B
:102690004052419302D0A9F7EACFB4E0A6959795AE
:1026A000879577956795BA95C9F700976105710584
:1026B00008959B01AC010A2E0694579547953795CE
:1026C0002795BA95C9F7620F731F841F951FA01D28
:1026D00008952F923F924F925F926F927F928F92C6
:1026E0009F92AF92BF92CF92DF92EF92FF920F93A1
:1026F0001F93CF93DF93CDB7DEB7CA1BDB0B0FB6AB
:10270000F894DEBF0FBECDBF09942A883988488867
:102710005F846E847D848C849B84AA84B984C884FD
:10272000DF80EE80FD800C811B81AA81B981CE0FF4
:10273000D11D0FB6F894DEBF0FBECDBFED010895D9
:04274000F894FFCF3B
:102744002000000000000000000000000000000065
:102754000000002564000400F800000000000000F0
:102764000000010202030303030404040404040438
:102774000405050505050505050505050505050506
:1027840005060606060606060606060606060606E6
:1027940006060606060606060606060606060606D5
:1027A40006070707070707070707070707070707B6
:1027B40007070707070707070707070707070707A5
:1027C4000707070707070707070707070707070795
:1027D4000707070707070707070707070707070785
:1027E4000708080808080808080808080808080866
:1027F4000808080808080808080808080808080855
:102804000808080808080808080808080808080844
:102814000808080808080808080808080808080834
:102824000808080808080808080808080808080824
:102834000808080808080808080808080808080814
:102844000808080808080808080808080808080804
:1028540008080808080808080808080808080808F4
:0228640008006A
:00000001FF
