:100000000C9438000C9455000C9455000C94550039
:100010000C9455000C9455000C9455000C9455000C
:100020000C9455000C9455000C9455000C945500FC
:100030000C9455000C9455000C9455000C945500EC
:100040000C9455000C9455000C9455000C945500DC
:100050000C9455000C9455000C9455000C945500CC
:100060000C9455000C9455000C9455000C945500BC
:1000700011241FBECFEFD4E0DEBFCDBF12E0A0E061
:10008000B1E0ECE6F4E202C005900D92A038B107B1
:10009000D9F712E0A0E8B2E001C01D92AA38B1077A
:1000A000E1F70E9457000C9434120C940000DF9387
:1000B000CF93CDB7DEB70E94160380E895E20E9489
:1000C00088000E943F010E9435020E94BD020E94EA
:1000D000240380E091E00E94010E0E9437039C01FE
:1000E00000D000D0EDB7FEB7319688E191E0918362
:1000F0008083338322830E94E50D0F900F900F9031
:100100000F900E949A0580E090E0CF91DF910895D2
:10011000DF93CF93CDB7DEB727970FB6F894DEBF46
:100120000FBECDBF9F838E838E819F81CC01A0E0C7
:10013000B0E08A839B83AC83BD838A819B81AC8141
:10014000BD81880F991FAA1FBB1F880F991FAA1F67
:10015000BB1F880F991FAA1FBB1F880F991FAA1FBB
:10016000BB1F9C01AD018AEF90E0ABE4B0E0BC01A5
:10017000CD010E94DB11DA01C9010197A109B10982
:100180008A839B83AC83BD831982E0E4F0E08A819B
:100190009B81AC81BD81892F9A2FAB2FBB27808398
:1001A000E9E2F0E08A818083EAE2F0E088E180839E
:1001B0008981866089838981806289838981806859
:1001C0008983E0E4F0E08981808387EF90E02EE18D
:1001D00031E0B9010E94990D80E090E027960FB6BA
:1001E000F894DEBF0FBECDBFCF91DF910895DF93AE
:1001F000CF9300D00F92CDB7DEB789837B836A831C
:1002000089818A3031F42A813B818DE0B9010E94D5
:10021000F700EBE2F0E08081882F90E08072907030
:100220000097B9F3ECE2F0E08981808380E090E010
:100230000F900F900F90CF91DF910895DF93CF93A0
:1002400000D00F92CDB7DEB79B838A83EBE2F0E05C
:1002500080818823DCF7ECE2F0E08081898389816A
:100260008D3011F48AE08983ECE2F0E08081882F00
:1002700090E00F900F900F90CF91DF910895DF9352
:10028000CF93CDB7DEB7A5E5B0E0E5E5F0E080813E
:10029000806C8C93A6E5B0E0E6E5F0E080818460B8
:1002A0008C93A0E5B0E0E0E5F0E0808180628C9383
:1002B000CF91DF910895DF93CF93CDB7DEB76597E8
:1002C0000FB6F894DEBF0FBECDBF80E090E19D8BEE
:1002D0008C8B85E291E00E94010E1B8A1A8A80C0F5
:1002E0002A893B898C899D89FC01E20FF31F83E8F1
:1002F000808380E090E0A0E0B0E48B879C87AD87AE
:10030000BE876B857C858D859E852AE93BE949E919
:1003100054E40E94150ADC01CB018F839887A987DA
:10032000BA876F81788589859A8520E030E040E83A
:100330005FE30E946F0B88232CF481E090E09E83A2
:100340008D833FC06F81788589859A8520E03FEF56
:100350004FE757E40E940F0B18164CF56B857C8510
:100360008D859E8520E030E040E251E40E94150A30
:10037000DC01CB01BC01CD010E943F08DC01CB01B7
:100380009E838D830FC08AE790E09C838B838B8153
:100390009C810197F1F79C838B838D819E810197CE
:1003A0009E838D838D819E81009769F714C06F8134
:1003B000788589859A850E943F08DC01CB019E8360
:1003C0008D838D819E819A83898389819A8101970A
:1003D000F1F79A8389838A899B8901969B8B8A8B03
:1003E0008A899B8928E0803092070CF479CF1B8A98
:1003F0001A8A30C02A893B898C899D89FC01E20FC9
:10040000F31F8081898B8989882F90E0988B8F8753
:100410002A893B898C899D89FC01E20FF31F808129
:10042000833899F000D000D0EDB7FEB7319681E364
:1004300091E0918380838A899B89938382830E9440
:10044000E50D0F900F900F900F908A899B89019670
:100450009B8B8A8B8A899B8928E08030920754F293
:1004600088E491E00E94010EFFCFDF93CF93CDB7D8
:10047000DEB7E7E3F0E01082E8E3F0E08FEF80839F
:10048000CF91DF910895DF93CF9300D000D0CDB707
:10049000DEB78B8380E098E19A8389838B818837EC
:1004A000B1F4E981FA8184E08083E6E3F0E08081C1
:1004B000882F90E0817090708823B9F7E981FA81E4
:1004C0008081882F90E00E948C028C831DC08B81DC
:1004D0008937C1F4E981FA8186E08083E6E3F0E0C0
:1004E0008081882F90E0817090708823B9F7E9812E
:1004F000FA818081882F90E080509F4F0E948C026B
:100500008C8302C08FEF8C838C810F900F900F90A3
:100510000F90CF91DF910895DF93CF9300D00F928A
:10052000CDB7DEB79B838A83ECE3F0E08081882F30
:1005300090E0827090700097B9F7EEE3F0E08A8166
:100540009B8191838083E09A8DB3898389810F9009
:100550000F900F90CF91DF910895DF93CF93CDB798
:10056000DEB7E6E3F0E08081882F90E0867090703F
:1005700095958795CF91DF910895DF93CF93CDB770
:10058000DEB7A7E3B0E0E7E3F0E080818770886B37
:100590008C93EDE2F0E081E580830E941603CF9119
:1005A000DF910895DF93CF930F92CDB7DEB78983A4
:1005B000EFE2F0E089818083EEE2F0E08081882341
:1005C000DCF70F90CF91DF910895DF93CF93CDB7F4
:1005D000DEB780E40E94D202EEE2F0E08081882360
:1005E000DCF7EFE2F0E08081CF91DF910895DF93B7
:1005F000CF930F92CDB7DEB789838981823641F4DC
:10060000A8E3B0E0E8E3F0E08081877F8C930AC044
:100610008981833739F4A8E3B0E0E8E3F0E0808132
:100620008F7E8C930F90CF91DF910895DF93CF93BE
:10063000CDB7DEB7A8E3B0E0E8E3F0E08081886101
:100640008C93CF91DF910895DF93CF93CDB7DEB731
:100650000E9415048FE060EE40E40E947A0580E677
:1006600060E640E20E947A05CF91DF910895DF9322
:10067000CF93CDB7DEB72E970FB6F894DEBF0FBE7F
:10068000CDBF84E591E00E94010E85E691E09F8355
:100690008E831986188688E08A878EE691E09C878B
:1006A0008B870E9415048FE060EE40E40E947A057B
:1006B0002B853C8500D000D0EDB7FEB7319683E79F
:1006C00091E091838083338322830E94E50D0F9014
:1006D0000F900F900F90CE0108960E9499030097FB
:1006E00029F08FEF9FEF9E878D8718C000D0EDB760
:1006F000FEB7319686E891E0918380830E94E50DF4
:100700000F900F90CE01039660E070E00E94F4031A
:100710008E819F810E94010E1E861D868D859E857D
:100720002E960FB6F894DEBF0FBECDBFCF91DF91EE
:100730000895DF93CF9300D000D000D0CDB7DEB7BF
:100740009C838B8381E36FEF40E00E947A05EB810D
:10075000FC8180819181982F9295990F907E82E300
:1007600060EE492F0E947A05EB81FC818281882FFF
:1007700090E065E341E050E00E94B0048B819C81F1
:1007800060E00E94EC0480E00E9439051A82198220
:100790000DC00E945D05882F90E0847090700097D6
:1007A00059F089819A8101969A83898389819A81F6
:1007B0002FEF8F3F920769F789819A812FEF8F3F43
:1007C000920729F48FEF9FEF9E838D8302C01E82D4
:1007D0001D828D819E8126960FB6F894DEBF0FBED6
:1007E000CDBFCF91DF910895DF93CF9300D000D09C
:1007F000CDB7DEB79A8389837C836B830E945D05C6
:10080000882F90E0817090700097C1F32B818981CF
:100810009A81622F0E94650480E090E00F900F9013
:100820000F900F90CF91DF910895DF93CF93CDB7C5
:10083000DEB783E70E94F70280EC0E94D2020E949A
:100840001603CF91DF9108950F931F93DF93CF93FA
:10085000CDB7DEB727970FB6F894DEBF0FBECDBF7A
:100860009C838B836D835F834E8383E70E94F702B3
:1008700083E00E94D2028D810E94D2021A821982E4
:1008800010C029813A818B819C818C01020F131F3A
:100890000E94E502F801808389819A8101969A83FA
:1008A000898329813A818E819F81281739074CF3EA
:1008B0000E94160327960FB6F894DEBF0FBECDBF79
:1008C000CF91DF911F910F9108950F931F93DF93A5
:1008D000CF9300D000D00F92CDB7DEB79C838B832F
:1008E0006D838D81823090F58D81882319F481E0AC
:1008F0008D8305C08D81813011F483E08D8383E782
:100900000E94F7028D81882F90E0880F991F8069DF
:100910000E94D2021A82198212C0EB81FC812381CB
:10092000348189819A818901080F191F0E94E5028B
:10093000F801808389819A8101969A8389838981CC
:100940009A81883091054CF30E9416030F900F9006
:100950000F900F900F90CF91DF911F910F910895FD
:10096000DF93CF93CDB7DEB727970FB6F894DEBFEE
:100970000FBECDBF9C838B836D835F834E8383E7E4
:100980000E94F70282E00E94D2028D810E94D20270
:100990001A8219820FC029813A818B819C81FC01C6
:1009A000E20FF31F80810E94D20289819A81019611
:1009B0009A83898329813A818E819F8128173907FB
:1009C00054F30E94160327960FB6F894DEBF0FBEAD
:1009D000CDBFCF91DF910895DF93CF9300D000D0AA
:1009E0000F92CDB7DEB79C838B836D838D8183306F
:1009F000C0F5EB81FC818281893098F58D81882F4B
:100A000090E00196880F991F81508D8383E70E94A3
:100A1000F7028D8180640E94D2021A82198211C06D
:100A2000EB81FC812381348189819A81F901E80F6E
:100A3000F91F80810E94D20289819A8101969A834E
:100A40008983EB81FC818281282F30E089819A8122
:100A5000821793072CF30E9416038AE090E00E940D
:100A6000FA0D0F900F900F900F900F90CF91DF9194
:100A70000895DF93CF930F92CDB7DEB78983898135
:100A8000882319F481E089830BC08981813019F4AE
:100A900082E0898305C08981823059F484E08983AA
:100AA00083E70E94F702898180680E94D2020E9437
:100AB00016030F90CF91DF910895DF93CF930F929C
:100AC000CDB7DEB783E70E94F70280EA0E94D20228
:100AD0000E94E50289830E94160389810F90CF91BD
:100AE000DF910895DF93CF93CDB7DEB780E0CF914C
:100AF000DF910895DF93CF9300D00F92CDB7DEB78B
:100B000089836A834B8383E70E94F70285E00E9412
:100B1000D20289810E94D2028A810E94D2028B81F4
:100B20000E94D2020E9416030F900F900F90CF9157
:100B3000DF910895DF93CF93CDB7DEB727970FB638
:100B4000F894DEBF0FBECDBF8FEF8B8380E38A8327
:100B500081E991E00E94BC068A8189830E94F406A3
:100B60008A839A8189819817B9F38B81282F33273B
:100B700027FD309500D000D0EDB7FEB731968BE958
:100B800091E091838083338322830E94E50D0F904F
:100B90000F900F900F908A81282F30E03F832E8393
:100BA0008E819F818536910549F12E813F812636C0
:100BB00031055CF48E819F818033910569F22E812D
:100BC0003F8124363105B1F020C08E819F8182376C
:100BD000910511F22E813F812537310539F08E8143
:100BE0009F818C36910509F4B7CF0FC08B8181505E
:100BF0008B830FC08B818F5F8B830BC08B81992779
:100C000087FD90950E94850704C08AEA91E00E94C2
:100C1000BC068B81282F332727FD309500D000D0CC
:100C2000EDB7FEB7319680EB91E0918380833383FB
:100C300022830E94E50D0F900F900F900F908B81F3
:100C4000882314F483E08B838B8184300CF01B8227
:100C50008B81282F332727FD30953D832C838C8172
:100C60009D8181309105D1F02C813D81223031056B
:100C70002CF48C819D81009761F01FC02C813D81F7
:100C80002230310581F08C819D818330910581F086
:100C900014C081EC91E00E94BC065ECF89ED91E02A
:100CA0000E94BC0659CF80EF91E00E94BC0654CF51
:100CB00085E092E00E94BC064FCF1B824DCFDF93B0
:100CC000CF9300D000D0CDB7DEB780E38A838A818E
:100CD00089830E94F4068A839A8189819817B9F3DF
:100CE0008A81282F30E03C832B838B819C81853641
:100CF000910599F12B813C81263631055CF48B817D
:100D00009C818033910571F12B813C812436310522
:100D1000F9F02DC08B819C818237910579F02B8170
:100D20003C812537310579F08B819C818C3691058A
:100D3000F1F489E192E00E94BC06C9CF8EE192E015
:100D40000E94BC06C4CF84E292E00E94BC06BFCFE2
:100D500087E292E00E94BC06BACF8CE292E00E9449
:100D6000BC06B5CF82E392E00E94BC06B0CF8AEA0F
:100D700091E00E94BC06ABCFDF93CF9300D000D0B0
:100D8000CDB7DEB79C838B8382E60E94F7021A827E
:100D9000198219C029813A818B819C81FC01E20F63
:100DA000F31F80818823A1F029813A818B819C8166
:100DB000FC01E20FF31F80810E94D20289819A8197
:100DC00001969A83898389819A818831910514F3E8
:100DD00080E00E94D2020E9416030F900F900F90A5
:100DE0000F90CF91DF910895DF93CF93CDB7DEB70A
:100DF0002F970FB6F894DEBF0FBECDBF82E60E94DC
:100E0000F7028EE20E94D20280E090E0A0E2B1E41C
:100E10008B879C87AD87BE876B857C858D859E85FE
:100E20002AE93BE949E954E40E94150ADC01CB01B7
:100E30008F839887A987BA876F81788589859A85F6
:100E400020E030E040E85FE30E946F0B88232CF441
:100E500081E090E09E838D833FC06F817885898596
:100E60009A8520E03FEF4FE757E40E940F0B1816DA
:100E70004CF56B857C858D859E8520E030E040E2D9
:100E800051E40E94150ADC01CB01BC01CD010E9496
:100E90003F08DC01CB019E838D830FC08AE790E081
:100EA0009C838B838B819C810197F1F79C838B833F
:100EB0008D819E8101979E838D838D819E81009778
:100EC00069F714C06F81788589859A850E943F08EB
:100ED000DC01CB019E838D838D819E819A838983E2
:100EE00089819A810197F1F79A8389830E94E502AB
:100EF0008F870E9416038F852F960FB6F894DEBF5A
:100F00000FBECDBFCF91DF910895DF93CF93CDB7C3
:100F1000DEB761970FB6F894DEBF0FBECDBF8F87E7
:100F20008F85282F332727FD3095398B288B88898B
:100F3000998981309105D1F028893989223031058C
:100F40002CF488899989009761F090C028893989A3
:100F50002230310581F0888999898330910581F0AB
:100F600085C089E392E00E94BC060EC089E492E04D
:100F70000E94BC0609C088E592E00E94BC0604C03D
:100F800085E692E00E94BC0680E090E0AAEFB4E41F
:100F90008B879C87AD87BE876B857C858D859E857D
:100FA0002AE93BE949E954E40E94150ADC01CB0136
:100FB0008F839887A987BA876F81788589859A8575
:100FC00020E030E040E85FE30E946F0B88232CF4C0
:100FD00081E090E09E838D833FC06F817885898515
:100FE0009A8520E03FEF4FE757E40E940F0B181659
:100FF0004CF56B857C858D859E8520E030E040E258
:1010000051E40E94150ADC01CB01BC01CD010E9414
:101010003F08DC01CB019E838D830FC08AE790E0FF
:101020009C838B838B819C810197F1F79C838B83BD
:101030008D819E8101979E838D838D819E810097F6
:1010400069F714C06F81788589859A850E943F0869
:10105000DC01CB019E838D838D819E819A83898360
:1010600089819A810197F1F79A83898361960FB6F6
:10107000F894DEBF0FBECDBFCF91DF910895EF9200
:10108000FF920F931F937B018C0120E030E040E042
:101090005FE40E943F0B88238CF0C801B70120E079
:1010A00030E040E05FE40E94B7090E949F0B9B0183
:1010B000AC01205030404040504806C0C801B70144
:1010C0000E949F0B9B01AC01B901CA011F910F91B6
:1010D000FF90EF900895A0E0B0E0E1E7F8E00C9415
:1010E000FD11DC012B01FA019C91923008F439C109
:1010F000EB018881823008F433C1943069F4843084
:1011000009F02FC111969C9111978981981709F4C4
:1011100028C1A1E7B2E025C1843009F421C18230A1
:10112000A9F4923009F01DC19A01AD0188E0EA01ED
:101130000990AE01E90109929E018150C1F7E201D7
:10114000898111969C918923818308C1923009F489
:1011500007C112962D903C901397EB018A819B81D9
:101160001496AD90BD90CD90DC901797EC80FD80EB
:101170000E811F819101281B390BB90137FF04C073
:1011800066277727621B730B603271050CF061C014
:10119000121613066CF537014801062E04C096940A
:1011A0008794779467940A94D2F721E030E040E086
:1011B00050E004C0220F331F441F551F6A95D2F719
:1011C00021503040404050402E213F2140235123A8
:1011D000211531054105510521F021E030E040E0C5
:1011E00050E079018A01E628F728082919293CC02E
:1011F000232BD1F1260E371E35014601062E04C0E1
:1012000096948794779467940A94D2F721E030E01B
:1012100040E050E004C0220F331F441F551F6A9561
:10122000D2F721503040404050402A213B214C21F0
:101230005D21211531054105510521F021E030E006
:1012400040E050E059016A01A628B728C828D928EB
:101250000BC0821593052CF01C01AA24BB24650148
:1012600003C0EE24FF24870111969C91D2011196B0
:101270008C91981709F445C0992339F0A80197017A
:101280002A193B094C095D0906C0A60195012E19D2
:101290003F09400B510B57FD08C011823382228257
:1012A00024833583468357831DC081E08183338245
:1012B000228288279927DC01821B930BA40BB50B94
:1012C00084839583A683B7830DC0220F331F441FE9
:1012D000551F2483358346835783828193810197E9
:1012E000938382832481358146815781DA01C90144
:1012F0000197A109B1098F5F9F4FAF4FBF4328F3FB
:101300000BC0918333822282EA0CFB1C0C1D1D1D35
:10131000E482F5820683178383E08083248135810C
:101320004681578157FF1AC0C901AA2797FDA0958A
:10133000BA2F81709070A070B07056954795379510
:101340002795822B932BA42BB52B84839583A6837F
:10135000B78382819381019693838283DF0101C0E9
:10136000D201CD01CDB7DEB7E2E10C941912A0E2B3
:10137000B0E0EDEBF9E00C94091269837A838B837A
:101380009C832D833E834F835887E9E0EE2EF12C1A
:10139000EC0EFD1ECE010196B7010E94C80C8E0115
:1013A0000F5E1F4FCE010596B8010E94C80C8A89B6
:1013B00091E089278A8BC701B801AE01475E5F4F74
:1013C0000E946B080E94F30BA096E6E00C94251295
:1013D000A0E2B0E0EEEEF9E00C94091269837A83A2
:1013E0008B839C832D833E834F835887F9E0EF2EB8
:1013F000F12CEC0EFD1ECE010196B7010E94C80C27
:101400008E010F5E1F4FCE010596B8010E94C80CD9
:10141000C701B801AE01475E5F4F0E946B080E9492
:10142000F30BA096E6E00C942512A0E2B0E0EBE10D
:10143000FAE00C94FD1169837A838B839C832D835E
:101440003E834F835887CE010196BE01675F7F4F71
:101450000E94C80CCE010596BE016F5E7F4F0E94B0
:10146000C80C9985923088F089898230C8F0943010
:1014700019F4823051F404C0843029F4923081F49C
:1014800081E792E0C6C0923049F420E09A858A89CB
:10149000981321E02A87CE010996BBC0823049F417
:1014A00020E09A858A89981321E02A8BCE01419603
:1014B000B0C02D843E844F8458886D887E888F8884
:1014C000988CEE24FF248701AA24BB24650140E008
:1014D00050E060E070E0E0E0F0E0C1018170907009
:1014E000892BE9F0E60CF71C081D191D9A01AB01C8
:1014F0002A0D3B1D4C1D5D1D80E090E0A0E0B0E09A
:10150000E614F7040805190520F481E090E0A0E056
:10151000B0E0BA01A901480F591F6A1F7B1FAA0C2E
:10152000BB1CCC1CDD1C97FE08C081E090E0A0E055
:10153000B0E0A82AB92ACA2ADB2A3196E032F1059E
:1015400049F0660C771C881C991C56944794379474
:101550002794C3CFFA85EA892B893C898B859C85A2
:10156000280F391F2E5F3F4F17C0CA01817090703E
:10157000892B61F016950795F794E79480E090E049
:10158000A0E0B0E8E82AF92A0A2B1B2B769567958C
:10159000579547952F5F3F4F77FDE7CF0CC0440F1E
:1015A000551F661F771F17FD4160EE0CFF1C001FC3
:1015B000111F21503040403090E0590790E06907FA
:1015C00090E4790760F32B8F3C8FDB01CA018F77A2
:1015D0009070A070B07080349105A105B10561F4E0
:1015E00047FD0AC0E114F1040105110529F0405C32
:1015F0005F4F6F4F7F4F40781A8EFE1711F081E0DA
:101600008A8F4D8F5E8F6F8F78A383E0898FCE0195
:1016100049960E94F30BA096E2E10C941912A8E1FE
:10162000B0E0E5E1FBE00C94091269837A838B83D7
:101630009C832D833E834F83588789E0E82EF12CCD
:10164000EC0EFD1ECE010196B7010E94C80C8E0162
:101650000F5E1F4FCE010596B8010E94C80C898508
:10166000823040F08989823028F0C701B8010E9499
:10167000400D01C08FEF6896E6E00C942512A8E1BA
:10168000B0E0E5E4FBE00C94091269837A838B8374
:101690009C832D833E834F83588789E0E82EF12C6D
:1016A000EC0EFD1ECE010196B7010E94C80C8E0102
:1016B0000F5E1F4FCE010596B8010E94C80C8985A8
:1016C000823040F08989823028F0C701B8010E9439
:1016D000400D01C08FEF6896E6E00C942512A8E15A
:1016E000B0E0E5E7FBE00C94091269837A838B8311
:1016F0009C832D833E834F83588789E0E82EF12C0D
:10170000EC0EFD1ECE010196B7010E94C80C8E01A1
:101710000F5E1F4FCE010596B8010E94C80C898547
:10172000823040F08989823028F0C701B8010E94D8
:10173000400D01C081E06896E6E00C942512ACE013
:10174000B0E0E5EAFBE00C940D1269837A838B83A9
:101750009C83CE010196BE016B5F7F4F0E94C80C37
:101760008D81823061F1823050F1843021F48E819C
:10177000882351F12EC02F81388537FD20C06E811E
:101780002F3131051CF06623F9F023C08EE190E083
:10179000821B930B29853A854B855C8504C0569541
:1017A0004795379527958A95D2F76623B1F05095DE
:1017B0004095309521953F4F4F4F5F4F0EC020E031
:1017C00030E040E050E009C02FEF3FEF4FEF5FE720
:1017D00004C020E030E040E050E8B901CA012C9696
:1017E000E2E00C942912DF92EF92FF920F931F9385
:1017F000FC01E480F58006811781D18080818230F0
:1018000048F480E090E0A0E1B0E0E82AF92A0A2B51
:101810001B2BA5C0843009F49FC0823021F4EE2434
:10182000FF24870105C0E114F1040105110519F435
:10183000E0E0F0E096C0628173819FEF6238790743
:101840000CF05BC022E83FEF261B370B2A31310535
:101850002CF020E030E040E050E02AC0B801A701C1
:10186000022E04C076956795579547950A94D2F74E
:1018700081E090E0A0E0B0E004C0880F991FAA1FAB
:10188000BB1F2A95D2F70197A109B1098E219F218B
:10189000A023B1230097A105B10521F081E090E0DC
:1018A000A0E0B0E09A01AB01282B392B4A2B5B2B2F
:1018B000DA01C9018F779070A070B0708034910503
:1018C000A105B10539F427FF09C0205C3F4F4F4FF8
:1018D0005F4F04C0215C3F4F4F4F5F4FE0E0F0E0AF
:1018E0002030A0E03A07A0E04A07A0E45A0710F031
:1018F000E1E0F0E079018A0127C06038710564F504
:10190000FB01E158FF4FD801C7018F779070A0709D
:10191000B07080349105A105B10539F4E7FE0DC022
:1019200080E490E0A0E0B0E004C08FE390E0A0E0AD
:10193000B0E0E80EF91E0A1F1B1F17FF05C0169521
:101940000795F794E794319687E016950795F794F5
:10195000E7948A95D1F705C0EE24FF248701EFEFC5
:10196000F0E06E2F679566276795902F9F77D79445
:10197000DD24D7948E2F8695492F462B582F5D292D
:10198000B701CA011F910F91FF90EF90DF9008956A
:10199000FC01DB01408151812281622F6F7770E071
:1019A000221F2227221F9381892F880F822B282F05
:1019B00030E0991F9927991F11969C931197211533
:1019C0003105A9F5411551056105710511F482E054
:1019D00037C082E89FEF13969C938E9312979A01DB
:1019E000AB0167E0220F331F441F551F6A95D1F7E3
:1019F00083E08C930DC0220F331F441F551F129696
:101A00008D919C911397019713969C938E931297A7
:101A1000203080E0380780E0480780E4580758F31A
:101A200014962D933D934D935C93179708952F3FF4
:101A3000310579F4411551056105710519F484E00A
:101A40008C93089564FF03C081E08C9312C01C92B4
:101A500010C02F57304013963C932E93129783E07B
:101A60008C9387E0440F551F661F771F8A95D1F727
:101A7000706414964D935D936D937C9317970895BE
:101A80001F93DC01FB019C91923008F447C08081D8
:101A9000823008F443C0943051F411961C91843084
:101AA00099F58181682F70E0611B71093FC0843016
:101AB00021F0923031F48230B9F18181882389F1AB
:101AC0002DC011961C9111978230F1F08181181769
:101AD000D9F412962D913C911397828193818217AC
:101AE000930794F028173907BCF014968D919D91B7
:101AF0000D90BC91A02D24813581468157812817F6
:101B000039074A075B0718F4112341F00AC082170E
:101B10009307A407B50740F4112319F061E070E0C2
:101B200005C06FEF7FEF02C060E070E0CB011F9156
:101B300008950F931F93CF93DF938C01EB010097D0
:101B400031F46115710519F420E030E038C081E00E
:101B500090E06EE070E00E941310FC019C01009781
:101B600071F180E88383209771F0D387C28781E881
:101B700083838091800290918102892B21F4F093DC
:101B80008102E093800201151105C9F011870087D9
:101B90008381826083838091820290918302892B6A
:101BA00071F4F0938302E093820280918402909119
:101BB0008502892B21F4F0938502E0938402C90108
:101BC000DF91CF911F910F910895A0E0B0E0EBEE6F
:101BD000FDE00C940D12FE0135966191719180919A
:101BE000820290918302AF010E94360E2096E2E0BD
:101BF0000C94291260918202709183020E9451110B
:101C000008950F931F93CF93DF938C01E09182028D
:101C1000F0918302838181FF21C0C0E0D0E00DC03C
:101C2000E0918202F091830220853185BF01F901A4
:101C30000995892B11F0CFEFDFEFF80181918F012A
:101C4000882371F7E0918202F0918302208531852B
:101C50008AE0BF01F9010995892B11F0CFEFDFEF81
:101C6000CE01DF91CF911F910F910895ABE0B0E0CD
:101C7000ECE3FEE00C94FD113C012B015A01FC0148
:101C800017821682838181FD03C06FEF7FEFC6C18B
:101C90009AE0892E1E010894211C311CF301238136
:101CA000F20123FD859123FF81912F01882309F4FF
:101CB000B2C1853239F423FD859123FF81912F0133
:101CC000853229F490E0B3010E945111E7CF982F9B
:101CD000FF24EE249924FFE1FF15D0F09B3269F038
:101CE0009C3228F4903259F0933291F40EC09D3218
:101CF00049F0903369F441E024C052E0F52A84E0D1
:101D0000F82A28C098E0F92A25C0E0E1FE2A22C07E
:101D1000F7FC29C0892F80538A3070F4F6FE05C085
:101D2000989C902C1124980E15C0E89CE02C11244E
:101D3000E80EF0E2FF2A0EC09E3229F4F6FC6BC1D9
:101D400040E4F42A07C09C3619F450E8F52A02C092
:101D5000983649F4F20123FD959123FF91912F01CB
:101D6000992309F0B8CF892F8554833018F0805219
:101D7000833038F444E050E0A40EB51E5FE359838D
:101D80000FC0933631F0933779F0933509F056C090
:101D900020C0F5018081898342E050E0A40EB51E89
:101DA000610101E010E012C0F501C080D180F6FCB5
:101DB00003C06FEF7FEF02C0692D70E042E050E09A
:101DC000A40EB51EC6010E9446118C015FE7F522E4
:101DD00014C0F501C080D180F6FC03C06FEF7FEF27
:101DE00002C0692D70E042E050E0A40EB51EC601AD
:101DF0000E9434118C0150E8F52AF3FE07C01AC086
:101E000080E290E0B3010E945111EA948E2D90E09F
:101E100008171907A8F30EC0F601F7FC8591F7FE25
:101E200081916F0190E0B3010E945111E110EA9499
:101E3000015010400115110579F7EAC0943611F0F0
:101E4000993669F5F7FE08C0F5012081318142819C
:101E5000538184E090E00AC0F501808191819C016A
:101E6000442737FD4095542F82E090E0A80EB91E1C
:101E70009FE6F92257FF09C050954095309521956E
:101E80003F4F4F4F5F4FE0E8FE2ACA01B901A10161
:101E90002AE030E00E947D11D82ED21840C095373C
:101EA00029F41F2D1F7E2AE030E01DC01F2D197F51
:101EB0009F3661F0903720F4983509F0ACC00FC020
:101EC000903739F0983709F0A6C004C028E030E018
:101ED0000AC0106114FD146020E130E004C014FD5C
:101EE000166020E132E017FF08C0F50160817181C2
:101EF0008281938144E050E008C0F50180819181A6
:101F0000BC0180E090E042E050E0A40EB51EA101CB
:101F10000E947D11D82ED2188FE7F82EF122F6FEFE
:101F20000BC05EEFF522D91438F4F4FE07C0F2FCC2
:101F300005C08FEEF82202C01D2D01C0192DF4FE40
:101F40000DC0FE01ED0DF11D8081803319F499EE75
:101F5000F92208C01F5FF2FE05C003C08F2D8678EE
:101F600009F01F5F0F2DF3FC14C0F0FE0FC01E150B
:101F700010F09D2C0BC09D2C9E0C911A1E2D06C09E
:101F800080E290E0B3010E9451111F5F1E15C0F363
:101F900004C01E1510F4E11A01C0EE2404FF0FC0A6
:101FA00080E390E0B3010E94511102FF1DC001FDCA
:101FB00003C088E790E00EC088E590E00BC0802F5A
:101FC000867891F001FF02C08BE201C080E2F7FC4D
:101FD0008DE290E0B3010E94511106C080E390E0D1
:101FE000B3010E9451119A94D914C0F3DA94F1010B
:101FF000ED0DF11D808190E0B3010E945111DD20B3
:10200000A9F706C080E290E0B3010E945111EA9462
:10201000EE20C1F743CEF30166817781CB012B9689
:10202000E2E10C9419120F931F93CF93DF93689FF3
:102030008001699F100D789F100D1124C8010E9426
:102040002F10EC01009729F060E070E0A8010E94D9
:102050003F11CE01DF91CF911F910F910895CF9342
:10206000DF93BC018230910510F462E070E0A09132
:102070008802B0918902ED01E0E0F0E040E050E03C
:1020800021C0888199818617970769F48A819B818D
:10209000309719F09383828304C0909389028093D0
:1020A0008802FE0134C06817790738F441155105DC
:1020B00019F08417950708F4AC01FE018A819B8111
:1020C0009C01E9012097E9F641155105A9F1CA01E2
:1020D000861B970B049708F4BA01E0E0F0E02AC0F1
:1020E0008D919C91119784179507F9F464177507E2
:1020F00081F412968D919C911397309719F09383E8
:10210000828304C09093890280938802FD013296F5
:102110004FC0CA01861B970BFD01E80FF91F6193A1
:10212000719302978D939C9343C0FD0182819381AB
:102130009C01D9011097A1F68091860290918702A7
:10214000892B41F480917B0290917C0290938702CD
:102150008093860240917D0250917E024115510587
:1021600041F44DB75EB78091790290917A02481B95
:10217000590B209186023091870224173507B0F45D
:10218000CA01821B930B8617970780F0AB014E5F45
:102190005F4F8417950750F0420F531F50938702EB
:1021A00040938602F9016193719302C0E0E0F0E090
:1021B000CF01DF91CF910895CF93DF93009709F47A
:1021C00050C0EC0122971B821A82A0918802B09124
:1021D0008902109709F140E050E0AC17BD0708F103
:1021E000BB83AA83FE0121913191E20FF31FAE1749
:1021F000BF0779F48D919C911197280F391F2E5F9D
:102200003F4F3983288312968D919C9113979B831E
:102210008A834115510571F4D0938902C0938802D5
:1022200020C012968D919C911397AD01009711F0EB
:10223000DC01D3CFFA01D383C28321913191E20F24
:10224000F31FCE17DF0769F488819981280F391FA2
:102250002E5F3F4FFA01318320838A819B819383D4
:102260008283DF91CF910895FC0105906150704009
:102270000110D8F7809590958E0F9F1F0895DC016F
:1022800001C06D9341505040E0F70895FC0161504A
:10229000704001900110D8F7809590958E0F9F1F88
:1022A00008950F931F93CF93DF938C01EB018B81E4
:1022B00081FF1BC082FF0DC02E813F818C819D81DB
:1022C0002817390764F4E881F9810193F983E883D9
:1022D00006C0E885F985802F0995892B31F48E8118
:1022E0009F8101969F838E8302C00FEF1FEFC8016D
:1022F000DF91CF911F910F910895FA01AA272830FD
:1023000051F1203181F1E8946F936E7F6E5F7F4FC2
:102310008F4F9F4FAF4FB1E03ED0B4E03CD0670F3E
:10232000781F891F9A1FA11D680F791F8A1F911D91
:10233000A11D6A0F711D811D911DA11D20D009F4E1
:1023400068943F912AE0269F11243019305D319323
:10235000DEF6CF010895462F4770405D4193B3E00C
:102360000FD0C9F7F6CF462F4F70405D4A3318F0B3
:10237000495D31FD4052419302D0A9F7EACFB4E064
:10238000A6959795879577956795BA95C9F700971C
:102390006105710508959B01AC010A2E06945795BD
:1023A000479537952795BA95C9F7620F731F841F14
:1023B000951FA01D0895A1E21A2EAA1BBB1BFD01AB
:1023C0000DC0AA1FBB1FEE1FFF1FA217B307E40714
:1023D000F50720F0A21BB30BE40BF50B661F771F6C
:1023E000881F991F1A9469F760957095809590954C
:1023F0009B01AC01BD01CF0108952F923F924F92F6
:102400005F926F927F928F929F92AF92BF92CF9284
:10241000DF92EF92FF920F931F93CF93DF93CDB78D
:10242000DEB7CA1BDB0B0FB6F894DEBF0FBECDBF05
:1024300009942A88398848885F846E847D848C84D6
:102440009B84AA84B984C884DF80EE80FD800C81DF
:102450001B81AA81B981CE0FD11D0FB6F894DEBFC2
:0C2460000FBECDBFED010895F894FFCF32
:10246C00496E697469616C697A6174696F6E206315
:10247C006F6D706C6574650043414E5F7465737469
:10248C003A202564005374617274696E672E2E2E87
:10249C00004572726F722121212052414D206E6FC6
:1024AC002E2030782578200046696E697368656443
:1024BC002121210043414E5F746573742073746154
:1024CC007274656400000000000000000000686188
:1024DC006C6C0053656E64696E6720737472696E00
:1024EC00673A2025730052656365697665643A2006
:1024FC000056656C6B6F6D6D656E00737461746501
:10250C0020666F723A2025640A006572726F720041
:10251C0073746174652065747465723A2025640A5D
:10252C00003120537461727420656E7370696C6C29
:10253C00657220706F656E6700322053746172741F
:10254C0020656E7370696C6C6572206576696700C6
:10255C003320537461727420666C657273702070D2
:10256C006F656E67003420537461727420666C65FD
:10257C007273702065766967006C656674007269A9
:10258C0067687400757000646F776E00656E7465B3
:10259C00720063656E74657200656E7370696C6C45
:1025AC00657220706F656E6700656E7370696C6C18
:1025BC006572206576696700766572737573207035
:1025CC006F656E67007665727375732065766967E3
:1025DC0000000000000000000020008A0200000043
:00000001FF
