:100000000C9438000C94BE020C9408030C94550018
:100010000C9455000C9455000C9455000C9455000C
:100020000C9455000C9455000C9455000C945500FC
:100030000C9455000C9455000C9455000C945500EC
:100040000C9455000C9455000C9455000C945500DC
:100050000C9455000C9455000C9455000C945500CC
:100060000C9455000C9455000C9455000C945500BC
:1000700011241FBECFEFD4E0DEBFCDBF12E0A0E061
:10008000B1E0EEEAF4E102C005900D92AA38B107A2
:10009000D9F712E0AAE8B2E001C01D92A439B10775
:1000A000E1F70E9457000C94550A0C940000DF936E
:1000B000CF93CDB7DEB70E94550180E895E20E944C
:1000C0009C000E94C4000E9406010E9437010E9409
:1000D000590180E091E00E9422060E94C5019C0126
:1000E00000D000D0EDB7FEB7319688E191E0918362
:1000F0008083338322830E9406060F900F900F9017
:100100000F900E94DC0380E090E0CF91DF91089592
:100110001F93182F8A3019F48DE00E9488005D9B90
:10012000FECF1CB980E090E01F9108955F9BFECF49
:100130008CB18CB190E008959C0140E050E064E007
:10014000220F331F441F551F6A95D1F76AEF70E0E5
:100150008BE490E00E94FC09C901DA010197A10932
:10016000B109292F3A2F4B2F552720BD89B988E196
:100170008AB986EA80BD88E890E066E970E00E946E
:10018000BA0580E090E0089585B7806C85BF86B79A
:10019000846086BF80B7806280BF08950F931F93ED
:1001A000CF93DF9385E291E00E942206E0E0F0E148
:1001B00043E829E939E04193C9010197F1F788E162
:1001C000E030F807C1F7C0E0D0E001E311E0C05033
:1001D000D04F8881C050D041833871F000D000D01A
:1001E000EDB7FEB712830183D483C3830E94060652
:1001F0000F900F900F900F902196F8E0C030DF071E
:1002000031F788E491E00E942206FFCF17BA8FEF02
:1002100088BB0895883779F484E080930018B099FA
:10022000FECF80910018E199FECF90E09FBB8EBB7E
:10023000E09A8DB30895893711F08FEF089586E025
:1002400080930018B099FECF80910018E199FECFFD
:1002500090E080509F4F9FBB8EBBE09A8DB3089576
:1002600086B390E08670907095958795089587B3D2
:100270008770886B87BB81E58DB988B3886188BB3F
:1002800008958FB9779BFECF089580E48FB9779B4F
:10029000FECF779BFECF8FB10895823611F4C398BD
:1002A0000895833709F4C498089588B3886188BB9A
:1002B0000895DF93CF9300D0CDB7DEB70E946004DE
:1002C0008FEF898380EE8A83898160E20E94FB043C
:1002D0008A8161E20E94FB0483E0898380EE8A8345
:1002E000898160E00E94FB048A8161E00E94FB0436
:1002F0008FEF898380EE8A83898164E20E94FB0408
:100300008A8165E20E94FB0419821A82898168E071
:100310000E94FB048A8169E00E94FB04198280E24A
:100320008A83898160E10E94FB048A8161E10E94E5
:10033000FB04198280E48A83898164E10E94FB04C2
:100340008A8165E10E94FB04198280E68A838981A3
:1003500068E10E94FB048A8169E10E94FB048FE04E
:1003600060EE40E00E949A0580E660E640E20E946E
:100370009A058CE06FE04FEF0E949A050E949B0265
:100380000F900F90CF91DF910895DF93CF93CDB76A
:10039000DEB727970FB6F894DEBF0FBECDBF84E55A
:1003A00091E00E9422061C821B8288E08D8385E6F4
:1003B00091E09F838E8380E090E027960FB6F894BB
:1003C000DEBF0FBECDBFCF91DF910895DF93CF93F6
:1003D000CDB7DEB72E970FB6F894DEBF0FBECDBFF8
:1003E0009A8789877C876B871C821B8287E691E0CE
:1003F0009A8389831E821D821FC029813A818D8143
:100400009E81D901A80FB91F29853A858D819E81CA
:10041000F901E80FF91F80818C9329813A818D8140
:100420009E81F901E80FF91F8081882351F08D81A9
:100430009E8101969E838D838D819E81883091055A
:10044000E0F2F8948B859C85959587959595879591
:1004500095958795982F81E36FEF492F0E949A0514
:100460008B85982F9295990F907E82E360EE492FAD
:100470000E949A0588E065E30E94FB0489819A81C5
:1004800060E00E94180580E00E9459051E821D82CE
:100490000DC00E947D05882F90E0847090700097B9
:1004A00059F08D819E8101969E838D838D819E81E1
:1004B0002FEF8F3F920769F778948D819E812FEF00
:1004C0008F3F920729F48FEF9FEF9E878D8702C0A1
:1004D0001E861D868D859E852E960FB6F894DEBFEE
:1004E0000FBECDBFCF91DF910895DF93CF9300D0A2
:1004F00000D0CDB7DEB79A8389837C836B830E945B
:100500007D05282F30E08B819C81880F991F0196F3
:1005100082239323009799F32B8189819A81622FFB
:100520000E94B00480E090E00F900F900F900F9029
:10053000CF91DF910895DF93CF93CDB7DEB7A2E3DC
:10054000B0E0E2E3F0E080818C608C93A1E3B0E066
:10055000E1E3F0E08081837F8C93A5E5B0E0E5E501
:10056000F0E080818C93ABE5B0E0EBE5F0E08081DA
:10057000806C8C937894CF91DF9108951F920F92A5
:100580000FB60F9211242F933F934F935F936F9366
:100590007F938F939F93AF93BF93EF93FF93DF93DB
:1005A000CF9300D000D00F92CDB7DEB78FE691E0A9
:1005B0009D838C8300D0EDB7FEB7319688E791E03C
:1005C000918380830E9406060F900F90CE010196C2
:1005D00060E070E00E9475028C819D810E9422067D
:1005E0000F900F900F900F900F90CF91DF91FF9190
:1005F000EF91BF91AF919F918F917F916F915F919B
:100600004F913F912F910F900FBE0F901F90189513
:100610001F920F920FB60F9211242F933F934F9377
:100620005F936F937F938F939F93AF93BF93EF935A
:10063000FF93DF93CF9300D000D00F92CDB7DEB7FA
:100640008FE691E09D838C8300D0EDB7FEB73196A5
:100650008EE891E0918380830E9406060F900F90B0
:10066000CE01019661E070E00E9475028C819D814F
:100670000E9422060F900F900F900F900F90CF9135
:10068000DF91FF91EF91BF91AF919F918F917F91FA
:100690006F915F914F913F912F910F900FBE0F90EF
:1006A0001F9018951F93F89482E60E944D018EE2E8
:1006B0000E94410180E090E30197F1F70E9445011B
:1006C000182F0E9455017894812F1F9108950F9340
:1006D0001F93CF93DF938C01F89482E60E944D0123
:1006E000C0E0D0E0F801EC0FFD1F8081882331F0DD
:1006F0000E9441012196C831D105A1F780E00E94F6
:1007000041010E9455017894DF91CF911F910F9183
:100710000895813069F082301CF4882331F0089507
:10072000823049F08330B9F409C084EA91E008C00E
:1007300084EB91E005C083EC91E002C080ED91E094
:100740000E94670380E29EE42AE730E0F9013197D6
:10075000F1F70197D9F708950F931F9300E301C0B4
:10076000012F0E945203182F8017D1F38536C9F04C
:10077000863628F48033C1F08436C9F40FC082373E
:1007800039F0853741F08C3691F48CED91E011C051
:1007900081EE91E00EC087EE91E00BC08AEE91E011
:1007A00008C08FEE91E005C085EF91E002C08CEFAC
:1007B00091E00E946703D4CFAF92BF92CF92DF92B5
:1007C000FF920F931F93CF93DF9382E092E00E94FA
:1007D00067031FEF20E3F22E9CE0A92E92E0B92ED2
:1007E0008BE1C82E82E0D82E02C010E0F02E0E94CD
:1007F0005203082F8F15D1F3C12FDD27C7FDD095E8
:1008000000D000D0EDB7FEB7B282A182D483C383FB
:100810000E9406060F900F900F900F90053691F0F2
:10082000063628F4003311F3043681F409C0023788
:10083000E9F2053719F00C3649F4D8CF11500AC047
:100840001F5F08C0CE010E94890304C08CEF91E0B5
:100850000E94670300D000D0EDB7FEB7D282C182FC
:10086000812F992787FD9095948383830E940606A4
:100870000F900F900F900F9017FD1CC014306CF468
:10088000113081F012301CF4112339F0AECF123048
:1008900061F0133009F0A9CF0DC08CE292E00E9404
:1008A0006703A3CF84E492E002C08BE592E00E944C
:1008B00067039CCF80E792E00E94670313E096CF26
:1008C000DF93CF93CDB7DEB783E70E944D0180EC75
:1008D0000E9441010E945501CF91DF9108950F932D
:1008E0001F93DF93CF93CDB7DEB727970FB6F8945A
:1008F000DEBF0FBECDBF9C838B836D835F834E8332
:1009000083E70E944D0183E00E9441018D810E9496
:1009100041011A82198210C029813A818B819C8100
:100920008C01020F131F0E944501F8018083898109
:100930009A8101969A83898329813A818E819F8148
:10094000281739074CF30E94550127960FB6F894E3
:10095000DEBF0FBECDBFCF91DF911F910F910895E4
:100960000F931F93DF93CF9300D000D00F92CDB79A
:10097000DEB79C838B836D838D81823090F58D8172
:10098000882319F481E08D8305C08D81813011F4B5
:1009900083E08D8383E70E944D018D81882F90E055
:1009A000880F991F80690E9441011A82198212C022
:1009B000EB81FC812381348189819A818901080F2F
:1009C000191F0E944501F801808389819A8101964F
:1009D0009A83898389819A81883091054CF30E949A
:1009E00055010F900F900F900F900F90CF91DF91C6
:1009F0001F910F910895DF93CF9300D000D0CDB712
:100A0000DEB78B836C8383E70E944D0182E00E94F6
:100A100041018C810E9441018B810E9441010E9411
:100A200055010F900F900F900F90CF91DF91089587
:100A3000DF93CF9300D000D00F92CDB7DEB79C8369
:100A40008B836D838D81833060F58D81882F90E05D
:100A50000196880F991F81508D8383E70E944D0175
:100A60008D8180640E9441011A8219820FC0298100
:100A70003A818B819C81FC01E20FF31F80810E94EF
:100A8000410189819A8101969A83898389819A811A
:100A90008830910564F30E9455018AE090E00E943D
:100AA0001B060F900F900F900F900F90CF91DF913A
:100AB0000895DF93CF930F92CDB7DEB789838981F5
:100AC000882319F481E089830BC08981813019F46E
:100AD00082E0898305C08981823059F484E089836A
:100AE00083E70E944D01898180680E9441010E9434
:100AF00055010F90CF91DF910895DF93CF930F921F
:100B0000CDB7DEB783E70E944D0180EA0E94410124
:100B10000E94450189830E94550189810F90CF91E0
:100B2000DF910895DF93CF93CDB7DEB780E0CF910B
:100B3000DF910895DF93CF9300D00F92CDB7DEB74A
:100B400089836A834B8383E70E944D0185E00E947D
:100B5000410189810E9441018A810E9441018B816A
:100B60000E9441010E9455010F900F900F90CF916C
:100B7000DF9108950F931F93CF93DF938C01EB01C7
:100B8000009731F46115710519F420E030E038C0A8
:100B900081E090E06EE070E00E943408FC019C016E
:100BA000009771F180E88383209771F0D387C28723
:100BB00081E8838380918A0290918B02892B21F4B2
:100BC000F0938B02E0938A0201151105C9F0118799
:100BD000008783818260838380918C0290918D0253
:100BE000892B71F4F0938D02E0938C0280918E0238
:100BF00090918F02892B21F4F0938F02E0938E0263
:100C0000C901DF91CF911F910F910895A0E0B0E04D
:100C1000ECE0F6E00C942E0AFE013596619171919C
:100C200080918C0290918D02AF010E945706209610
:100C3000E2E00C944A0A60918C0270918D020E944D
:100C4000720908950F931F93CF93DF938C01E09166
:100C50008C02F0918D02838181FF21C0C0E0D0E041
:100C60000DC0E0918C02F0918D0220853185BF018D
:100C7000F9010995892B11F0CFEFDFEFF801819190
:100C80008F01882371F7E0918C02F0918D0220850D
:100C900031858AE0BF01F9010995892B11F0CFEF69
:100CA000DFEFCE01DF91CF911F910F910895ABE05F
:100CB000B0E0EDE5F6E00C941E0A3C012B015A0170
:100CC000FC0117821682838181FD03C06FEF7FEFE5
:100CD000C6C19AE0892E1E010894211C311CF30123
:100CE0002381F20123FD859123FF81912F01882328
:100CF00009F4B2C1853239F423FD859123FF819136
:100D00002F01853229F490E0B3010E947209E7CFE8
:100D1000982FFF24EE249924FFE1FF15D0F09B3299
:100D200069F09C3228F4903259F0933291F40EC05D
:100D30009D3249F0903369F441E024C052E0F52A35
:100D400084E0F82A28C098E0F92A25C0E0E1FE2ACC
:100D500022C0F7FC29C0892F80538A3070F4F6FE38
:100D600005C0989C902C1124980E15C0E89CE02C8E
:100D70001124E80EF0E2FF2A0EC09E3229F4F6FCA0
:100D80006BC140E4F42A07C09C3619F450E8F52AF8
:100D900002C0983649F4F20123FD959123FF919109
:100DA0002F01992309F0B8CF892F8554833018F08B
:100DB0008052833038F444E050E0A40EB51E5FE367
:100DC00059830FC0933631F0933779F0933509F09A
:100DD00056C020C0F5018081898342E050E0A40E16
:100DE000B51E610101E010E012C0F501C080D180A4
:100DF000F6FC03C06FEF7FEF02C0692D70E042E0A8
:100E000050E0A40EB51EC6010E9467098C015FE781
:100E1000F52214C0F501C080D180F6FC03C06FEF4D
:100E20007FEF02C0692D70E042E050E0A40EB51ED5
:100E3000C6010E9455098C0150E8F52AF3FE07C04F
:100E40001AC080E290E0B3010E947209EA948E2DEC
:100E500090E008171907A8F30EC0F601F7FC85917A
:100E6000F7FE81916F0190E0B3010E947209E110D9
:100E7000EA94015010400115110579F7EAC0943643
:100E800011F0993669F5F7FE08C0F501208131812E
:100E90004281538184E090E00AC0F5018081918114
:100EA0009C01442737FD4095542F82E090E0A80E26
:100EB000B91E9FE6F92257FF09C05095409530951D
:100EC00021953F4F4F4F5F4FE0E8FE2ACA01B9011D
:100ED000A1012AE030E00E949E09D82ED21840C01D
:100EE000953729F41F2D1F7E2AE030E01DC01F2DED
:100EF000197F9F3661F0903720F4983509F0ACC027
:100F00000FC0903739F0983709F0A6C004C028E028
:100F100030E00AC0106114FD146020E130E004C02C
:100F200014FD166020E132E017FF08C0F501608172
:100F300071818281938144E050E008C0F501808195
:100F40009181BC0180E090E042E050E0A40EB51E2B
:100F5000A1010E949E09D82ED2188FE7F82EF12207
:100F6000F6FE0BC05EEFF522D91438F4F4FE07C08C
:100F7000F2FC05C08FEEF82202C01D2D01C0192D14
:100F8000F4FE0DC0FE01ED0DF11D8081803319F4DA
:100F900099EEF92208C01F5FF2FE05C003C08F2D35
:100FA000867809F01F5F0F2DF3FC14C0F0FE0FC010
:100FB0001E1510F09D2C0BC09D2C9E0C911A1E2D01
:100FC00006C080E290E0B3010E9472091F5F1E1507
:100FD000C0F304C01E1510F4E11A01C0EE2404FF92
:100FE0000FC080E390E0B3010E94720902FF1DC0B0
:100FF00001FD03C088E790E00EC088E590E00BC0DB
:10100000802F867891F001FF02C08BE201C080E260
:10101000F7FC8DE290E0B3010E94720906C080E304
:1010200090E0B3010E9472099A94D914C0F3DA9443
:10103000F101ED0DF11D808190E0B3010E94720974
:10104000DD20A9F706C080E290E0B3010E9472099A
:10105000EA94EE20C1F743CEF30166817781CB019C
:101060002B96E2E10C943A0A0F931F93CF93DF93F0
:10107000689F8001699F100D789F100D1124C80191
:101080000E945008EC01009729F060E070E0A80190
:101090000E946009CE01DF91CF911F910F910895B9
:1010A000CF93DF93BC018230910510F462E070E0D1
:1010B000A0919202B0919302ED01E0E0F0E040E0F7
:1010C00050E021C0888199818617970769F48A8149
:1010D0009B81309719F09383828304C0909393028D
:1010E00080939202FE0134C06817790738F44115E5
:1010F000510519F08417950708F4AC01FE018A81A7
:101100009B819C01E9012097E9F641155105A9F160
:10111000CA01861B970B049708F4BA01E0E0F0E0DF
:101120002AC08D919C91119784179507F9F4641743
:10113000750781F412968D919C911397309719F051
:101140009383828304C09093930280939202FD0163
:1011500032964FC0CA01861B970BFD01E80FF91F9D
:101160006193719302978D939C9343C0FD0182819B
:1011700093819C01D9011097A1F6809190029091E2
:101180009102892B41F4809186029091870290937D
:1011900091028093900240918802509189024115FA
:1011A000510541F44DB75EB780918402909185025C
:1011B000481B590B2091900230919102241735075A
:1011C000B0F4CA01821B930B8617970780F0AB011E
:1011D0004E5F5F4F8417950750F0420F531F509397
:1011E000910240939002F9016193719302C0E0E093
:1011F000F0E0CF01DF91CF910895CF93DF93009777
:1012000009F450C0EC0122971B821A82A09192022D
:10121000B0919302109709F140E050E0AC17BD0780
:1012200008F1BB83AA83FE0121913191E20FF31FE4
:10123000AE17BF0779F48D919C911197280F391F34
:101240002E5F3F4F3983288312968D919C9113977F
:101250009B838A834115510571F4D0939302C09307
:10126000920220C012968D919C911397AD01009728
:1012700011F0DC01D3CFFA01D383C28321913191E4
:10128000E20FF31FCE17DF0769F488819981280FD9
:10129000391F2E5F3F4FFA01318320838A819B8162
:1012A00093838283DF91CF910895FC010590615073
:1012B00070400110D8F7809590958E0F9F1F08956C
:1012C000DC0101C06D9341505040E0F70895FC01EE
:1012D0006150704001900110D8F7809590958E0F65
:1012E0009F1F08950F931F93CF93DF938C01EB0102
:1012F0008B8181FF1BC082FF0DC02E813F818C81BD
:101300009D812817390764F4E881F9810193F983F5
:10131000E88306C0E885F985802F0995892B31F48B
:101320008E819F8101969F838E8302C00FEF1FEFF6
:10133000C801DF91CF911F910F910895FA01AA275B
:10134000283051F1203181F1E8946F936E7F6E5F08
:101350007F4F8F4F9F4FAF4FB1E03ED0B4E03CD0B6
:10136000670F781F891F9A1FA11D680F791F8A1F99
:10137000911DA11D6A0F711D811D911DA11D20D000
:1013800009F468943F912AE0269F11243019305DBA
:101390003193DEF6CF010895462F4770405D4193AB
:1013A000B3E00FD0C9F7F6CF462F4F70405D4A33F8
:1013B00018F0495D31FD4052419302D0A9F7EACFC0
:1013C000B4E0A6959795879577956795BA95C9F7EF
:1013D00000976105710508959B01AC010A2E0694E2
:1013E0005795479537952795BA95C9F7620F731F9B
:1013F000841F951FA01D0895A1E21A2EAA1BBB1BD6
:10140000FD010DC0AA1FBB1FEE1FFF1FA217B307D0
:10141000E407F50720F0A21BB30BE40BF50B661FE6
:10142000771F881F991F1A9469F7609570958095AA
:1014300090959B01AC01BD01CF0108952F923F9281
:101440004F925F926F927F928F929F92AF92BF92D4
:10145000CF92DF92EF92FF920F931F93CF93DF9380
:10146000CDB7DEB7CA1BDB0B0FB6F894DEBF0FBEDD
:10147000CDBF09942A88398848885F846E847D842A
:101480008C849B84AA84B984C884DF80EE80FD802C
:101490000C811B81AA81B981CE0FD11D0FB6F894A2
:0E14A000DEBF0FBECDBFED010895F894FFCF63
:1014AE00496E697469616C697A6174696F6E2063E3
:1014BE006F6D706C6574650043414E5F7465737437
:1014CE003A202564005374617274696E672E2E2E55
:1014DE00004572726F722121212052414D206E6F94
:1014EE002E2030782578200046696E697368656411
:1014FE002121210043414E5F746573742073746122
:10150E0072746564002000000000000000000000FE
:10151E000000000000000000526563656976656496
:10152E0020696E74657272757074303A200052655F
:10153E0063656976656420696E7465727275707420
:10154E00313A2000656E7370696C6C657220706F35
:10155E00656E6700656E7370696C6C65722065767A
:10156E0069670076657273757320706F656E6700BC
:10157E007665727375732065766967006C6566743F
:10158E0000726967687400757000646F776E00652D
:10159E006E7465720063656E746572006572726F4B
:1015AE00720056656C6B6F6D6D656E007374617451
:1015BE006520666F723A2025640A00737461746543
:1015CE002065747465723A2025640A0031205374C4
:1015DE0061727420656E7370696C6C657220706FC9
:1015EE00656E67003220537461727420656E73707D
:1015FE00696C6C657220657669670033205374617F
:10160E00727420666C6572737020706F656E670001
:10161E003420537461727420666C65727370206529
:0A162E0076696700200094020000B6
:00000001FF
