:100000000C9438000C9455000C9455000C94550039
:100010000C9455000C9455000C9455000C9455000C
:100020000C9455000C9455000C9455000C945500FC
:100030000C9455000C9455000C9455000C945500EC
:100040000C9455000C9455000C9455000C945500DC
:100050000C9455000C94CC030C9455000C94550052
:100060000C9455000C9455000C9455000C945500BC
:1000700011241FBECFEFD4E0DEBFCDBF12E0A0E061
:10008000B1E0EAE6F3E202C005900D92AE35B107A9
:10009000D9F712E0AEE5B2E001C01D92AB37B1076F
:1000A000E1F70E9457000C94B3110C940000DF9309
:1000B000CF93CDB7DEB7AA970FB6F894DEBF0FBEC9
:1000C000CDBF80E895E20E940E030E940F0482E7F4
:1000D0008AA78CE489A783EE88A781E78FA387EEA0
:1000E0008EA38CE48DA389A5282F30E08AA5882FC4
:1000F00090E0A901481B590BCA01AA2797FDA095BA
:10010000BA2FBC01CD010E94780A9B01AC0160E0CE
:1001100070E080E093EC0E943C09DC01CB018D8F04
:100120009E8FAF8FB8A38AA5882F90E09095819578
:100130009F4FAA2797FDA095BA2FBC01CD010E9421
:10014000780ADC01CB01BC01CD012D8D3E8D4F8D98
:1001500058A10E944208DC01CB018D8B9E8BAF8B96
:10016000B88F81E090E09CA38BA33DC08BA19CA1A4
:10017000AA2797FDA095BA2FBC01CD010E94780A4D
:10018000DC01CB01BC01CD012D8D3E8D4F8D58A1E1
:100190000E944208DC01CB01BC01CD012D893E89C2
:1001A0004F89588D0E941508DC01CB01BC01CD019F
:1001B0000E94D60ADC01CB019AA389A389A19AA146
:1001C0005FEF8038950724F480E89FEF9AA389A316
:1001D0008BA19CA129A1622F0E94C6028BA19CA188
:1001E00001969CA38BA38AA5282F30E08BA19CA10C
:1001F000281739070CF0BACF88A5282F30E08AA538
:10020000882F90E0A901481B590BCA01AA2797FD26
:10021000A095BA2FBC01CD010E94780A9B01AC01C8
:1002200060E070E08EEF92E40E943C09DC01CB01BB
:10023000898F9A8FAB8FBC8F8AA5882F90E090957D
:1002400081959F4FAA2797FDA095BA2FBC01CD019C
:100250000E94780ADC01CB01BC01CD01298D3A8DC9
:100260004B8D5C8D0E944208DC01CB01898B9A8BFF
:10027000AB8BBC8B8AA5882F90E09CA38BA33CC042
:100280008BA19CA1AA2797FDA095BA2FBC01CD01F7
:100290000E94780ADC01CB01BC01CD01298D3A8D89
:1002A0004B8D5C8D0E944208DC01CB01BC01CD016D
:1002B00029893A894B895C890E941508DC01CB01A8
:1002C000BC01CD010E94D60ADC01CB019AA389A30F
:1002D00089A19AA18038910524F08FE790E09AA334
:1002E00089A38BA19CA129A1622F0E94C6028BA188
:1002F0009CA101969CA38BA38BA19CA18F3F9105F0
:1003000009F00CF4BDCF8DA1282F30E08FA1882FEC
:1003100090E0A901481B590BCA01AA2797FDA09597
:10032000BA2FBC01CD010E94780A9B01AC0160E0AC
:1003300070E080E093EC0E943C09DC01CB018D87EA
:100340009E87AF87B88B8FA1882F90E0909581957D
:100350009F4FAA2797FDA095BA2FBC01CD010E94FF
:10036000780ADC01CB01BC01CD012D853E854F858E
:1003700058890E944208DC01CB018D839E83AF83A4
:10038000B8871CA21BA23FC08BA19CA1AA2797FDE6
:10039000A095BA2FBC01CD010E94780ADC01CB01E7
:1003A000BC01CD012D853E854F8558890E944208AC
:1003B000DC01CB01BC01CD012D813E814F815885EF
:1003C0000E941508DC01CB01BC01CD010E94D60AB8
:1003D000DC01CB019AA389A389A19AA15FEF8038A0
:1003E000950724F480E89FEF9AA389A38BA19CA191
:1003F00080509F4F29A1622F0E94C6028BA19CA111
:1004000001969CA38BA38FA1282F30E08BA19CA1E8
:10041000281739070CF0B8CF8EA1282F30E08FA114
:10042000882F90E0A901481B590BCA01AA2797FD04
:10043000A095BA2FBC01CD010E94780A9B01AC01A6
:1004400060E070E08EEF92E40E943C09DC01CB0199
:1004500089879A87AB87BC878FA1882F90E090957A
:1004600081959F4FAA2797FDA095BA2FBC01CD017A
:100470000E94780ADC01CB01BC01CD0129853A85B7
:100480004B855C850E944208DC01CB0189839A83FD
:10049000AB83BC838FA1882F90E09CA38BA33EC02D
:1004A0008BA19CA1AA2797FDA095BA2FBC01CD01D5
:1004B0000E94780ADC01CB01BC01CD0129853A8577
:1004C0004B855C850E944208DC01CB01BC01CD015B
:1004D00029813A814B815C810E941508DC01CB01A6
:1004E000BC01CD010E94D60ADC01CB019AA389A3ED
:1004F00089A19AA18038910524F08FE790E09AA312
:1005000089A38BA19CA180509F4F29A1622F0E949B
:10051000C6028BA19CA101969CA38BA38BA19CA13D
:100520008F3F910509F00CF4BBCF1CA21BA227C082
:100530008BA19CA10E94ED02282F332727FD309527
:1005400000D000D000D0EDB7FEB7319680E091E04A
:10055000918380838BA19CA19383828335832483A1
:100560000E946B0D8DB79EB706960FB6F8949EBF8E
:100570000FBE8DBF8BA19CA101969CA38BA38BA1C9
:100580009CA122E0803092079CF2FFCFDF93CF93B3
:1005900000D00F92CDB7DEB79A8389836B83ECE3EB
:1005A000F0E08081882F90E0827090700097B9F71A
:1005B000EEE3F0E089819A8191838083EDE3F0E0BE
:1005C0008B8180830FB6F894E29AE19A0FBE0F9068
:1005D0000F900F90CF91DF910895DF93CF9300D0CC
:1005E0000F92CDB7DEB79B838A83ECE3F0E0808186
:1005F000882F90E0827090700097B9F7EEE3F0E0FA
:100600008A819B8191838083E09A8DB389838981DC
:100610000F900F900F90CF91DF910895DF93CF93BC
:10062000CDB7DEB727970FB6F894DEBF0FBECDBFAC
:100630009F838E8378948E819F81CC01A0E0B0E06F
:100640008A839B83AC83BD838A819B81AC81BD817E
:10065000880F991FAA1FBB1F880F991FAA1FBB1FB6
:10066000880F991FAA1FBB1F880F991FAA1FBB1FA6
:100670009C01AD018AEF90E0ABE4B0E0BC01CD019C
:100680000E945A11DA01C9010197A109B1098A83AF
:100690009B83AC83BD8319821092700210925F021B
:1006A00010925E02E0E4F0E08A819B81AC81BD8122
:1006B000892F9A2FAB2FBB278083E9E2F0E08A8154
:1006C0008083EAE2F0E088E1808389818660898323
:1006D000898180628983898180688983E0E4F0E090
:1006E0008981808384E893E02BEA33E0B9010E949A
:1006F0001F0D80E090E027960FB6F894DEBF0FBE86
:10070000CDBFCF91DF910895DF93CF9300D00F92AB
:10071000CDB7DEB789837B836A8389818A3031F4E0
:100720002A813B818DE0B9010E948403EBE2F0E075
:100730008081882F90E0807290700097B9F3ECE28E
:10074000F0E08981808380E090E00F900F900F901F
:10075000CF91DF910895DF93CF9300D00F92CDB763
:10076000DEB79B838A83EBE2F0E080818823DCF7AD
:10077000ECE2F0E08081898389818D3011F48AE098
:100780008983ECE2F0E08081882F90E00F900F9059
:100790000F90CF91DF9108951F920F920FB60F9295
:1007A00011248F939F93AF93BF93EF93FF93DF93A6
:1007B000CF93CDB7DEB780915E028823E1F0ACE243
:1007C000B0E080917002882F90E0FC01E05AFD4F6C
:1007D00080818C93809170028F5F809370028091F2
:1007E0007002803110F01092700280915E02815090
:1007F00080935E0207C0AAE2B0E0EAE2F0E0808106
:100800008F7D8C93CF91DF91FF91EF91BF91AF914D
:100810009F918F910F900FBE0F901F901895DF93AF
:10082000CF93CDB7DEB7A5E5B0E0E5E5F0E0808198
:10083000806C8C93A6E5B0E0E6E5F0E08081846012
:100840008C93A0E5B0E0E0E5F0E0808180628C93DD
:10085000CF91DF910895DF93CF93CDB7DEB7659742
:100860000FB6F894DEBF0FBECDBF80E090E19D8B48
:100870008C8B8CE191E00E94800D1B8A1A8A80C0CB
:100880002A893B898C899D89FC01E20FF31F83E84B
:10089000808380E090E0A0E0B0E48B879C87AD8708
:1008A000BE876B857C858D859E8520E030E04AE79C
:1008B00053E40E944208DC01CB018F839887A9870B
:1008C000BA876F81788589859A8520E030E040E895
:1008D0005FE30E94480A88232CF481E090E09E8325
:1008E0008D833FC06F81788589859A8520E03FEFB1
:1008F0004FE757E40E94E80918164CF56B857C8594
:100900008D859E8520E030E040E251E40E9442085F
:10091000DC01CB01BC01CD010E946C06DC01CB01E6
:100920009E838D830FC089E190E09C838B838B81B4
:100930009C810197F1F79C838B838D819E81019728
:100940009E838D838D819E81009769F714C06F818E
:10095000788589859A850E946C06DC01CB019E838F
:100960008D838D819E819A83898389819A81019764
:10097000F1F79A8389838A899B8901969B8B8A8B5D
:100980008A899B8928E0803092070CF479CF1B8AF2
:100990001A8A30C02A893B898C899D89FC01E20F23
:1009A000F31F8081898B8989882F90E0988B8F87AE
:1009B0002A893B898C899D89FC01E20FF31F808184
:1009C000833899F000D000D0EDB7FEB7319688E2B9
:1009D00091E0918380838A899B89938382830E949B
:1009E0006B0D0F900F900F900F908A899B89019645
:1009F0009B8B8A8B8A899B8928E08030920754F2EE
:100A00008FE391E00E94800DFFCFDF93CF93CDB7AE
:100A1000DEB7E7E3F0E01082E8E3F0E08FEF8083F9
:100A2000CF91DF910895DF93CF93CDB7DEB7A19734
:100A30000FB6F894DEBF0FBECDBF8F8F80E098E178
:100A40009E8F8D8F8F8D883709F094C0ED8DFE8D30
:100A500084E0808380E090E0A0E0B0E4898F9A8F0A
:100A6000AB8FBC8F698D7A8D8B8D9C8D2AE93BE98C
:100A700049E954E40E944208DC01CB018D8B9E8B36
:100A8000AF8BB88F6D897E898F89988D20E030E09B
:100A900040E85FE30E94480A88232CF481E090E05C
:100AA0009C8B8B8B3FC06D897E898F89988D20E0D0
:100AB0003FEF4FE757E40E94E80918164CF5698D9F
:100AC0007A8D8B8D9C8D20E030E040E251E40E94D5
:100AD0004208DC01CB01BC01CD010E946C06DC01A7
:100AE000CB019C8B8B8B0FC08AE790E09A8B898B14
:100AF00089899A890197F1F79A8B898B8B899C89CF
:100B000001979C8B8B8B8B899C89009769F714C00C
:100B10006D897E898F89988D0E946C06DC01CB01DE
:100B20009C8B8B8B8B899C89988B8F878F859889E1
:100B30000197F1F7988B8F87ED8DFE8D8081282F9F
:100B400030E000D000D0EDB7FEB731968BE491E0F5
:100B500091838083338322830E946B0D0F900F90CB
:100B60000F900F90ED8DFE8D8081282F30E039A3FE
:100B700028A39CC08F8D893709F094C0ED8DFE8D20
:100B800086E0808380E090E0A0E0B0E48B879C87E3
:100B9000AD87BE876B857C858D859E852AE93BE97F
:100BA00049E954E40E944208DC01CB018F83988715
:100BB000A987BA876F81788589859A8520E030E09A
:100BC00040E85FE30E94480A88232CF481E090E02B
:100BD0009E838D833FC06F81788589859A8520E0CB
:100BE0003FEF4FE757E40E94E80918164CF56B8574
:100BF0007C858D859E8520E030E040E251E40E94B6
:100C00004208DC01CB01BC01CD010E946C06DC0175
:100C1000CB019E838D830FC08AE790E09C838B83FA
:100C20008B819C810197F1F79C838B838D819E81C1
:100C300001979E838D838D819E81009769F714C0F3
:100C40006F81788589859A850E946C06DC01CB01CD
:100C50009E838D838D819E819A83898389819A81E8
:100C60000197F1F79A838983ED8DFE8D8081282F7E
:100C700030E000D000D0EDB7FEB731968BE491E0C4
:100C800091838083338322830E946B0D0F900F909A
:100C90000F900F90ED8DFE8D8081282F30E039A3CD
:100CA00028A304C08FEF9FEF99A388A388A199A1DF
:100CB000A1960FB6F894DEBF0FBECDBFCF91DF91E6
:100CC0000895DF93CF93CDB7DEB7E6E3F0E0808100
:100CD0008670CF91DF910895EF92FF920F931F934B
:100CE0007B018C0120E030E040E05FE40E94180AC4
:100CF00088238CF0C801B70120E030E040E05FE4D9
:100D00000E94E4070E94D60A9B01AC0120503040AB
:100D10004040504806C0C801B7010E94D60A9B0156
:100D2000AC01B901CA011F910F91FF90EF90089596
:100D3000A0E0B0E0EEE9F6E00C947C11DC012B01C0
:100D4000FA019C91923008F439C1EB01888182301C
:100D500008F433C1943069F4843009F02FC111963E
:100D60009C9111978981981709F428C1AFE4B1E0EB
:100D700025C1843009F421C18230A9F4923009F0F0
:100D80001DC19A01AD0188E0EA010990AE01E901B7
:100D900009929E018150C1F7E201898111969C91CF
:100DA0008923818308C1923009F407C112962D90DE
:100DB0003C901397EB018A819B811496AD90BD9076
:100DC000CD90DC901797EC80FD800E811F81910102
:100DD000281B390BB90137FF04C066277727621B30
:100DE000730B603271050CF061C0121613066CF5BE
:100DF00037014801062E04C096948794779467942F
:100E00000A94D2F721E030E040E050E004C0220F25
:100E1000331F441F551F6A95D2F721503040404080
:100E200050402E213F2140235123211531054105FA
:100E3000510521F021E030E040E050E079018A01E5
:100E4000E628F728082919293CC0232BD1F1260EC2
:100E5000371E35014601062E04C096948794779478
:100E600067940A94D2F721E030E040E050E004C0FB
:100E7000220F331F441F551F6A95D2F7215030406F
:100E8000404050402A213B214C215D212115310554
:100E90004105510521F021E030E040E050E05901EA
:100EA0006A01A628B728C828D9280BC0821593053F
:100EB0002CF01C01AA24BB24650103C0EE24FF24EE
:100EC000870111969C91D20111968C91981709F483
:100ED00045C0992339F0A80197012A193B094C090B
:100EE0005D0906C0A60195012E193F09400B510B63
:100EF00057FD08C0118233822282248335834683C2
:100F000057831DC081E081833382228288279927FD
:100F1000DC01821B930BA40BB50B84839583A68302
:100F2000B7830DC0220F331F441F551F2483358301
:100F3000468357838281938101979383828324819F
:100F4000358146815781DA01C9010197A109B109AB
:100F50008F5F9F4FAF4FBF4328F30BC09183338206
:100F60002282EA0CFB1C0C1D1D1DE482F582068307
:100F7000178383E08083248135814681578157FF21
:100F80001AC0C901AA2797FDA095BA2F8170907049
:100F9000A070B0705695479537952795822B932B67
:100FA000A42BB52B84839583A683B78382819381F9
:100FB000019693838283DF0101C0D201CD01CDB7B9
:100FC000DEB7E2E10C949811A0E2B0E0EAEEF7E0BF
:100FD0000C94881169837A838B839C832D833E8351
:100FE0004F835887E9E0EE2EF12CEC0EFD1ECE016A
:100FF0000196B7010E944E0C8E010F5E1F4FCE016D
:101000000596B8010E944E0C8A8991E089278A8B47
:10101000C701B801AE01475E5F4F0E9498060E946B
:10102000790BA096E6E00C94A411A0E2B0E0EBE10D
:10103000F8E00C94881169837A838B839C832D83D9
:101040003E834F835887F9E0EF2EF12CEC0EFD1E06
:10105000CE010196B7010E944E0C8E010F5E1F4F0C
:10106000CE010596B8010E944E0CC701B801AE0131
:10107000475E5F4F0E9498060E94790BA096E6E0BB
:101080000C94A411A0E2B0E0E8E4F8E00C947C1128
:1010900069837A838B839C832D833E834F83588718
:1010A000CE010196BE01675F7F4F0E944E0CCE01BC
:1010B0000596BE016F5E7F4F0E944E0C998592305F
:1010C00088F089898230C8F0943019F4823051F464
:1010D00004C0843029F4923081F48FE491E0C6C0DA
:1010E000923049F420E09A858A89981321E02A8772
:1010F000CE010996BBC0823049F420E09A858A89E6
:10110000981321E02A8BCE014196B0C02D843E84F5
:101110004F8458886D887E888F88988CEE24FF24B1
:101120008701AA24BB24650140E050E060E070E044
:10113000E0E0F0E0C10181709070892BE9F0E60CED
:10114000F71C081D191D9A01AB012A0D3B1D4C1DF2
:101150005D1D80E090E0A0E0B0E0E614F704080533
:10116000190520F481E090E0A0E0B0E0BA01A90107
:10117000480F591F6A1F7B1FAA0CBB1CCC1CDD1C0F
:1011800097FE08C081E090E0A0E0B0E0A82AB92A6C
:10119000CA2ADB2A3196E032F10549F0660C771C49
:1011A000881C991C5694479437942794C3CFFA858A
:1011B000EA892B893C898B859C85280F391F2E5FF6
:1011C0003F4F17C0CA0181709070892B61F016954E
:1011D0000795F794E79480E090E0A0E0B0E8E82A73
:1011E000F92A0A2B1B2B76956795579547952F5F04
:1011F0003F4F77FDE7CF0CC0440F551F661F771F89
:1012000017FD4160EE0CFF1C001F111F21503040E4
:10121000403090E0590790E0690790E4790760F367
:101220002B8F3C8FDB01CA018F779070A070B0705C
:1012300080349105A105B10561F447FD0AC0E114B0
:10124000F1040105110529F0405C5F4F6F4F7F4F9E
:1012500040781A8EFE1711F081E08A8F4D8F5E8FD5
:101260006F8F78A383E0898FCE0149960E94790B16
:10127000A096E2E10C949811A8E1B0E0E2E4F9E074
:101280000C94841169837A838B839C832D833E83A2
:101290004F835887B9E0EB2EF12CEC0EFD1ECE01EA
:1012A0000196B7010E944E0C8E010F5E1F4FCE01BA
:1012B0000596B8010E944E0C2985223008F47EC0A4
:1012C0003989323010F4B8017CC08A859A8989271F
:1012D0008A87243011F0223031F4231709F06EC0D0
:1012E0006FE471E06EC0343039F41D861E861F86AF
:1012F000188A1C861B8604C0323021F484E089875A
:10130000B7015FC02B853C858B899C89281B390BD5
:101310003C872B87ED84FE840F851889AD88BE88B5
:10132000CF88D88CEA14FB040C051D0540F4EE0CA4
:10133000FF1C001F111F215030403C872B8720E0ED
:1013400030E040E050E080E090E0A0E0B0E460E019
:1013500070E0EA14FB040C051D0540F0282B392B26
:101360004A2B5B2BEA18FB080C091D09B695A795BB
:1013700097958795EE0CFF1C001F111F6F5F7F4F25
:101380006F31710531F7DA01C9018F779070A07064
:10139000B07080349105A105B10561F427FD0AC044
:1013A000E114F1040105110529F0205C3F4F4F4F76
:1013B0005F4F20782D873E874F87588BBE01675F30
:1013C0007F4FCB010E94790B6896EAE00C94A01144
:1013D000A8E1B0E0EEEEF9E00C94881169837A831D
:1013E0008B839C832D833E834F83588789E0E82E2F
:1013F000F12CEC0EFD1ECE010196B7010E944E0CA1
:101400008E010F5E1F4FCE010596B8010E944E0C53
:101410008985823040F08989823028F0C701B8017F
:101420000E94C60C01C08FEF6896E6E00C94A411F0
:10143000A8E1B0E0EEE1FAE00C94881169837A83C8
:101440008B839C832D833E834F83588789E0E82ECE
:10145000F12CEC0EFD1ECE010196B7010E944E0C40
:101460008E010F5E1F4FCE010596B8010E944E0CF3
:101470008985823040F08989823028F0C701B8011F
:101480000E94C60C01C08FEF6896E6E00C94A41190
:10149000A8E1B0E0EEE4FAE00C94881169837A8365
:1014A0008B839C832D833E834F83588789E0E82E6E
:1014B000F12CEC0EFD1ECE010196B7010E944E0CE0
:1014C0008E010F5E1F4FCE010596B8010E944E0C93
:1014D0008985823040F08989823028F0C701B801BF
:1014E0000E94C60C01C081E06896E6E00C94A4114D
:1014F000A8E0B0E0EEE7FAE00C9485119B01AC01A6
:1015000083E08983DA01C9018827B7FD839599278C
:10151000AA27BB27B82E211531054105510519F41D
:1015200082E089833AC08823A9F0203080E0380720
:1015300080E0480780E8580729F460E070E080E028
:101540009FEC30C0EE24FF248701E21AF30A040B5B
:10155000150B02C079018A018EE1C82ED12CDC82E4
:10156000CB82ED82FE820F831887C801B7010E94EB
:101570002A0B01971816190684F4082E04C0EE0CE5
:10158000FF1C001F111F0A94D2F7ED82FE820F8309
:101590001887C81AD90ADC82CB82BA82CE0101969A
:1015A0000E94790B2896E9E00C94A111ACE0B0E020
:1015B000ECEDFAE00C948C1169837A838B839C8325
:1015C000CE010196BE016B5F7F4F0E944E0C8D8154
:1015D000823061F1823050F1843021F48E81882391
:1015E00051F12EC02F81388537FD20C06E812F31FB
:1015F00031051CF06623F9F023C08EE190E0821BD8
:10160000930B29853A854B855C8504C05695479593
:10161000379527958A95D2F76623B1F05095409576
:10162000309521953F4F4F4F5F4F0EC020E030E087
:1016300040E050E009C02FEF3FEF4FEF5FE704C0FD
:1016400020E030E040E050E8B901CA012C96E2E029
:101650000C94A811EF92FF920F931F937B018C01C2
:1016600080E0E81680E0F80681E0080780E01807CF
:1016700088F48FEFE816F1040105110531F028F028
:1016800088E090E0A0E0B0E017C080E090E0A0E04B
:10169000B0E012C080E0E81680E0F80680E00807BD
:1016A00081E0180728F088E190E0A0E0B0E004C0F5
:1016B00080E190E0A0E0B0E020E230E040E050E0E7
:1016C000281B390B4A0B5B0B04C016950795F79442
:1016D000E7948A95D2F7F701E95AFE4F8081281BDB
:1016E000310941095109C9011F910F91FF90EF90F4
:1016F0000895DF92EF92FF920F931F93FC01E48015
:10170000F58006811781D1808081823048F480E0A5
:1017100090E0A0E1B0E0E82AF92A0A2B1B2BA5C033
:10172000843009F49FC0823021F4EE24FF24870125
:1017300005C0E114F1040105110519F4E0E0F0E041
:1017400096C0628173819FEF623879070CF05BC0AD
:1017500022E83FEF261B370B2A3131052CF020E021
:1017600030E040E050E02AC0B801A701022E04C0DA
:1017700076956795579547950A94D2F781E090E062
:10178000A0E0B0E004C0880F991FAA1FBB1F2A95D4
:10179000D2F70197A109B1098E219F21A023B1237E
:1017A0000097A105B10521F081E090E0A0E0B0E054
:1017B0009A01AB01282B392B4A2B5B2BDA01C9018B
:1017C0008F779070A070B07080349105A105B1053D
:1017D00039F427FF09C0205C3F4F4F4F5F4F04C0D3
:1017E000215C3F4F4F4F5F4FE0E0F0E02030A0E042
:1017F0003A07A0E04A07A0E45A0710F0E1E0F0E061
:1018000079018A0127C06038710564F5FB01E15850
:10181000FF4FD801C7018F779070A070B0708034EF
:101820009105A105B10539F4E7FE0DC080E490E013
:10183000A0E0B0E004C08FE390E0A0E0B0E0E80EEC
:10184000F91E0A1F1B1F17FF05C016950795F79471
:10185000E794319687E016950795F794E7948A9573
:10186000D1F705C0EE24FF248701EFEFF0E06E2FE3
:10187000679566276795902F9F77D794DD24D79437
:101880008E2F8695492F462B582F5D29B701CA0107
:101890001F910F91FF90EF90DF900895FC01DB0105
:1018A000408151812281622F6F7770E0221F2227B1
:1018B000221F9381892F880F822B282F30E0991FB8
:1018C0009927991F11969C93119721153105A9F518
:1018D000411551056105710511F482E037C082E8B8
:1018E0009FEF13969C938E9312979A01AB0167E03A
:1018F000220F331F441F551F6A95D1F783E08C9345
:101900000DC0220F331F441F551F12968D919C91BD
:101910001397019713969C938E931297203080E033
:10192000380780E0480780E4580758F314962D9351
:101930003D934D935C93179708952F3F310579F4AC
:10194000411551056105710519F484E08C930895E2
:1019500064FF03C081E08C9312C01C9210C02F570B
:10196000304013963C932E93129783E08C9387E03C
:10197000440F551F661F771F8A95D1F77064149620
:101980004D935D936D937C93179708951F93DC019E
:10199000FB019C91923008F447C08081823008F4AA
:1019A00043C0943051F411961C91843099F5818193
:1019B000682F70E0611B71093FC0843021F09230C4
:1019C00031F48230B9F18181882389F12DC01196DB
:1019D0001C9111978230F1F081811817D9F4129679
:1019E0002D913C911397828193818217930794F0F4
:1019F00028173907BCF014968D919D910D90BC91DC
:101A0000A02D2481358146815781281739074A073F
:101A10005B0718F4112341F00AC082179307A4074B
:101A2000B50740F4112319F061E070E005C06FEFD5
:101A30007FEF02C060E070E0CB011F9108950F932B
:101A40001F93CF93DF938C01EB01009731F4611565
:101A5000710519F420E030E038C081E090E06EE0DC
:101A600070E00E94920FFC019C01009771F180E8E8
:101A70008383209771F0D387C28781E88383809125
:101A8000710290917202892B21F4F0937202E0931B
:101A9000710201151105C9F01187008783818260E9
:101AA00083838091730290917402892B71F4F09377
:101AB0007402E09373028091750290917602892BF3
:101AC00021F4F0937602E0937502C901DF91CF9182
:101AD0001F910F910895A0E0B0E0E1E7FDE00C94C4
:101AE0008C11FE01359661917191809173029091F4
:101AF0007402AF010E94B50D2096E2E00C94A8118B
:101B00000F931F93CF93DF938C01E0917302F091B9
:101B10007402838181FF21C0C0E0D0E00DC0E0915C
:101B20007302F091740220853185BF01F901099596
:101B3000892B11F0CFEFDFEFF80181918F0188231E
:101B400071F7E0917302F0917402208531858AE08B
:101B5000BF01F9010995892B11F0CFEFDFEFCE011D
:101B6000DF91CF911F910F910895ABE0B0E0EBEBC7
:101B7000FDE00C947C113C012B015A01FC01178201
:101B80001682838181FD03C06FEF7FEFC6C19AE0AB
:101B9000892E1E010894211C311CF3012381F201BE
:101BA00023FD859123FF81912F01882309F4B2C180
:101BB000853239F423FD859123FF81912F018532F0
:101BC00029F490E0B3010E94D010E7CF982FFF24B2
:101BD000EE249924FFE1FF15D0F09B3269F09C328E
:101BE00028F4903259F0933291F40EC09D3249F0AE
:101BF000903369F441E024C052E0F52A84E0F82AE9
:101C000028C098E0F92A25C0E0E1FE2A22C0F7FCAE
:101C100029C0892F80538A3070F4F6FE05C0989C45
:101C2000902C1124980E15C0E89CE02C1124E80E8D
:101C3000F0E2FF2A0EC09E3229F4F6FC6BC140E4AC
:101C4000F42A07C09C3619F450E8F52A02C09836E9
:101C500049F4F20123FD959123FF91912F019923DE
:101C600009F0B8CF892F8554833018F08052833023
:101C700038F444E050E0A40EB51E5FE359830FC072
:101C8000933631F0933779F0933509F056C020C080
:101C9000F5018081898342E050E0A40EB51E610108
:101CA00001E010E012C0F501C080D180F6FC03C055
:101CB0006FEF7FEF02C0692D70E042E050E0A40EAC
:101CC000B51EC6010E94C5108C015FE7F52214C045
:101CD000F501C080D180F6FC03C06FEF7FEF02C03A
:101CE000692D70E042E050E0A40EB51EC6010E94CE
:101CF000B3108C0150E8F52AF3FE07C01AC080E249
:101D000090E0B3010E94D010EA948E2D90E0081765
:101D10001907A8F30EC0F601F7FC8591F7FE819133
:101D20006F0190E0B3010E94D010E110EA940150DD
:101D300010400115110579F7EAC0943611F0993673
:101D400069F5F7FE08C0F501208131814281538198
:101D500084E090E00AC0F501808191819C014427D4
:101D600037FD4095542F82E090E0A80EB91E9FE603
:101D7000F92257FF09C050954095309521953F4F66
:101D80004F4F5F4FE0E8FE2ACA01B901A1012AE0E6
:101D900030E00E94FC10D82ED21840C0953729F4AC
:101DA0001F2D1F7E2AE030E01DC01F2D197F9F369A
:101DB00061F0903720F4983509F0ACC00FC090372F
:101DC00039F0983709F0A6C004C028E030E00AC016
:101DD000106114FD146020E130E004C014FD1660B1
:101DE00020E132E017FF08C0F50160817181828136
:101DF000938144E050E008C0F50180819181BC01ED
:101E000080E090E042E050E0A40EB51EA1010E94E7
:101E1000FC10D82ED2188FE7F82EF122F6FE0BC058
:101E20005EEFF522D91438F4F4FE07C0F2FC05C0C9
:101E30008FEEF82202C01D2D01C0192DF4FE0DC039
:101E4000FE01ED0DF11D8081803319F499EEF92228
:101E500008C01F5FF2FE05C003C08F2D867809F011
:101E60001F5F0F2DF3FC14C0F0FE0FC01E1510F005
:101E70009D2C0BC09D2C9E0C911A1E2D06C080E23D
:101E800090E0B3010E94D0101F5F1E15C0F304C084
:101E90001E1510F4E11A01C0EE2404FF0FC080E308
:101EA00090E0B3010E94D01002FF1DC001FD03C0ED
:101EB00088E790E00EC088E590E00BC0802F867820
:101EC00091F001FF02C08BE201C080E2F7FC8DE2DD
:101ED00090E0B3010E94D01006C080E390E0B3010F
:101EE0000E94D0109A94D914C0F3DA94F101ED0D48
:101EF000F11D808190E0B3010E94D010DD20A9F790
:101F000006C080E290E0B3010E94D010EA94EE2077
:101F1000C1F743CEF30166817781CB012B96E2E1D5
:101F20000C9498110F931F93CF93DF93689F8001B8
:101F3000699F100D789F100D1124C8010E94AE0FEB
:101F4000EC01009729F060E070E0A8010E94BE104B
:101F5000CE01DF91CF911F910F910895CF93DF9321
:101F6000BC018230910510F462E070E0A09179022A
:101F7000B0917A02ED01E0E0F0E040E050E021C0F5
:101F8000888199818617970769F48A819B813097A8
:101F900019F09383828304C090937A02809379022C
:101FA000FE0134C06817790738F44115510519F05E
:101FB0008417950708F4AC01FE018A819B819C017E
:101FC000E9012097E9F641155105A9F1CA01861BDF
:101FD000970B049708F4BA01E0E0F0E02AC08D9175
:101FE0009C91119784179507F9F46417750781F48C
:101FF00012968D919C911397309719F09383828359
:1020000004C090937A0280937902FD0132964FC00A
:10201000CA01861B970BFD01E80FF91F61937193AD
:1020200002978D939C9343C0FD01828193819C0113
:10203000D9011097A1F68091770290917802892BAF
:1020400041F48091590290915A02909378028093C2
:10205000770240915B0250915C024115510541F4B9
:102060004DB75EB78091570290915802481B590BAB
:10207000209177023091780224173507B0F4CA0115
:10208000821B930B8617970780F0AB014E5F5F4F63
:102090008417950750F0420F531F509378024093D6
:1020A0007702F9016193719302C0E0E0F0E0CF01A3
:1020B000DF91CF910895CF93DF93009709F450C03B
:1020C000EC0122971B821A82A0917902B0917A02C8
:1020D000109709F140E050E0AC17BD0708F1BB8351
:1020E000AA83FE0121913191E20FF31FAE17BF07C2
:1020F00079F48D919C911197280F391F2E5F3F4FD6
:102100003983288312968D919C9113979B838A83A0
:102110004115510571F4D0937A02C093790220C021
:1021200012968D919C911397AD01009711F0DC01EF
:10213000D3CFFA01D383C28321913191E20FF31FF0
:10214000CE17DF0769F488819981280F391F2E5F28
:102150003F4FFA01318320838A819B81938382835D
:10216000DF91CF910895FC010590615070400110FE
:10217000D8F7809590958E0F9F1F0895DC0101C0C0
:102180006D9341505040E0F70895FC01615070405C
:1021900001900110D8F7809590958E0F9F1F08959C
:1021A0000F931F93CF93DF938C01EB018B8181FF02
:1021B0001BC082FF0DC02E813F818C819D8128171D
:1021C000390764F4E881F9810193F983E88306C053
:1021D000E885F985802F0995892B31F48E819F81BF
:1021E00001969F838E8302C00FEF1FEFC801DF911E
:1021F000CF911F910F910895FA01AA27283051F12C
:10220000203181F1E8946F936E7F6E5F7F4F8F4F27
:102210009F4FAF4FB1E03ED0B4E03CD0670F781F86
:10222000891F9A1FA11D680F791F8A1F911DA11D6B
:102230006A0F711D811D911DA11D20D009F46894A4
:102240003F912AE0269F11243019305D3193DEF64C
:10225000CF010895462F4770405D4193B3E00FD002
:10226000C9F7F6CF462F4F70405D4A3318F0495DED
:1022700031FD4052419302D0A9F7EACFB4E0A695D0
:102280009795879577956795BA95C9F700976105F2
:10229000710508959B01AC010A2E06945795479548
:1022A00037952795BA95C9F7620F731F841F951F3D
:1022B000A01D0895A1E21A2EAA1BBB1BFD010DC093
:1022C000AA1FBB1FEE1FFF1FA217B307E407F507E6
:1022D00020F0A21BB30BE40BF50B661F771F881FC2
:1022E000991F1A9469F760957095809590959B0158
:1022F000AC01BD01CF0108952F923F924F925F92A2
:102300006F927F928F929F92AF92BF92CF92DF9205
:10231000EF92FF920F931F93CF93DF93CDB7DEB76A
:10232000CA1BDB0B0FB6F894DEBF0FBECDBF0994FE
:102330002A88398848885F846E847D848C849B8455
:10234000AA84B984C884DF80EE80FD800C811B8163
:10235000AA81B981CE0FD11D0FB6F894DEBF0FBE92
:0A236000CDBFED010895F894FFCF02
:10236A0041444320696E6E3A2025642020746162DC
:10237A00656C6C2075743A2025640A005374617286
:10238A0074696E672E2E2E004572726F722121219A
:10239A002052414D206E6F2E20307825782000463D
:1023AA00696E69736865642121210025630A00004A
:1023BA0000000000000000000102020303030304FE
:1023CA0004040404040404050505050505050505BA
:1023DA00050505050505050606060606060606069A
:1023EA000606060606060606060606060606060683
:1023FA00060606060606060707070707070707076A
:10240A000707070707070707070707070707070752
:10241A000707070707070707070707070707070742
:10242A000707070707070707070707070707070732
:10243A000707070707070708080808080808080819
:10244A000808080808080808080808080808080802
:10245A0008080808080808080808080808080808F2
:10246A0008080808080808080808080808080808E2
:10247A0008080808080808080808080808080808D2
:10248A0008080808080808080808080808080808C2
:10249A0008080808080808080808080808080808B2
:1024AA0008080808080808080808080808080808A2
:0E24BA000808080808080820007B020000003F
:00000001FF
