:100000000C9446000C9465000C9465000C946500FB
:100010000C9465000C9457030C9465000C946500D7
:100020000C9465000C9465000C9465000C946500BC
:100030000C9465000C9465000C9465000C946500AC
:100040000C9465000C9465000C9465000C9465009C
:100050000C9465000C9487030C9465000C94650067
:100060000C9465000C9465000C9465000C9465007C
:100070000C9465000C9465000C9465000C9465006C
:100080000C9465000C9465000C94650011241FBE4F
:10009000CFEFD0E1DEBFCDBF12E0A0E0B1E0E6ECF3
:1000A000FFE100E00BBF02C007900D92A032B10744
:1000B000D9F712E0A0E2B2E001C01D92A433B1076B
:1000C000E1F70E9446030C94E10F0C940000DF93CB
:1000D000CF9300D0CDB7DEB70E948A018FEF89831E
:1000E00080EE8A83898160E20E9425028A8161E232
:1000F0000E94250283E0898380EE8A83898160E003
:100100000E9425028A8161E00E9425028FE060EE54
:1001100040E00E94D10280E660E640E20E94D10207
:100120008BE261E04FEF0E94D1020E946A010F90C2
:100130000F90CF91DF910895DF93CF93CDB7DEB7C6
:1001400027970FB6F894DEBF0FBECDBF1C821B826F
:1001500088E08D8380E091E09F838E8380E090E053
:1001600027960FB6F894DEBF0FBECDBFCF91DF91BB
:100170000895DF93CF93CDB7DEB72E970FB6F894DF
:10018000DEBF0FBECDBF9A8789877C876B871C82B5
:100190001B8282E091E09A8389831E821D8215C0B2
:1001A00029813A818D819E81D901A80FB91F2985A6
:1001B0003A858D819E81F901E80FF91F80818C932A
:1001C0008D819E8101969E838D838D819E81883055
:1001D000910530F3F8948B859C8595958795959539
:1001E000879595958795982F81E36FEF492F0E940A
:1001F000D1028B85982F9295990F907E82E360EEC5
:10020000492F0E94D10288E065E30E94250289817E
:100210009A8160E00E94420280E00E9483021E8276
:100220001D820DC00E94A702882F90E084709070FC
:10023000009759F08D819E8101969E838D838D81DB
:100240009E812FEF8F3F920769F778948D819E8171
:100250002FEF8F3F920729F48FEF9FEF9E878D87B7
:1002600002C01E861D868D859E852E960FB6F8943B
:10027000DEBF0FBECDBFCF91DF910895DF93CF9347
:1002800000D000D0CDB7DEB79A8389837C836B839F
:100290000E94A702282F30E08B819C81880F991F34
:1002A000019682239323009799F32B8189819A8168
:1002B000622F0E94DA01E981FA818FE190E0918357
:1002C000808380E090E00F900F900F900F90CF917F
:1002D000DF910895DF93CF93CDB7DEB7A2E2B0E010
:1002E000E2E2F0E080818F7E8C93A3E2B0E0E3E273
:1002F000F0E0808180618C93EAE5F0E01082A9E56E
:10030000B0E0E9E5F0E0808180618C937894CF9152
:10031000DF910895DF93CF93CDB7DEB783E70E94D7
:10032000270380EC0E9402030E943803CF91DF91E3
:1003300008950F931F93DF93CF93CDB7DEB7279721
:100340000FB6F894DEBF0FBECDBF9C838B836D8349
:100350005F834E8383E70E94270383E00E940203AA
:100360008D810E9402031A82198210C029813A816C
:100370008B819C818C01020F131F0E941503F801D1
:10038000808389819A8101969A83898329813A8120
:100390008E819F81281739074CF30E9438032796D6
:1003A0000FB6F894DEBF0FBECDBFCF91DF911F9186
:1003B0000F9108950F931F93DF93CF9300D000D038
:1003C0000F92CDB7DEB79C838B836D838D81823096
:1003D00090F58D81882319F481E08D8305C08D818E
:1003E000813011F483E08D8383E70E9427038D81A0
:1003F000882F90E0880F991F80690E9402031A825B
:10040000198212C0EB81FC812381348189819A8118
:100410008901080F191F0E941503F8018083898143
:100420009A8101969A83898389819A81883091057E
:100430004CF30E9438030F900F900F900F900F9085
:10044000CF91DF911F910F910895DF93CF9300D04B
:1004500000D0CDB7DEB78B836C8383E70E94270380
:1004600082E00E9402038C810E9402038B810E9421
:1004700002030E9438030F900F900F900F90CF91BE
:10048000DF910895DF93CF9300D000D00F92CDB7C6
:10049000DEB79C838B836D838D81833060F58D8186
:1004A000882F90E00196880F991F81508D8383E7F4
:1004B0000E9427038D8180640E9402031A821982A0
:1004C0000FC029813A818B819C81FC01E20FF31FCF
:1004D00080810E94020389819A8101969A8389838F
:1004E00089819A818830910564F30E9438038AE0FB
:1004F00090E00E94020D0F900F900F900F900F90C0
:10050000CF91DF910895DF93CF930F92CDB7DEB7F0
:1005100089838981882319F481E089830BC08981CB
:10052000813019F482E0898305C08981823059F4D1
:1005300084E0898383E70E942703898180680E9481
:1005400002030E9438030F90CF91DF910895DF934B
:10055000CF930F92CDB7DEB783E70E94270380EADF
:100560000E9402030E94150389830E943803898137
:100570000F90CF91DF910895DF93CF930F92CDB776
:10058000DEB783E70E94270380EB0E9402030E94EC
:10059000150389830E94380389810F90CF91DF91E1
:1005A0000895DF93CF9300D00F92CDB7DEB7898344
:1005B0006A834B8383E70E94270385E00E9402033E
:1005C00089810E9402038A810E9402038B810E941A
:1005D00002030E9438030F900F900F90CF91DF918C
:1005E0000895DF93CF93CDB7DEB7E7E3F0E087EF71
:1005F0008083EDE2F0E081E580830E943803CF91B3
:10060000DF910895DF93CF930F92CDB7DEB7898343
:10061000EFE2F0E089818083EEE2F0E080818823E0
:10062000DCF70F90CF91DF910895DF93CF93CDB793
:10063000DEB780E40E940203EEE2F0E080818823CE
:10064000DCF7EFE2F0E08081CF91DF910895DF9356
:10065000CF930F92CDB7DEB78983A8E3B0E0E8E38C
:10066000F0E080818E7F8C930F90CF91DF91089581
:10067000DF93CF93CDB7DEB7A8E3B0E0E8E3F0E0D7
:10068000808181608C93CF91DF910895DF93CF9328
:10069000CDB7DEB70E9438030E94F1020E946700C6
:1006A0000E94B7030E94F9040E94A705FFCF1F9282
:1006B0000F920FB60F9200905B000F9211242F93B0
:1006C0003F934F935F936F937F938F939F93AF93DA
:1006D000BF93EF93FF93DF93CF93CDB7DEB70E9425
:1006E0008A04CF91DF91FF91EF91BF91AF919F91DC
:1006F0008F917F916F915F914F913F912F910F90CB
:1007000000925B000F900FBE0F901F9018951F92E4
:100710000F920FB60F9200905B000F9211242F934F
:100720003F934F935F936F937F938F939F93AF9379
:10073000BF93EF93FF93DF93CF93CDB7DEB70E94C4
:100740003205CF91DF91FF91EF91BF91AF919F91D2
:100750008F917F916F915F914F913F912F910F906A
:1007600000925B000F900FBE0F901F901895DF93C3
:10077000CF93CDB7DEB7EFE4F0E082E28083EEE422
:10078000F0E08AE18083E8E4F0E083E196E09183A1
:100790008083E6E4F0E08CED90E591838083CF9157
:1007A000DF910895EF92FF920F931F93DF93CF9302
:1007B00000D000D00F92CDB7DEB78D838D81992701
:1007C00087FD9095A92FB92FBC01CD010E945B0A2E
:1007D000DC01CB01BC01CD0120E030E84DE154E467
:1007E0000E942508DC01CB01BC01CD0120E030E0F6
:1007F00040E053E40E941F09DC01CB0189839A8306
:10080000AB83BC8369817A818B819C8120E030E657
:1008100042EC54E40E94F807DC01CB0189839A83FF
:10082000AB83BC8369817A818B819C8120E030EC31
:1008300049E654E40E942B0A88234CF480E090ECB3
:10084000A9E6B4E489839A83AB83BC8314C069812D
:100850007A818B819C8120E030E448E055E40E945D
:10086000CB09181644F480E090E4A8E0B5E489834D
:100870009A83AB83BC838091200290912102A09146
:100880002202B0912302BC01CD012AE939E949E1F4
:100890005FE30E942508DC01CB017C018D016981A9
:1008A0007A818B819C812CEC3CEC4CEC5EE30E94C9
:1008B0002508DC01CB019C01AD01C801B7010E94F4
:1008C000F807DC01CB018093200290932102A093D2
:1008D0002202B093230208E410E08091200290915C
:1008E0002102A0912202B0912302BC01CD010E94FD
:1008F000B90ADC01CB01F801918380830F900F903E
:100900000F900F900F90CF91DF911F910F91FF905B
:10091000EF9008950F931F93DF93CF93CDB7DEB77A
:1009200027970FB6F894DEBF0FBECDBF8AE091E0E7
:100930009D838C83CE01019660E070E00E943E01B1
:10094000EC81FD8180818F3009F048C08C819D81D0
:10095000FC0131968081282F30E03F832E838E81E9
:100960009F8182369105C1F12E813F812837310563
:1009700031F08E819F818136910549F02FC08C81A5
:100980009D81FC01329680810E94D20327C00C8198
:100990001D810E941C059C0100D000D000D0EDB745
:1009A000FEB731961183008383E191E093838283C4
:1009B000358324830E94090D2DB73EB72A5F3F4F30
:1009C0000FB6F8943EBF0FBE2DBF8C819D816FE1A5
:1009D00070E00E94B90002C00E94BC0527960FB6C5
:1009E000F894DEBF0FBECDBFCF91DF911F910F9165
:1009F0000895DF93CF93CDB7DEB7E7E2F0E080EE66
:100A00008083E6E2F0E08FEE8083CF91DF9108955E
:100A1000DF93CF930F92CDB7DEB7809124029091F0
:100A20002502009711F0198202C081E08983898133
:100A30000F90CF91DF910895DF93CF93CDB7DEB7BD
:100A40008091260290912702CF91DF910895DF9344
:100A5000CF93CDB7DEB71092270210922602CF9126
:100A6000DF910895DF93CF93CDB7DEB7E5E2F0E0F5
:100A70008081282F30E080912A0290912B02820FF2
:100A8000931F90932B0280932A0280912C029091C5
:100A90002D02019690932D0280932C0220912C021E
:100AA00030912D0280911601909117012817390776
:100AB0000CF44AC080912402909125028130910566
:100AC000C1F42091160130911701C901880F991FB7
:100AD000820F931F880F991F9C0180912A02909189
:100AE0002B02281739072CF41092250210922402A9
:100AF00023C080912402909125020097E9F480910F
:100B00001601909117019C01220F331F80912A0238
:100B100090912B02821793077CF481E090E09093F0
:100B2000250280932402809126029091270201964B
:100B3000909327028093260210922B0210922A0291
:100B400010922D0210922C02CF91DF910895DF9325
:100B5000CF93CDB7DEB7A2E6B0E0E2E6F0E0808169
:100B600082608C93A1E6B0E0E1E6F0E080818260F3
:100B70008C93CF91DF910895DF93CF93CDB7DEB7FC
:100B80002E970FB6F894DEBF0FBECDBFA2E6B0E041
:100B9000E2E6F0E080818D7F8C9380E090E0A8E435
:100BA000B2E48B879C87AD87BE876B857C858D85FE
:100BB0009E8520E030E04AEF54E40E942508DC01E5
:100BC000CB018F839887A987BA876F8178858985BC
:100BD0009A8520E030E040E85FE30E942B0A8823FA
:100BE0002CF481E090E09E838D833FC06F817885F7
:100BF00089859A8520E03FEF4FE757E40E94CB09B3
:100C000018164CF56B857C858D859E8520E030E03F
:100C100040E251E40E942508DC01CB01BC01CD017A
:100C20000E944F06DC01CB019E838D830FC088ECB0
:100C300090E09C838B838B819C810197F1F79C834F
:100C40008B838D819E8101979E838D838D819E8173
:100C5000009769F714C06F81788589859A850E940D
:100C60004F06DC01CB019E838D838D819E819A830B
:100C7000898389819A810197F1F79A838983A2E612
:100C8000B0E0E2E6F0E0808182608C932E960FB6B1
:100C9000F894DEBF0FBECDBFCF91DF910895EF92E4
:100CA000FF920F931F937B018C0120E030E040E026
:100CB0005FE40E94FB0988238CF0C801B70120E0A3
:100CC00030E040E05FE40E94C7070E94B90A9B0140
:100CD000AC01205030404040504806C0C801B70128
:100CE0000E94B90A9B01AC01B901CA011F910F9181
:100CF000FF90EF900895A0E0B0E0E1E8F6E00C94FA
:100D0000AA0FDC012B01FA019C91923008F439C141
:100D1000EB018881823008F433C1943069F4843067
:100D200009F02FC111969C9111978981981709F4A8
:100D300028C1A8E1B1E025C1843009F421C1823085
:100D4000A9F4923009F01DC19A01AD0188E0EA01D1
:100D50000990AE01E90109929E018150C1F7E201BB
:100D6000898111969C918923818308C1923009F46D
:100D700007C112962D903C901397EB018A819B81BD
:100D80001496AD90BD90CD90DC901797EC80FD80CF
:100D90000E811F819101281B390BB90137FF04C057
:100DA00066277727621B730B603271050CF061C0F8
:100DB000121613066CF537014801062E04C09694EE
:100DC0008794779467940A94D2F721E030E040E06A
:100DD00050E004C0220F331F441F551F6A95D2F7FD
:100DE00021503040404050402E213F21402351238C
:100DF000211531054105510521F021E030E040E0A9
:100E000050E079018A01E628F728082919293CC011
:100E1000232BD1F1260E371E35014601062E04C0C4
:100E200096948794779467940A94D2F721E030E0FF
:100E300040E050E004C0220F331F441F551F6A9545
:100E4000D2F721503040404050402A213B214C21D4
:100E50005D21211531054105510521F021E030E0EA
:100E600040E050E059016A01A628B728C828D928CF
:100E70000BC0821593052CF01C01AA24BB2465012C
:100E800003C0EE24FF24870111969C91D201119694
:100E90008C91981709F445C0992339F0A80197015E
:100EA0002A193B094C095D0906C0A60195012E19B6
:100EB0003F09400B510B57FD08C01182338222823B
:100EC00024833583468357831DC081E08183338229
:100ED000228288279927DC01821B930BA40BB50B78
:100EE00084839583A683B7830DC0220F331F441FCD
:100EF000551F2483358346835783828193810197CD
:100F0000938382832481358146815781DA01C90127
:100F10000197A109B1098F5F9F4FAF4FBF4328F3DE
:100F20000BC0918333822282EA0CFB1C0C1D1D1D19
:100F3000E482F5820683178383E0808324813581F0
:100F40004681578157FF1AC0C901AA2797FDA0956E
:100F5000BA2F81709070A070B070569547953795F4
:100F60002795822B932BA42BB52B84839583A68363
:100F7000B78382819381019693838283DF0101C0CD
:100F8000D201CD01CDB7DEB7E2E10C94C60FA0E2ED
:100F9000B0E0EDECF7E00C94B60F69837A838B83B5
:100FA0009C832D833E834F835887E9E0EE2EF12CFE
:100FB000EC0EFD1ECE010196B7010E94310C8E0190
:100FC0000F5E1F4FCE010596B8010E94310C8A8931
:100FD00091E089278A8BC701B801AE01475E5F4F58
:100FE0000E947B060E945C0BA096E6E00C94D20F58
:100FF000A0E2B0E0EEEFF7E00C94B60F69837A83DD
:101000008B839C832D833E834F835887F9E0EF2E9B
:10101000F12CEC0EFD1ECE010196B7010E94310CA1
:101020008E010F5E1F4FCE010596B8010E94310C54
:10103000C701B801AE01475E5F4F0E947B060E9468
:101040005C0BA096E6E00C94D20FA0E2B0E0EBE2DD
:10105000F8E00C94AA0F69837A838B839C832D8399
:101060003E834F835887CE010196BE01675F7F4F55
:101070000E94310CCE010596BE016F5E7F4F0E942B
:10108000310C9985923088F089898230C8F094308B
:1010900019F4823051F404C0843029F4923081F480
:1010A00088E191E0C6C0923049F420E09A858A89AF
:1010B000981321E02A87CE010996BBC0823049F4FB
:1010C00020E09A858A89981321E02A8BCE014196E7
:1010D000B0C02D843E844F8458886D887E888F8868
:1010E000988CEE24FF248701AA24BB24650140E0EC
:1010F00050E060E070E0E0E0F0E0C10181709070ED
:10110000892BE9F0E60CF71C081D191D9A01AB01AB
:101110002A0D3B1D4C1D5D1D80E090E0A0E0B0E07D
:10112000E614F7040805190520F481E090E0A0E03A
:10113000B0E0BA01A901480F591F6A1F7B1FAA0C12
:10114000BB1CCC1CDD1C97FE08C081E090E0A0E039
:10115000B0E0A82AB92ACA2ADB2A3196E032F10582
:1011600049F0660C771C881C991C56944794379458
:101170002794C3CFFA85EA892B893C898B859C8586
:10118000280F391F2E5F3F4F17C0CA018170907022
:10119000892B61F016950795F794E79480E090E02D
:1011A000A0E0B0E8E82AF92A0A2B1B2B7695679570
:1011B000579547952F5F3F4F77FDE7CF0CC0440F02
:1011C000551F661F771F17FD4160EE0CFF1C001FA7
:1011D000111F21503040403090E0590790E06907DE
:1011E00090E4790760F32B8F3C8FDB01CA018F7786
:1011F0009070A070B07080349105A105B10561F4C4
:1012000047FD0AC0E114F1040105110529F0405C15
:101210005F4F6F4F7F4F40781A8EFE1711F081E0BD
:101220008A8F4D8F5E8F6F8F78A383E0898FCE0179
:1012300049960E945C0BA096E2E10C94C60FA8E1CF
:10124000B0E0E5E2F9E00C94B20F69837A838B8316
:101250009C832D833E834F835887B9E0EB2EF12C7E
:10126000EC0EFD1ECE010196B7010E94310C8E01DD
:101270000F5E1F4FCE010596B8010E94310C2985E3
:10128000223008F47EC03989323010F4B8017CC0B5
:101290008A859A8989278A87243011F0223031F48F
:1012A000231709F06EC068E171E06EC0343039F484
:1012B0001D861E861F86188A1C861B8604C0323037
:1012C00021F484E08987B7015FC02B853C858B8939
:1012D0009C89281B390B3C872B87ED84FE840F8566
:1012E0001889AD88BE88CF88D88CEA14FB040C0519
:1012F0001D0540F4EE0CFF1C001F111F2150304053
:101300003C872B8720E030E040E050E080E090E038
:10131000A0E0B0E460E070E0EA14FB040C051D05F9
:1013200040F0282B392B4A2B5B2BEA18FB080C09C1
:101330001D09B695A79597958795EE0CFF1C001F84
:10134000111F6F5F7F4F6F31710531F7DA01C901EE
:101350008F779070A070B07080349105A105B105B1
:1013600061F427FD0AC0E114F1040105110529F01B
:10137000205C3F4F4F4F5F4F20782D873E874F8730
:10138000588BBE01675F7F4FCB010E945C0B689654
:10139000EAE00C94CE0FA8E1B0E0E1EDF9E00C94A6
:1013A000B60F69837A838B839C832D833E834F831F
:1013B000588789E0E82EF12CEC0EFD1ECE01019637
:1013C000B7010E94310C8E010F5E1F4FCE010596B2
:1013D000B8010E94310C8985823040F089898230C1
:1013E00028F0C701B8010E94A90C01C08FEF6896D0
:1013F000E6E00C94D20FA8E1B0E0E1E0FAE00C9452
:10140000B60F69837A838B839C832D833E834F83BE
:10141000588789E0E82EF12CEC0EFD1ECE010196D6
:10142000B7010E94310C8E010F5E1F4FCE01059651
:10143000B8010E94310C8985823040F08989823060
:1014400028F0C701B8010E94A90C01C08FEF68966F
:10145000E6E00C94D20FA8E1B0E0E1E3FAE00C94EE
:10146000B60F69837A838B839C832D833E834F835E
:10147000588789E0E82EF12CEC0EFD1ECE01019676
:10148000B7010E94310C8E010F5E1F4FCE010596F1
:10149000B8010E94310C8985823040F08989823000
:1014A00028F0C701B8010E94A90C01C081E068962C
:1014B000E6E00C94D20FA8E0B0E0E1E6FAE00C948C
:1014C000B30F9B01AC0183E08983DA01C90188274E
:1014D000B7FD83959927AA27BB27B82E211531057B
:1014E0004105510519F482E089833AC08823A9F0A7
:1014F000203080E0380780E0480780E8580729F46A
:1015000060E070E080E09FEC30C0EE24FF248701B3
:10151000E21AF30A040B150B02C079018A018EE16D
:10152000C82ED12CDC82CB82ED82FE820F831887FD
:10153000C801B7010E940D0B01971816190684F413
:10154000082E04C0EE0CFF1C001F111F0A94D2F7D6
:10155000ED82FE820F831887C81AD90ADC82CB82FB
:10156000BA82CE0101960E945C0B2896E9E00C94A9
:10157000CF0FACE0B0E0EFEBFAE00C94BA0F698368
:101580007A838B839C83CE010196BE016B5F7F4F74
:101590000E94310C8D81823061F1823050F18430B3
:1015A00021F48E81882351F12EC02F81388537FD9B
:1015B00020C06E812F3131051CF06623F9F023C065
:1015C0008EE190E0821B930B29853A854B855C85E3
:1015D00004C056954795379527958A95D2F7662387
:1015E000B1F050954095309521953F4F4F4F5F4F4B
:1015F0000EC020E030E040E050E009C02FEF3FEFA8
:101600004FEF5FE704C020E030E040E050E8B90170
:10161000CA012C96E2E00C94D60FEF92FF920F9342
:101620001F937B018C0180E0E81680E0F80681E0E2
:10163000080780E0180788F48FEFE816F104010529
:10164000110531F028F088E090E0A0E0B0E017C08C
:1016500080E090E0A0E0B0E012C080E0E81680E01A
:10166000F80680E0080781E0180728F088E190E09C
:10167000A0E0B0E004C080E190E0A0E0B0E020E2B3
:1016800030E040E050E0281B390B4A0B5B0B04C0F4
:1016900016950795F794E7948A95D2F7F701E05EDF
:1016A000FE4F8081281B310941095109C9011F9151
:1016B0000F91FF90EF900895DF92EF92FF920F93BA
:1016C0001F93FC01E480F58006811781D180808121
:1016D000823048F480E090E0A0E1B0E0E82AF92A06
:1016E0000A2B1B2BA5C0843009F49FC0823021F443
:1016F000EE24FF24870105C0E114F1040105110562
:1017000019F4E0E0F0E096C0628173819FEF6238E7
:1017100079070CF05BC022E83FEF261B370B2A311C
:1017200031052CF020E030E040E050E02AC0B80164
:10173000A701022E04C076956795579547950A94A0
:10174000D2F781E090E0A0E0B0E004C0880F991FDC
:10175000AA1FBB1F2A95D2F70197A109B1098E21B3
:101760009F21A023B1230097A105B10521F081E0BD
:1017700090E0A0E0B0E09A01AB01282B392B4A2B76
:101780005B2BDA01C9018F779070A070B070803444
:101790009105A105B10539F427FF09C0205C3F4F31
:1017A0004F4F5F4F04C0215C3F4F4F4F5F4FE0E012
:1017B000F0E02030A0E03A07A0E04A07A0E45A0792
:1017C00010F0E1E0F0E079018A0127C0603871058E
:1017D00064F5FB01E158FF4FD801C7018F77907086
:1017E000A070B07080349105A105B10539F4E7FE11
:1017F0000DC080E490E0A0E0B0E004C08FE390E092
:10180000A0E0B0E0E80EF91E0A1F1B1F17FF05C07D
:1018100016950795F794E794319687E01695079506
:10182000F794E7948A95D1F705C0EE24FF24870149
:10183000EFEFF0E06E2F679566276795902F9F7703
:10184000D794DD24D7948E2F8695492F462B582F79
:101850005D29B701CA011F910F91FF90EF90DF90B2
:101860000895FC01DB01408151812281622F6F7755
:1018700070E0221F2227221F9381892F880F822B3D
:10188000282F30E0991F9927991F11969C93119743
:1018900021153105A9F5411551056105710511F4B1
:1018A00082E037C082E89FEF13969C938E93129745
:1018B0009A01AB0167E0220F331F441F551F6A9541
:1018C000D1F783E08C930DC0220F331F441F551FA7
:1018D00012968D919C911397019713969C938E93DA
:1018E0001297203080E0380780E0480780E45807EE
:1018F00058F314962D933D934D935C931797089549
:101900002F3F310579F4411551056105710519F431
:1019100084E08C93089564FF03C081E08C9312C02F
:101920001C9210C02F57304013963C932E93129761
:1019300083E08C9387E0440F551F661F771F8A95BD
:10194000D1F7706414964D935D936D937C931797C4
:1019500008951F93DC01FB019C91923008F447C06D
:101960008081823008F443C0943051F411961C9168
:10197000843099F58181682F70E0611B71093FC047
:10198000843021F0923031F48230B9F181818823A2
:1019900089F12DC011961C9111978230F1F081814F
:1019A0001817D9F412962D913C9113978281938147
:1019B0008217930794F028173907BCF014968D917D
:1019C0009D910D90BC91A02D248135814681578138
:1019D000281739074A075B0718F4112341F00AC09A
:1019E00082179307A407B50740F4112319F061E0AB
:1019F00070E005C06FEF7FEF02C060E070E0CB01E8
:101A00001F91089560913002709131020E94200F61
:101A10000895AEE0B0E0EFE0FDE00C94B80F0D8962
:101A20001E8986E08C831A8309838FEF9FE79E834C
:101A30008D839E01275E3F4FCE0101966F89788D81
:101A4000A9010E942D0D2F813885020F131FF80167
:101A500010822E96E4E00C94D40FABE0B0E0E3E308
:101A6000FDE00C94AA0F3C012B015A01FC011782E6
:101A70001682838181FD03C06FEF7FEFC6C19AE0BC
:101A8000892E1E010894211C311CF3012381F201CF
:101A900023FD859123FF81912F01882309F4B2C191
:101AA000853239F423FD859123FF81912F01853201
:101AB00029F490E0B3010E94200FE7CF982FFF2474
:101AC000EE249924FFE1FF15D0F09B3269F09C329F
:101AD00028F4903259F0933291F40EC09D3249F0BF
:101AE000903369F441E024C052E0F52A84E0F82AFA
:101AF00028C098E0F92A25C0E0E1FE2A22C0F7FCC0
:101B000029C0892F80538A3070F4F6FE05C0989C56
:101B1000902C1124980E15C0E89CE02C1124E80E9E
:101B2000F0E2FF2A0EC09E3229F4F6FC6BC140E4BD
:101B3000F42A07C09C3619F450E8F52A02C09836FA
:101B400049F4F20123FD959123FF91912F019923EF
:101B500009F0B8CF892F8554833018F08052833034
:101B600038F444E050E0A40EB51E5FE359830FC083
:101B7000933631F0933779F0933509F056C020C091
:101B8000F5018081898342E050E0A40EB51E610119
:101B900001E010E012C0F501C080D180F6FC03C066
:101BA0006FEF7FEF02C0692D70E042E050E0A40EBD
:101BB000B51EC6010E94150F8C015FE7F52214C007
:101BC000F501C080D180F6FC03C06FEF7FEF02C04B
:101BD000692D70E042E050E0A40EB51EC6010E94DF
:101BE0000A0F8C0150E8F52AF3FE07C01AC080E204
:101BF00090E0B3010E94200FEA948E2D90E0081728
:101C00001907A8F30EC0F601F7FC8591F7FE819144
:101C10006F0190E0B3010E94200FE110EA9401509F
:101C200010400115110579F7EAC0943611F0993684
:101C300069F5F7FE08C0F5012081318142815381A9
:101C400084E090E00AC0F501808191819C014427E5
:101C500037FD4095542F82E090E0A80EB91E9FE614
:101C6000F92257FF09C050954095309521953F4F77
:101C70004F4F5F4FE0E8FE2ACA01B901A1012AE0F7
:101C800030E00E944C0FD82ED21840C0953729F46E
:101C90001F2D1F7E2AE030E01DC01F2D197F9F36AB
:101CA00061F0903720F4983509F0ACC00FC0903740
:101CB00039F0983709F0A6C004C028E030E00AC027
:101CC000106114FD146020E130E004C014FD1660C2
:101CD00020E132E017FF08C0F50160817181828147
:101CE000938144E050E008C0F50180819181BC01FE
:101CF00080E090E042E050E0A40EB51EA1010E94F9
:101D00004C0FD82ED2188FE7F82EF122F6FE0BC01A
:101D10005EEFF522D91438F4F4FE07C0F2FC05C0DA
:101D20008FEEF82202C01D2D01C0192DF4FE0DC04A
:101D3000FE01ED0DF11D8081803319F499EEF92239
:101D400008C01F5FF2FE05C003C08F2D867809F022
:101D50001F5F0F2DF3FC14C0F0FE0FC01E1510F016
:101D60009D2C0BC09D2C9E0C911A1E2D06C080E24E
:101D700090E0B3010E94200F1F5F1E15C0F304C046
:101D80001E1510F4E11A01C0EE2404FF0FC080E319
:101D900090E0B3010E94200F02FF1DC001FD03C0AF
:101DA00088E790E00EC088E590E00BC0802F867831
:101DB00091F001FF02C08BE201C080E2F7FC8DE2EE
:101DC00090E0B3010E94200F06C080E390E0B301D1
:101DD0000E94200F9A94D914C0F3DA94F101ED0D0A
:101DE000F11D808190E0B3010E94200FDD20A9F752
:101DF00006C080E290E0B3010E94200FEA94EE203A
:101E0000C1F743CEF30166817781CB012B96E2E1E6
:101E10000C94C60FFC010590615070400110D8F77A
:101E2000809590958E0F9F1F0895FC016150704022
:101E300001900110D8F7809590958E0F9F1F0895FF
:101E40000F931F93CF93DF938C01EB018B8181FF65
:101E50001BC082FF0DC02E813F818C819D81281780
:101E6000390764F4E881F9810193F983E88306C0B6
:101E7000E885F985802F0995892B31F48E819F8122
:101E800001969F838E8302C00FEF1FEFC801DF9181
:101E9000CF911F910F910895FA01AA27283051F18F
:101EA000203181F1E8946F936E7F6E5F7F4F8F4F8B
:101EB0009F4FAF4FB1E03ED0B4E03CD0670F781FEA
:101EC000891F9A1FA11D680F791F8A1F911DA11DCF
:101ED0006A0F711D811D911DA11D20D009F4689408
:101EE0003F912AE0269F11243019305D3193DEF6B0
:101EF000CF010895462F4770405D4193B3E00FD066
:101F0000C9F7F6CF462F4F70405D4A3318F0495D50
:101F100031FD4052419302D0A9F7EACFB4E0A69533
:101F20009795879577956795BA95C9F70097610555
:101F3000710508959B01AC010A2E069457954795AB
:101F400037952795BA95C9F7620F731F841F951FA0
:101F5000A01D08952F923F924F925F926F927F92B1
:101F60008F929F92AF92BF92CF92DF92EF92FF92A9
:101F70000F931F93CF93DF93CDB7DEB7CA1BDB0B55
:101F80000FB6F894DEBF0FBECDBF09942A883988FA
:101F900048885F846E847D848C849B84AA84B98401
:101FA000C884DF80EE80FD800C811B81AA81B9810D
:101FB000CE0FD11D0FB6F894DEBF0FBECDBFED0121
:061FC0000895F894FFCF24
:101FC60020000000000000000000000000000000EB
:101FD600000000256400040000000000000000006E
:101FE60000010202030303030404040404040404BA
:101FF600050505050505050505050505050505058B
:10200600060606060606060606060606060606066A
:10201600060606060606060606060606060606065A
:10202600070707070707070707070707070707073A
:10203600070707070707070707070707070707072A
:10204600070707070707070707070707070707071A
:10205600070707070707070707070707070707070A
:1020660008080808080808080808080808080808EA
:1020760008080808080808080808080808080808DA
:1020860008080808080808080808080808080808CA
:1020960008080808080808080808080808080808BA
:1020A60008080808080808080808080808080808AA
:1020B600080808080808080808080808080808089A
:1020C600080808080808080808080808080808088A
:1020D600080808080808080808080808080808087A
:00000001FF
