:100000000C9446000C9465000C9465000C946500FB
:100010000C9465000C9437040C9465000C946500F6
:100020000C9465000C9465000C9465000C946500BC
:100030000C9465000C9465000C9465000C946500AC
:100040000C9465000C9465000C9465000C9465009C
:100050000C9465000C9467040C9465000C94650086
:100060000C9465000C9465000C9497040C94650046
:100070000C9465000C9465000C9465000C9465006C
:100080000C9465000C94C7040C94650011241FBEE9
:10009000CFEFD0E1DEBFCDBF12E0A0E0B1E0E2E6FD
:1000A000FFE200E00BBF02C007900D92A633B1073C
:1000B000D9F712E0A6E3B2E001C01D92AF35B10757
:1000C000E1F70E949C030C94AF170C940000DF939F
:1000D000CF9300D0CDB7DEB70E94E4018FEF8983C4
:1000E00080EE8A83898160E20E947F028A8161E2D8
:1000F0000E947F0283E0898380EE8A83898160E0A9
:100100000E947F028A8161E00E947F028FE060EEA0
:1001100040E00E94270380E660E640E20E94270359
:100120008BE261E04FEF0E9427030E9468010F906D
:100130000F90CF91DF910895DF93CF93CDB7DEB7C6
:1001400027970FB6F894DEBF0FBECDBF1C821B826F
:1001500088E08D8380E091E09F838E8380E090E053
:1001600027960FB6F894DEBF0FBECDBFCF91DF91BB
:100170000895DF93CF93CDB7DEB72E970FB6F894DF
:10018000DEBF0FBECDBF9A8789877C876B871C82B5
:100190001B8282E091E09A8389831E821D8215C0B2
:1001A00029813A818D819E81D901A80FB91F2985A6
:1001B0003A858D819E81F901E80FF91F80818C932A
:1001C0008D819E8101969E838D838D819E81883055
:1001D000910530F38B859C859595879595958795A9
:1001E00095958795982F81E36FEF492F0E942703FC
:1001F0008B85982F9295990F907E82E360EE492F20
:100200000E94270388E065E30E947F0289819A812A
:1002100060E00E949C0280E00E94D9021E821D8242
:100220000DC00E94FD02882F90E0847090700097AE
:1002300059F08D819E8101969E838D838D819E8153
:100240002FEF8F3F920769F78D819E812FEF8F3FB0
:10025000920729F48FEF9FEF9E878D8702C01E863D
:100260001D868D859E852E960FB6F894DEBF0FBE37
:10027000CDBFCF91DF910895DF93CF9300D000D011
:10028000CDB7DEB79A8389837C836B830E94FD029E
:10029000282F30E08B819C81880F991F0196822343
:1002A0009323009799F32B8189819A81622F0E9471
:1002B0003402E981FA818FE190E09183808380E0CC
:1002C00090E00F900F900F900F90CF91DF910895D5
:1002D000DF93CF93CDB7DEB7A2E2B0E0E2E2F0E089
:1002E00080818F7E8C93A3E2B0E0E3E2F0E0808136
:1002F00080618C93EAE5F0E01082A9E5B0E0E9E5E1
:10030000F0E0808180618C93CF91DF910895DF933D
:10031000CF93CDB7DEB762970FB6F894DEBF0FBEAE
:10032000CDBF8AE091E09D878C87CE01099660E081
:1003300070E00E943C01EC85FD8580818F30D9F50D
:100340008C859D85FC0131968081282F30E03A8B89
:10035000298B89899A898236910551F129893A89AF
:100360002336310534F489899A8981369105E1F083
:1003700022C029893A892837310531F089899A893B
:100380008937910549F017C08C859D85FC0132960F
:10039000808180935E020FC08C859D85FC01329622
:1003A000808180935D0207C081E08093370203C0A3
:1003B00081E08093360262960FB6F894DEBF0FBEDE
:1003C000CDBFCF91DF910895DF93CF93CDB7DEB747
:1003D00083E70E947D0380EC0E9458030E948E03F5
:1003E000CF91DF9108950F931F93DF93CF93CDB7F4
:1003F000DEB727970FB6F894DEBF0FBECDBF9C8344
:100400008B836D835F834E8383E70E947D0383E04C
:100410000E9458038D810E9458031A82198210C0CD
:1004200029813A818B819C818C01020F131F0E94CC
:100430006B03F801808389819A8101969A8389836D
:1004400029813A818E819F81281739074CF30E94B8
:100450008E0327960FB6F894DEBF0FBECDBFCF91A7
:10046000DF911F910F9108950F931F93DF93CF9307
:1004700000D000D00F92CDB7DEB79C838B836D8305
:100480008D81823090F58D81882319F481E08D83F0
:1004900005C08D81813011F483E08D8383E70E9454
:1004A0007D038D81882F90E0880F991F80690E94BD
:1004B00058031A82198212C0EB81FC812381348196
:1004C00089819A818901080F191F0E946B03F80125
:1004D000808389819A8101969A83898389819A810F
:1004E000883091054CF30E948E030F900F900F906F
:1004F0000F900F90CF91DF911F910F910895DF938F
:10050000CF9300D000D0CDB7DEB78B836C8383E769
:100510000E947D0382E00E9458038C810E94580350
:100520008B810E9458030E948E030F900F900F90B2
:100530000F90CF91DF910895DF93CF9300D000D03B
:100540000F92CDB7DEB79C838B836D838D81833013
:1005500040F58D81882F90E00196880F991F81507A
:100560008D8383E70E947D038D8180640E94580300
:100570001A8219820FC029813A818B819C81FC01EA
:10058000E20FF31F80810E94580389819A810196AE
:100590009A83898389819A818830910564F30E94C6
:1005A0008E030F900F900F900F900F90CF91DF91CF
:1005B0000895DF93CF930F92CDB7DEB789838981FA
:1005C000882319F481E089830BC08981813019F473
:1005D00082E0898305C08981823059F484E089836F
:1005E00083E70E947D03898180680E9458030E94EE
:1005F0008E030F90CF91DF910895DF93CF930F92E9
:10060000CDB7DEB783E70E947D0380EA0E945803DE
:100610000E946B0389830E948E0389810F90CF9182
:10062000DF910895DF93CF930F92CDB7DEB783E7C5
:100630000E947D0380EB0E9458030E946B03898314
:100640000E948E0389810F90CF91DF910895DF93EF
:10065000CF9300D00F92CDB7DEB789836A834B83E7
:1006600083E70E947D0385E00E94580389810E94F0
:1006700058038A810E9458038B810E9458030E946C
:100680008E030F900F900F90CF91DF910895DF931D
:10069000CF93CDB7DEB7E7E3F0E087EF8083EDE2FD
:1006A000F0E081E580830E948E03CF91DF91089571
:1006B000DF93CF930F92CDB7DEB78983EFE2F0E0FF
:1006C00089818083EEE2F0E080818823DCF70F905F
:1006D000CF91DF910895DF93CF93CDB7DEB780E45C
:1006E0000E945803EEE2F0E080818823DCF7EFE21D
:1006F000F0E08081CF91DF910895DF93CF930F9247
:10070000CDB7DEB78983A8E3B0E0E8E3F0E080810D
:100710008E7F8C930F90CF91DF910895DF93CF93CD
:10072000CDB7DEB7A8E3B0E0E8E3F0E08081816018
:100730008C93CF91DF910895DF93CF9300D0CDB705
:10074000DEB783E191E09A838983F8940E948E0357
:100750000E9447030E9467008BE191E06FE170E027
:100760000E94B9000E94F7040E94D1050E947F06F2
:100770000E942F07789480915D020E943A0B80912D
:100780005E020E941905809136028823B1F10E9411
:1007900094060E94D1079C018DB79EB70A970FB6A9
:1007A000F8949EBF0FBE8DBFEDB7FEB7319689811D
:1007B0009A819183808383E291E0938382838FE0A7
:1007C00090E09583848383E790E0978386833187E5
:1007D00020870E94D7148DB79EB70A960FB6F8945B
:1007E0009EBF0FBE8DBFF89489819A816FE170E042
:1007F0000E94B900789410923602809137028823C3
:1008000009F4B9CF0E94F4059C018DB79EB70A97F1
:100810000FB6F8949EBF0FBE8DBFEDB7FEB73196F1
:1008200089819A819183808383E291E0938382839B
:100830008FE090E09583848383E790E097838683BD
:10084000318720870E94D7148DB79EB70A960FB6BE
:10085000F8949EBF0FBE8DBFF89489819A816FE195
:1008600070E00E94B90078941092370284CF1F92F2
:100870000F920FB60F9200905B000F9211242F93EE
:100880003F934F935F936F937F938F939F93AF9318
:10089000BF93EF93FF93DF93CF93CDB7DEB70E9463
:1008A0008701CF91DF91FF91EF91BF91AF919F9120
:1008B0008F917F916F915F914F913F912F910F9009
:1008C00000925B000F900FBE0F901F9018951F9223
:1008D0000F920FB60F9200905B000F9211242F938E
:1008E0003F934F935F936F937F938F939F93AF93B8
:1008F000BF93EF93FF93DF93CF93CDB7DEB70E9403
:100900000A06CF91DF91FF91EF91BF91AF919F9137
:100910008F917F916F915F914F913F912F910F90A8
:1009200000925B000F900FBE0F901F9018951F92C2
:100930000F920FB60F9200905B000F9211242F932D
:100940003F934F935F936F937F938F939F93AF9357
:10095000BF93EF93FF93DF93CF93CDB7DEB70E94A2
:100960004C0BCF91DF91FF91EF91BF91AF919F9190
:100970008F917F916F915F914F913F912F910F9048
:1009800000925B000F900FBE0F901F9018951F9262
:100990000F920FB60F9200905B000F9211242F93CD
:1009A0003F934F935F936F937F938F939F93AF93F7
:1009B000BF93EF93FF93DF93CF93CDB7DEB70E9442
:1009C000E80CCF91DF91FF91EF91BF91AF919F9193
:1009D0008F917F916F915F914F913F912F910F90E8
:1009E00000925B000F900FBE0F901F901895DF9341
:1009F000CF93CDB7DEB7A7E3B0E0E7E3F0E08081C7
:100A000080648C93EFE4F0E082E28083EEE4F0E037
:100A10008AE18083E8E4F0E083E196E091838083DB
:100A2000E6E4F0E08CED90E591838083CF91DF9157
:100A30000895EF92FF920F931F93DF93CF9300D00F
:100A400000D00F92CDB7DEB78D838D81992787FDBA
:100A50009095A92FB92FBC01CD010E943012DC0165
:100A6000CB01BC01CD0120E030E84DE154E40E940F
:100A7000FA0FDC01CB01BC01CD0120E030E040E009
:100A800053E40E94F410DC01CB0189839A83AB8389
:100A9000BC8369817A818B819C8120E030E642ECC5
:100AA00054E40E94CD0FDC01CB0189839A83AB8390
:100AB000BC8369817A818B819C8120E030EC49E69E
:100AC00054E40E94001288234CF480E090ECA9E6E4
:100AD000B4E489839A83AB83BC8314C069817A812F
:100AE0008B819C8120E030E448E055E40E94A01115
:100AF000181644F480E090E4A8E0B5E489839A8372
:100B0000AB83BC838091380290913902A0913A0264
:100B1000B0913B02BC01CD012AE939E949E15FE32B
:100B20000E94FA0FDC01CB017C018D0169817A8181
:100B30008B819C812CEC3CEC4CEC5EE30E94FA0F28
:100B4000DC01CB019C01AD01C801B7010E94CD0FB2
:100B5000DC01CB018093380290933902A0933A02D2
:100B6000B0933B0208E410E0809138029091390282
:100B7000A0913A02B0913B02BC01CD010E948E12BD
:100B8000DC01CB01F801918380830F900F900F90CF
:100B90000F900F90CF91DF911F910F91FF90EF90E9
:100BA0000895DF93CF93CDB7DEB7E7E2F0E080EEB4
:100BB0008083E6E2F0E08FEE8083CF91DF910895AD
:100BC000DF93CF930F92CDB7DEB780913C02909127
:100BD0003D02009711F0198202C081E0898389816A
:100BE0000F90CF91DF910895DF93CF93CDB7DEB70C
:100BF00080913E0290913F02CF91DF910895DF9363
:100C0000CF93CDB7DEB710923F0210923E02CF9144
:100C1000DF910895DF93CF93CDB7DEB7E5E2F0E043
:100C20008081282F30E08091420290914302820F10
:100C3000931F9093430280934202809144029091CB
:100C4000450201969093450280934402209144020C
:100C50003091450280912A0190912B012817390784
:100C60000CF44AC080913C0290913D028130910584
:100C7000C1F420912A0130912B01C901880F991FDD
:100C8000820F931F880F991F9C01809142029091BF
:100C90004302281739072CF410923D0210923C02AF
:100CA00023C080913C0290913D020097E9F480912D
:100CB0002A0190912B019C01220F331F8091420247
:100CC00090914302821793077CF481E090E0909327
:100CD0003D0280933C0280913E0290913F0201963A
:100CE00090933F0280933E02109243021092420280
:100CF0001092450210924402CF91DF910895DF9344
:100D0000CF93CDB7DEB7A2E6B0E0E2E6F0E08081B7
:100D100082608C93A1E6B0E0E1E6F0E08081826041
:100D20008C93CF91DF910895DF93CF93CDB7DEB74A
:100D300066970FB6F894DEBF0FBECDBF1F86188A28
:100D4000198A1A8A1B8A1C8A1D8A1E8AA2E6B0E0AA
:100D5000E2E6F0E080818D7F8C9380E090E0A0E778
:100D6000B1E48B879C87AD87BE876B857C858D853D
:100D70009E8520E030E04AEF54E40E94FA0FDC0147
:100D8000CB018F839887A987BA876F8178858985FA
:100D90009A8520E030E040E85FE30E94001288235B
:100DA0002CF481E090E09E838D833FC06F81788535
:100DB00089859A8520E03FEF4FE757E40E94A01114
:100DC00018164CF56B857C858D859E8520E030E07E
:100DD00040E251E40E94FA0FDC01CB01BC01CD01DD
:100DE0000E94240EDC01CB019E838D830FC088EC12
:100DF00090E09C838B838B819C810197F1F79C838E
:100E00008B838D819E8101979E838D838D819E81B1
:100E1000009769F714C06F81788589859A850E944B
:100E2000240EDC01CB019E838D838D819E819A836C
:100E3000898389819A810197F1F79A838983A2E650
:100E4000B0E0E2E6F0E0808182608C9366960FB6B7
:100E5000F894DEBF0FBECDBFCF91DF910895DF9331
:100E6000CF93CDB7DEB728970FB6F894DEBF0FBE8D
:100E7000CDBF1092470210924602EBE8F0E083E00B
:100E80008083EAE8F0E08DE180830E942C0C84E20C
:100E900089838DEC8A838FEF8B838FEF8C838FEF29
:100EA0008D838FEF8E838FEF8F838FEF8887E6E8B8
:100EB000F0E08981882F90E091838083ADE7B0E0F6
:100EC000EDE7F0E0808180618C93EAE3F0E08FEF62
:100ED0008083ABE3B0E0EBE3F0E080818C608C9347
:100EE000E4E3F0E01082E5E3F0E01082ABE3B0E091
:100EF000EBE3F0E08081877F8C93ABE3B0E0EBE342
:100F0000F0E0808188608C9328960FB6F894DEBF5D
:100F10000FBECDBFCF91DF910895DF93CF93CDB7B3
:100F2000DEB7CF91DF910895DF93CF9300D000D04B
:100F3000CDB7DEB78C83809148029091490201962B
:100F40009093490280934802ABE3B0E0EBE3F0E01A
:100F5000808180628C9380E589831A828C818823CA
:100F600054F08C818B83ABE3B0E0EBE3F0E0808165
:100F70008F7B8C930AC08C8180958B83ABE3B0E030
:100F8000EBE3F0E0808180648C93CE01019663E016
:100F90000E94570C0F900F900F900F90CF91DF9100
:100FA0000895AF92BF92CF92DF92EF92FF920F938C
:100FB0001F93DF93CF93CDB7DEB7C855D0400FB6A0
:100FC000F894DEBF0FBECDBFABE3B0E0EBE3F0E0E3
:100FD00080818B7F8C93ABE3B0E0EBE3F0E080812A
:100FE0008F7E8C930000000000000000E3E3F0E03F
:100FF0008081882F90E0982F88279A838983ABE39C
:10100000B0E0EBE3F0E0808180618C9300000000B1
:101010000000000089819A8180E29802812D990B5D
:101020001124009789F089819A81906F9A8389832E
:10103000E3E3F0E08081282F30E089819A81821BF0
:10104000930B9A83898310C089819A819F709A83B8
:101050008983E3E3F0E08081282F30E089819A8161
:10106000820F931F9A838983E3E3F0E08081282F26
:1010700030E089819A81822393239A838983ABE329
:10108000B0E0EBE3F0E08081877F8C93ABE3B0E0EE
:10109000EBE3F0E0808188608C93ABE3B0E0EBE3BE
:1010A000F0E0808184608C9389819A81990F880B0C
:1010B000982F29813A813C872B878D878E878F8750
:1010C000888B898B8A8B30914A023B8380914B02BB
:1010D0008C8390914C029D8320914D022E83309100
:1010E0004E023F8380914F028887909150029987EA
:1010F000209151022A873B858B81380F3B8B91E0F1
:101100009B8F2B893B85231708F01B8E8C859C8138
:10111000890F8C8B21E02C8F3C898C85381708F047
:101120001C8E9B8D2C89920F9D8F31E03E8F8D8D73
:101130009C89891708F01E8E2C8D3E8D232B2C8FB9
:101140008D8D8C8B9D852D81920F9D8B31E03F8FF6
:101150008D899D85891708F01F8E2C8D3D89230F61
:1011600028A381E089A398A12D89921708F019A2DC
:101170003F8D89A1382B3F8F98A19D8B2E853E8175
:10118000230F2E8B81E08AA39E892E85921708F06B
:101190001AA23F8D8E89380F3BA391E09CA32BA10F
:1011A0003E89231708F01CA28AA19CA1892B8AA33F
:1011B0002BA12E8B3F858F81380F3F8B91E09DA314
:1011C0002F893F85231708F01DA28AA19F89890FC7
:1011D0008EA321E02FA33EA18F89381708F01FA20C
:1011E0009DA12FA1922B9DA33EA13F8B888998851D
:1011F000890F888F21E028A7388D8889381708F053
:1012000018A69DA1288D920F99A731E03AA789A52C
:10121000988D891708F01AA628A53AA5232B28A788
:1012200089A5888F99892985920F998F31E03BA7ED
:10123000898D9989891708F01BA628A5398D230F58
:101240002CA781E08DA79CA5298D921708F01DA6DB
:101250003BA58DA5382B3BA79CA5998F2A893A855C
:10126000230F2A8F8BA59A8D890F8A8F2B893C8912
:101270004D895E896F89788D898D9A8D20934A0278
:1012800030934B0240934C0250934D0260934E02B8
:1012900070934F02809350029093510220914A0222
:1012A00030914B0240914C0250914D0260914E02A0
:1012B00070914F0280915002909151022EA73FA74A
:1012C00048AB59AB6AAB7BAB8CAB9DAB2DA9222352
:1012D0000CF0A2C13FEF3EAB1FAA18AE19AE1AAE7A
:1012E0001BAE1CAE1DAE8EA59EA9890F8EAF21E050
:1012F00027962FAF27973EAD8EA5381718F0279663
:101300001FAE27979FA52FA9920F9FAF31E0289678
:101310003FAF28978FAD9FA5891718F028961FAE6D
:10132000289727962FAD27973FAD230F29962FAFEC
:10133000299781E02A968FAF2A9729969FAD299702
:101340002FAD921718F02A961FAE2A9728963FAD18
:1013500028972A968FAD2A97382B28963FAF289743
:1013600029969FAD29979FAF28A938AD230F2196C5
:101370002FAF219781E02B968FAF2B9721969FADB2
:10138000219728A9921718F02B961FAE2B97289615
:101390003FAD289721968FAD2197380F2C963FAF00
:1013A0002C9791E02D969FAF2D972C962FAD2C97D3
:1013B00021963FAD2197231718F02D961FAE2D973C
:1013C0002B968FAD2B972D969FAD2D97892B2B9616
:1013D0008FAF2B972C962FAD2C9721962FAF21975F
:1013E00039A989AD380F22963FAF229791E02E960A
:1013F0009FAF2E9722962FAD229739A9231718F069
:101400002E961FAE2E972B968FAD2B9722969FADC3
:101410002297890F2F968FAF2F9721E060962FAFDD
:1014200060972F963FAD2F9722968FAD2297381752
:1014300018F060961FAE60972E969FAD2E9760961F
:101440002FAD6097922B2E969FAF2E972F963FAD84
:101450002F9722963FAF22978AA99AAD890F23969C
:101460008FAF239721E061962FAF619723963FAD11
:1014700023978AA9381718F061961FAE61972E96A8
:101480009FAD2E9723962FAD2397920F62969FAF15
:10149000629731E063963FAF639762968FAD629734
:1014A00023969FAD2397891718F063961FAE639715
:1014B00061962FAD619763963FAD6397232B61963D
:1014C0002FAF619762968FAD629723968FAF239768
:1014D0009BA92BAD920F24969FAF249731E0649681
:1014E0003FAF649724968FAD24979BA9891718F076
:1014F00064961FAE649761962FAD619724963FADB9
:101500002497230F65962FAF659781E066968FAF7E
:10151000669765969FAD659724962FAD2497921791
:1015200018F066961FAE669764963FAD6497669610
:101530008FAD6697382B64963FAF649765969FADE5
:10154000659724969FAF24972CA93CAD230F259631
:101550002FAF259781E067968FAF679725969FAD50
:1015600025972CA9921718F067961FAE6797649677
:101570003FAD649725968FAD2597380F68963FAF9E
:10158000689791E069969FAF699768962FAD6897C5
:1015900025963FAD2597231718F069961FAE6997DA
:1015A00067968FAD679769969FAD6997892B679608
:1015B0008FAF679768962FAD689725962FAF2597C1
:1015C0003DA98DAD380F26963FAF269767968FAD14
:1015D000679726969FAD2697890F26968FAF2697F9
:1015E0002EAD2EA73FAD3FA721968FAD219788AB9B
:1015F00022969FAD229799AB23962FAD23972AABC6
:1016000024963FAD24973BAB25968FAD25978CABA9
:1016100026969FAD26979DAB2EA53FA548A959A913
:101620006AA97BA98CA99DA908E00E949F0DA22E02
:10163000B32EC42ED52EE62EF72E082F192F2A2DC5
:101640003B2D4C2D5D2D6E2D7F2D802F912FC901AF
:10165000C85ADF4F0FB6F894DEBF0FBECDBFCF9193
:10166000DF911F910F91FF90EF90DF90CF90BF908F
:10167000AF900895DF93CF930F92CDB7DEB78983F4
:101680008981992787FD9095909347028093460220
:101690000F90CF91DF9108950F931F93DF93CF9316
:1016A00000D000D0CDB7DEB780E090E0A0E0B0E0A1
:1016B00089839A83AB83BC830091460210914702D1
:1016C0000E94D1079801281B390BC901AA2797FD51
:1016D000A095BA2FBC01CD010E943012DC01CB01D4
:1016E00089839A83AB83BC830091460210914702A1
:1016F0000E94D1079801281B390BC901AA2797FD21
:10170000A095BA2FBC01CD010E943012DC01CB01A3
:10171000BC01CD012AE037ED43E25CE30E94FA0F01
:10172000DC01CB01209152023091530240915402CE
:1017300050915502BC01CD010E94CD0FDC01CB01BF
:101740008093520290935302A0935402B093550297
:101750008091520290915302A0915402B09155028F
:10176000BC01CD0129813A814B815C810E94CD0F62
:10177000DC01CB01BC01CD0120E030E04EEF52E4B2
:101780000E94A0111816ACF460E070E08EEF92E4B5
:1017900029813A814B815C810E949C0FDC01CB0145
:1017A0008093520290935302A0935402B093550237
:1017B00030C08091520290915302A0915402B09196
:1017C0005502BC01CD0129813A814B815C810E9487
:1017D000CD0FDC01CB01BC01CD0120E030E040E0C9
:1017E00053EC0E9400128823A4F460E070E080E0D3
:1017F00093EC29813A814B815C810E949C0FDC0132
:10180000CB018093520290935302A0935402B09361
:1018100055028091520290915302A0915402B091CE
:101820005502BC01CD0129813A814B815C810E9426
:10183000CD0FDC01CB01BC01CD010E948E12DC0179
:10184000CB010E9494070F900F900F900F90CF91B3
:10185000DF911F910F910895DF93CF93CDB7DEB73E
:10186000E0E7F0E08CE08083E3E7F0E08FEF808357
:10187000E4E7F0E084E08083CF91DF910895DF9387
:10188000CF93CDB7DEB7E4E7F0E080818170CF91F0
:10189000DF910895DF93CF93CDB7DEB70E943F0C61
:1018A0008823E1F780912C01CF91DF910895DF9398
:1018B000CF9300D000D0CDB7DEB79B838A836C83F3
:1018C0000E943F0C8823E1F78C8180935C02EA81BF
:1018D000FB81808180935802EA81FB818081882F7F
:1018E00090E0817090700097D1F481E0898313C0FB
:1018F0008981482F50E08981282F30E08A819B819F
:10190000FC01E20FF31F8081FA01E85AFD4F80834A
:1019100089818F5F898399818C81981748F3109210
:10192000560288EF80932C01E4E7F0E085EA80839B
:101930000F900F900F900F90CF91DF910895DF934C
:10194000CF93CDB7DEB70E943F0C8823E1F710920A
:10195000560288EF80932C01E4E7F0E085EA80836B
:10196000CF91DF910895DF93CF9300D000D0CDB712
:10197000DEB79B838A836C830E943F0C8823E1F748
:101980008091560281708823C9F0198213C0898121
:10199000282F30E08A819B81DC01A20FB31F89814F
:1019A000882F90E0FC01E85AFD4F80818C9389815B
:1019B0008F5F898399818C81981748F380915602B3
:1019C00081700F900F900F900F90CF91DF9108953D
:1019D000DF93CF9300D0CDB7DEB7E1E7F0E08081B1
:1019E000282F30E03A83298389819A8188329105B2
:1019F000A9F129813A812932310584F489819A81BA
:101A00008031910549F129813A812831310531F13F
:101A100089819A8188309105F9F083C029813A81C2
:101A20002034310509F44DC089819A8181349105B2
:101A30003CF429813A812833310509F46DC071C025
:101A400089819A818035910569F129813A8128350A
:101A5000310509F44CC065C01092570290915702AD
:101A600080915C029817A0F4A3E7B0E020915702A0
:101A7000822F90E0FC01E85AFD4F80818C93822FE9
:101A80008F5F80935702E4E7F0E085E8808352C0DF
:101A900080915602816080935602E4E7F0E084E989
:101AA000808348C030915702832F90E0E3E7F0E055
:101AB0002081FC01E85AFD4F2083832F8F5F8093A4
:101AC000570280915702282F30E080915C02882FC6
:101AD00090E00197281739072CF4E4E7F0E085EC53
:101AE000808328C0E4E7F0E085E8808323C080910C
:101AF0005702882F90E0E3E7F0E02081FC01E85AEC
:101B0000FD4F208380915602816080935602E4E766
:101B1000F0E084E980830EC0E4E7F0E085EA8083AA
:101B200009C0E1E7F0E0808180932C01E4E7F0E078
:101B300084E080830F900F90CF91DF910895EF9212
:101B4000FF920F93DF93CF93CDB7DEB760970FB6B9
:101B5000F894DEBF0FBECDBFA82F002309F467C0E5
:101B60007E010894E11CF11C88E0F70111928A952E
:101B7000E9F729833A834B835C836D837E83AF834C
:101B8000988780E2801B4D815E816F817885E82F88
:101B9000FF27E7FDF0951816B4F0DB01CA01BB0F73
:101BA000880B982FDC018D879E87AF87B88B88279D
:101BB00099278E1B9F0B04C0759567955795479580
:101BC0008A95D2F728C0202F332727FD3095DB01D7
:101BD000CA01022E04C0B595A795979587950A94DA
:101BE000D2F78D879E87AF87B88B04C0440F551FEF
:101BF000661F771FEA95D2F789819A81AB81BC81F4
:101C000004C0B695A795979587952A95D2F7482B46
:101C1000592B6A2B7B2B49875A876B877C872985B1
:101C20003A854B855C856D857E85AF8598898A2F41
:101C300060960FB6F894DEBF0FBECDBFCF91DF9197
:101C40000F91FF90EF900895EF92FF920F931F93E3
:101C50007B018C0120E030E040E05FE40E94D01185
:101C600088238CF0C801B70120E030E040E05FE459
:101C70000E949C0F0E948E129B01AC0120503040AC
:101C80004040504806C0C801B7010E948E129B0117
:101C9000AC01B901CA011F910F91FF90EF90089517
:101CA000A0E0B0E0E6E5FEE00C947817DC012B0143
:101CB000FA019C91923008F439C1EB01888182309D
:101CC00008F433C1943069F4843009F02FC11196BF
:101CD0009C9111978981981709F428C1ADE2B1E070
:101CE00025C1843009F421C18230A9F4923009F071
:101CF0001DC19A01AD0188E0EA010990AE01E90138
:101D000009929E018150C1F7E201898111969C914F
:101D10008923818308C1923009F407C112962D905E
:101D20003C901397EB018A819B811496AD90BD90F6
:101D3000CD90DC901797EC80FD800E811F81910182
:101D4000281B390BB90137FF04C066277727621BB0
:101D5000730B603271050CF061C0121613066CF53E
:101D600037014801062E04C09694879477946794AF
:101D70000A94D2F721E030E040E050E004C0220FA6
:101D8000331F441F551F6A95D2F721503040404001
:101D900050402E213F21402351232115310541057B
:101DA000510521F021E030E040E050E079018A0166
:101DB000E628F728082919293CC0232BD1F1260E43
:101DC000371E35014601062E04C0969487947794F9
:101DD00067940A94D2F721E030E040E050E004C07C
:101DE000220F331F441F551F6A95D2F721503040F0
:101DF000404050402A213B214C215D2121153105D5
:101E00004105510521F021E030E040E050E059016A
:101E10006A01A628B728C828D9280BC082159305BF
:101E20002CF01C01AA24BB24650103C0EE24FF246E
:101E3000870111969C91D20111968C91981709F403
:101E400045C0992339F0A80197012A193B094C098B
:101E50005D0906C0A60195012E193F09400B510BE3
:101E600057FD08C011823382228224833583468342
:101E700057831DC081E0818333822282882799277E
:101E8000DC01821B930BA40BB50B84839583A68383
:101E9000B7830DC0220F331F441F551F2483358382
:101EA0004683578382819381019793838283248120
:101EB000358146815781DA01C9010197A109B1092C
:101EC0008F5F9F4FAF4FBF4328F30BC09183338287
:101ED0002282EA0CFB1C0C1D1D1DE482F582068388
:101EE000178383E08083248135814681578157FFA2
:101EF0001AC0C901AA2797FDA095BA2F81709070CA
:101F0000A070B0705695479537952795822B932BE7
:101F1000A42BB52B84839583A683B7838281938179
:101F2000019693838283DF0101C0D201CD01CDB739
:101F3000DEB7E2E10C949417A0E2B0E0E2EAFFE041
:101F40000C94841769837A838B839C832D833E83CF
:101F50004F835887E9E0EE2EF12CEC0EFD1ECE01EA
:101F60000196B7010E9406148E010F5E1F4FCE012D
:101F70000596B8010E9406148A8991E089278A8B08
:101F8000C701B801AE01475E5F4F0E94500E0E942C
:101F90003113A096E6E00C94A017A0E2B0E0E3EDC8
:101FA000FFE00C94841769837A838B839C832D8351
:101FB0003E834F835887F9E0EF2EF12CEC0EFD1E87
:101FC000CE010196B7010E9406148E010F5E1F4FCD
:101FD000CE010596B8010E940614C701B801AE01F2
:101FE000475E5F4F0E94500E0E943113A096E6E0BC
:101FF0000C94A017A0E2B0E0E0E0F0E10C947817B8
:1020000069837A838B839C832D833E834F83588798
:10201000CE010196BE01675F7F4F0E940614CE017C
:102020000596BE016F5E7F4F0E940614998592301F
:1020300088F089898230C8F0943019F4823051F4E4
:1020400004C0843029F4923081F48DE291E0C6C05E
:10205000923049F420E09A858A89981321E02A87F2
:10206000CE010996BBC0823049F420E09A858A8966
:10207000981321E02A8BCE014196B0C02D843E8476
:102080004F8458886D887E888F88988CEE24FF2432
:102090008701AA24BB24650140E050E060E070E0C5
:1020A000E0E0F0E0C10181709070892BE9F0E60C6E
:1020B000F71C081D191D9A01AB012A0D3B1D4C1D73
:1020C0005D1D80E090E0A0E0B0E0E614F7040805B4
:1020D000190520F481E090E0A0E0B0E0BA01A90188
:1020E000480F591F6A1F7B1FAA0CBB1CCC1CDD1C90
:1020F00097FE08C081E090E0A0E0B0E0A82AB92AED
:10210000CA2ADB2A3196E032F10549F0660C771CC9
:10211000881C991C5694479437942794C3CFFA850A
:10212000EA892B893C898B859C85280F391F2E5F76
:102130003F4F17C0CA0181709070892B61F01695CE
:102140000795F794E79480E090E0A0E0B0E8E82AF3
:10215000F92A0A2B1B2B76956795579547952F5F84
:102160003F4F77FDE7CF0CC0440F551F661F771F09
:1021700017FD4160EE0CFF1C001F111F2150304065
:10218000403090E0590790E0690790E4790760F3E8
:102190002B8F3C8FDB01CA018F779070A070B070DD
:1021A00080349105A105B10561F447FD0AC0E11431
:1021B000F1040105110529F0405C5F4F6F4F7F4F1F
:1021C00040781A8EFE1711F081E08A8F4D8F5E8F56
:1021D0006F8F78A383E0898FCE0149960E943113D7
:1021E000A096E2E10C949417A8E1B0E0EAEFF0E1E8
:1021F0000C94801769837A838B839C832D833E8321
:102200004F835887B9E0EB2EF12CEC0EFD1ECE016A
:102210000196B7010E9406148E010F5E1F4FCE017A
:102220000596B8010E9406142985223008F47EC064
:102230003989323010F4B8017CC08A859A8989279F
:102240008A87243011F0223031F4231709F06EC050
:102250006DE271E06EC0343039F41D861E861F8633
:10226000188A1C861B8604C0323021F484E08987DA
:10227000B7015FC02B853C858B899C89281B390B56
:102280003C872B87ED84FE840F851889AD88BE8836
:10229000CF88D88CEA14FB040C051D0540F4EE0C25
:1022A000FF1C001F111F215030403C872B8720E06E
:1022B00030E040E050E080E090E0A0E0B0E460E09A
:1022C00070E0EA14FB040C051D0540F0282B392BA7
:1022D0004A2B5B2BEA18FB080C091D09B695A7953C
:1022E00097958795EE0CFF1C001F111F6F5F7F4FA6
:1022F0006F31710531F7DA01C9018F779070A070E5
:10230000B07080349105A105B10561F427FD0AC0C4
:10231000E114F1040105110529F0205C3F4F4F4FF6
:102320005F4F20782D873E874F87588BBE01675FB0
:102330007F4FCB010E9431136896EAE00C949C1702
:10234000A8E1B0E0E6EAF1E10C94841769837A83AE
:102350008B839C832D833E834F83588789E0E82EAF
:10236000F12CEC0EFD1ECE010196B7010E94061461
:102370008E010F5E1F4FCE010596B8010E94061414
:102380008985823040F08989823028F0C701B80100
:102390000E947E1401C08FEF6896E6E00C94A017AF
:1023A000A8E1B0E0E6EDF1E10C94841769837A834B
:1023B0008B839C832D833E834F83588789E0E82E4F
:1023C000F12CEC0EFD1ECE010196B7010E94061401
:1023D0008E010F5E1F4FCE010596B8010E940614B4
:1023E0008985823040F08989823028F0C701B801A0
:1023F0000E947E1401C08FEF6896E6E00C94A0174F
:10240000A8E1B0E0E6E0F2E10C94841769837A83F6
:102410008B839C832D833E834F83588789E0E82EEE
:10242000F12CEC0EFD1ECE010196B7010E940614A0
:102430008E010F5E1F4FCE010596B8010E94061453
:102440008985823040F08989823028F0C701B8013F
:102450000E947E1401C081E06896E6E00C94A0170B
:10246000A8E0B0E0E6E3F2E10C9481179B01AC0137
:1024700083E08983DA01C9018827B7FD839599270D
:10248000AA27BB27B82E211531054105510519F49E
:1024900082E089833AC08823A9F0203080E03807A1
:1024A00080E0480780E8580729F460E070E080E0A9
:1024B0009FEC30C0EE24FF248701E21AF30A040BDC
:1024C000150B02C079018A018EE1C82ED12CDC8265
:1024D000CB82ED82FE820F831887C801B7010E946C
:1024E000E21201971816190684F4082E04C0EE0CA7
:1024F000FF1C001F111F0A94D2F7ED82FE820F838A
:102500001887C81AD90ADC82CB82BA82CE0101961A
:102510000E9431132896E9E00C949D17ACE0B0E0DE
:10252000E4E9F2E10C94881769837A838B839C83B6
:10253000CE010196BE016B5F7F4F0E9406148D8114
:10254000823061F1823050F1843021F48E81882311
:1025500051F12EC02F81388537FD20C06E812F317B
:1025600031051CF06623F9F023C08EE190E0821B58
:10257000930B29853A854B855C8504C05695479514
:10258000379527958A95D2F76623B1F050954095F7
:10259000309521953F4F4F4F5F4F0EC020E030E008
:1025A00040E050E009C02FEF3FEF4FEF5FE704C07E
:1025B00020E030E040E050E8B901CA012C96E2E0AA
:1025C0000C94A417EF92FF920F931F937B018C0141
:1025D00080E0E81680E0F80681E0080780E0180750
:1025E00088F48FEFE816F1040105110531F028F0A9
:1025F00088E090E0A0E0B0E017C080E090E0A0E0CC
:10260000B0E012C080E0E81680E0F80680E008073D
:1026100081E0180728F088E190E0A0E0B0E004C075
:1026200080E190E0A0E0B0E020E230E040E050E067
:10263000281B390B4A0B5B0B04C016950795F794C2
:10264000E7948A95D2F7F701EB5CFE4F8081281B57
:10265000310941095109C9011F910F91FF90EF9074
:102660000895DF92EF92FF920F931F93FC01E48095
:10267000F58006811781D1808081823048F480E026
:1026800090E0A0E1B0E0E82AF92A0A2B1B2BA5C0B4
:10269000843009F49FC0823021F4EE24FF248701A6
:1026A00005C0E114F1040105110519F4E0E0F0E0C2
:1026B00096C0628173819FEF623879070CF05BC02E
:1026C00022E83FEF261B370B2A3131052CF020E0A2
:1026D00030E040E050E02AC0B801A701022E04C05B
:1026E00076956795579547950A94D2F781E090E0E3
:1026F000A0E0B0E004C0880F991FAA1FBB1F2A9555
:10270000D2F70197A109B1098E219F21A023B123FE
:102710000097A105B10521F081E090E0A0E0B0E0D4
:102720009A01AB01282B392B4A2B5B2BDA01C9010B
:102730008F779070A070B07080349105A105B105BD
:1027400039F427FF09C0205C3F4F4F4F5F4F04C053
:10275000215C3F4F4F4F5F4FE0E0F0E02030A0E0C2
:102760003A07A0E04A07A0E45A0710F0E1E0F0E0E1
:1027700079018A0127C06038710564F5FB01E158D1
:10278000FF4FD801C7018F779070A070B070803470
:102790009105A105B10539F4E7FE0DC080E490E094
:1027A000A0E0B0E004C08FE390E0A0E0B0E0E80E6D
:1027B000F91E0A1F1B1F17FF05C016950795F794F2
:1027C000E794319687E016950795F794E7948A95F4
:1027D000D1F705C0EE24FF248701EFEFF0E06E2F64
:1027E000679566276795902F9F77D794DD24D794B8
:1027F0008E2F8695492F462B582F5D29B701CA0188
:102800001F910F91FF90EF90DF900895FC01DB0185
:10281000408151812281622F6F7770E0221F222731
:10282000221F9381892F880F822B282F30E0991F38
:102830009927991F11969C93119721153105A9F598
:10284000411551056105710511F482E037C082E838
:102850009FEF13969C938E9312979A01AB0167E0BA
:10286000220F331F441F551F6A95D1F783E08C93C5
:102870000DC0220F331F441F551F12968D919C913E
:102880001397019713969C938E931297203080E0B4
:10289000380780E0480780E4580758F314962D93D2
:1028A0003D934D935C93179708952F3F310579F42D
:1028B000411551056105710519F484E08C93089563
:1028C00064FF03C081E08C9312C01C9210C02F578C
:1028D000304013963C932E93129783E08C9387E0BD
:1028E000440F551F661F771F8A95D1F770641496A1
:1028F0004D935D936D937C93179708951F93DC011F
:10290000FB019C91923008F447C08081823008F42A
:1029100043C0943051F411961C91843099F5818113
:10292000682F70E0611B71093FC0843021F0923044
:1029300031F48230B9F18181882389F12DC011965B
:102940001C9111978230F1F081811817D9F41296F9
:102950002D913C911397828193818217930794F074
:1029600028173907BCF014968D919D910D90BC915C
:10297000A02D2481358146815781281739074A07C0
:102980005B0718F4112341F00AC082179307A407CC
:10299000B50740F4112319F061E070E005C06FEF56
:1029A0007FEF02C060E070E0CB011F910895AEE0C0
:1029B000B0E0EDEDF4E10C9486170D891E8986E0F8
:1029C0008C831A8309838FEF9FE79E838D839E01FB
:1029D000275E3F4FCE0101966F89788DA9010E9435
:1029E000FB142F813885020F131FF80110822E96D9
:1029F000E4E00C94A217ABE0B0E0E1E0F5E10C9468
:102A000078173C012B015A01FC0117821682838141
:102A100081FD03C06FEF7FEFC6C19AE0892E1E01D2
:102A20000894211C311CF3012381F20123FD8591BF
:102A300023FF81912F01882309F4B2C1853239F433
:102A400023FD859123FF81912F01853229F490E0A8
:102A5000B3010E94EE16E7CF982FFF24EE249924AD
:102A6000FFE1FF15D0F09B3269F09C3228F49032E0
:102A700059F0933291F40EC09D3249F0903369F4CD
:102A800041E024C052E0F52A84E0F82A28C098E00A
:102A9000F92A25C0E0E1FE2A22C0F7FC29C0892FCF
:102AA00080538A3070F4F6FE05C0989C902C112457
:102AB000980E15C0E89CE02C1124E80EF0E2FF2AE5
:102AC0000EC09E3229F4F6FC6BC140E4F42A07C024
:102AD0009C3619F450E8F52A02C0983649F4F20100
:102AE00023FD959123FF91912F01992309F0B8CFF0
:102AF000892F8554833018F08052833038F444E0B5
:102B000050E0A40EB51E5FE359830FC0933631F039
:102B1000933779F0933509F056C020C0F5018081D4
:102B2000898342E050E0A40EB51E610101E010E08F
:102B300012C0F501C080D180F6FC03C06FEF7FEFBB
:102B400002C0692D70E042E050E0A40EB51EC6013F
:102B50000E94E3168C015FE7F52214C0F501C080E6
:102B6000D180F6FC03C06FEF7FEF02C0692D70E0EB
:102B700042E050E0A40EB51EC6010E94D8168C019A
:102B800050E8F52AF3FE07C01AC080E290E0B301D6
:102B90000E94EE16EA948E2D90E008171907A8F30C
:102BA0000EC0F601F7FC8591F7FE81916F0190E070
:102BB000B3010E94EE16E110EA9401501040011595
:102BC000110579F7EAC0943611F0993669F5F7FEE8
:102BD00008C0F501208131814281538184E090E079
:102BE0000AC0F501808191819C01442737FD409501
:102BF000542F82E090E0A80EB91E9FE6F92257FFFD
:102C000009C050954095309521953F4F4F4F5F4FEC
:102C1000E0E8FE2ACA01B901A1012AE030E00E94E1
:102C20001A17D82ED21840C0953729F41F2D1F7EB1
:102C30002AE030E01DC01F2D197F9F3661F09037CC
:102C400020F4983509F0ACC00FC0903739F09837B0
:102C500009F0A6C004C028E030E00AC0106114FDED
:102C6000146020E130E004C014FD166020E132E081
:102C700017FF08C0F501608171818281938144E072
:102C800050E008C0F50180819181BC0180E090E0B6
:102C900042E050E0A40EB51EA1010E941A17D82EE2
:102CA000D2188FE7F82EF122F6FE0BC05EEFF52268
:102CB000D91438F4F4FE07C0F2FC05C08FEEF822F8
:102CC00002C01D2D01C0192DF4FE0DC0FE01ED0D39
:102CD000F11D8081803319F499EEF92208C01F5F3D
:102CE000F2FE05C003C08F2D867809F01F5F0F2DFF
:102CF000F3FC14C0F0FE0FC01E1510F09D2C0BC08D
:102D00009D2C9E0C911A1E2D06C080E290E0B3010E
:102D10000E94EE161F5F1E15C0F304C01E1510F4AE
:102D2000E11A01C0EE2404FF0FC080E390E0B3017C
:102D30000E94EE1602FF1DC001FD03C088E790E06F
:102D40000EC088E590E00BC0802F867891F001FFDF
:102D500002C08BE201C080E2F7FC8DE290E0B3019B
:102D60000E94EE1606C080E390E0B3010E94EE16CA
:102D70009A94D914C0F3DA94F101ED0DF11D80811C
:102D800090E0B3010E94EE16DD20A9F706C080E2B4
:102D900090E0B3010E94EE16EA94EE20C1F743CE14
:102DA000F30166817781CB012B96E2E10C949417B5
:102DB000FC010590615070400110D8F78095909506
:102DC0008E0F9F1F0895FC0161507040019001100B
:102DD000D8F7809590958E0F9F1F08950F931F939E
:102DE000CF93DF938C01EB018B8181FF1BC082FFAE
:102DF0000DC02E813F818C819D812817390764F495
:102E0000E881F9810193F983E88306C0E885F985B3
:102E1000802F0995892B31F48E819F8101969F83A4
:102E20008E8302C00FEF1FEFC801DF91CF911F917A
:102E30000F910895FA01AA27283051F1203181F12C
:102E4000E8946F936E7F6E5F7F4F8F4F9F4FAF4FB2
:102E5000B1E03ED0B4E03CD0670F781F891F9A1FC5
:102E6000A11D680F791F8A1F911DA11D6A0F711D79
:102E7000811D911DA11D20D009F468943F912AE085
:102E8000269F11243019305D3193DEF6CF0108956D
:102E9000462F4770405D4193B3E00FD0C9F7F6CF9E
:102EA000462F4F70405D4A3318F0495D31FD405266
:102EB000419302D0A9F7EACFB4E0A69597958795FC
:102EC00077956795BA95C9F70097610571050895DB
:102ED0009B01AC010A2E0694579547953795279587
:102EE000BA95C9F7620F731F841F951FA01D08951F
:102EF0002F923F924F925F926F927F928F929F920A
:102F0000AF92BF92CF92DF92EF92FF920F931F93F7
:102F1000CF93DF93CDB7DEB7CA1BDB0B0FB6F894A8
:102F2000DEBF0FBECDBF09942A88398848885F84E8
:102F30006E847D848C849B84AA84B984C884DF8059
:102F4000EE80FD800C811B81AA81B981CE0FD11D3D
:102F50000FB6F894DEBF0FBECDBFED010895F89413
:022F6000FFCFA1
:102F6200200000000000000000000000000000003F
:102F720000000000000000000000004E32202D2062
:102F82004F4B00256325632564000400F800000010
:102F92000000000000000102020303030304040412
:102FA20004040404040505050505050505050505D4
:102FB20005050505050606060606060606060606B4
:102FC200060606060606060606060606060606069F
:102FD2000606060606070707070707070707070784
:102FE200070707070707070707070707070707076F
:102FF200070707070707070707070707070707075F
:10300200070707070707070707070707070707074E
:103012000707070707080808080808080808080833
:10302200080808080808080808080808080808081E
:10303200080808080808080808080808080808080E
:1030420008080808080808080808080808080808FE
:1030520008080808080808080808080808080808EE
:1030620008080808080808080808080808080808DE
:1030720008080808080808080808080808080808CE
:1030820008080808080808080808080808080808BE
:0630920008080808080010
:00000001FF
