:100000000C9438000C9455000C9455000C94550039
:100010000C9455000C9455000C9455000C9455000C
:100020000C9455000C9455000C9455000C945500FC
:100030000C9455000C9455000C9455000C945500EC
:100040000C9455000C9455000C9455000C945500DC
:100050000C9455000C949D010C9455000C94550083
:100060000C9455000C9455000C9455000C945500BC
:1000700011241FBECFEFD4E0DEBFCDBF11E0A0E062
:10008000B1E0E6E6FCE102C005900D92A234B107B2
:10009000D9F711E0A2E4B1E001C01D92AF35B1077C
:1000A000E1F70E9457000C94310E0C940000DF938E
:1000B000CF93CDB7DEB72E970FB6F894DEBF0FBE45
:1000C000CDBF80E895E20E94DF000E94E0010E941F
:1000D000D60288E70E94E40280E090E0AAEFB3E451
:1000E0008B879C87AD87BE876B857C858D859E853C
:1000F0002AE93BE949E954E40E941906DC01CB01F5
:100100008F839887A987BA876F81788589859A8533
:1001100020E030E040E85FE30E94730788232CF47E
:1001200081E090E09E838D833FC06F8178858985D3
:100130009A8520E03FEF4FE757E40E941307181617
:100140004CF56B857C858D859E8520E030E040E216
:1001500051E40E941906DC01CB01BC01CD010E94D3
:100160004304DC01CB019E838D830FC08AE790E0BE
:100170009C838B838B819C810197F1F79C838B837C
:100180008D819E8101979E838D838D819E810097B5
:1001900069F79FCF6F81788589859A850E9443048E
:1001A000DC01CB019E838D838D819E819A8389831F
:1001B00089819A810197F1F79A8389838ACFDF93A6
:1001C000CF93CDB7DEB727970FB6F894DEBF0FBE3B
:1001D000CDBF9F838E8378948E819F81CC01A0E0D8
:1001E000B0E08A839B83AC83BD838A819B81AC8191
:1001F000BD81880F991FAA1FBB1F880F991FAA1FB7
:10020000BB1F880F991FAA1FBB1F880F991FAA1F0A
:10021000BB1F9C01AD018AEF90E0ABE4B0E0BC01F4
:10022000CD010E94D80DDA01C9010197A109B109D8
:100230008A839B83AC83BD831982109254011092F0
:10024000430110924201E0E4F0E08A819B81AC819D
:10025000BD81892F9A2FAB2FBB278083E9E2F0E085
:100260008A818083EAE2F0E088E180838981866088
:100270008983898180628983898180688983E0E4B8
:10028000F0E08981808385E591E02CE731E0B901D8
:100290000E949D0980E090E027960FB6F894DEBF9B
:1002A0000FBECDBFCF91DF910895DF93CF9300D0E4
:1002B0000F92CDB7DEB789837B836A8389818A30C9
:1002C00031F42A813B818DE0B9010E945501EBE2B6
:1002D000F0E08081882F90E0807290700097B9F3F1
:1002E000ECE2F0E08981808380E090E00F900F9055
:1002F0000F90CF91DF910895DF93CF9300D00F92AD
:10030000CDB7DEB79B838A83EBE2F0E08081882360
:10031000DCF7ECE2F0E08081898389818D3011F493
:100320008AE08983ECE2F0E08081882F90E00F90F2
:100330000F900F90CF91DF9108951F920F920FB6FB
:100340000F9211248F939F93AF93BF93EF93FF93DB
:10035000DF93CF93CDB7DEB7809142018823E1F0E0
:10036000ACE2B0E080915401882F90E0FC01EC5B9E
:10037000FE4F80818C93809154018F5F8093540154
:1003800080915401803110F010925401809142010B
:1003900081508093420107C0AAE2B0E0EAE2F0E0B7
:1003A00080818F7D8C93CF91DF91FF91EF91BF91F1
:1003B000AF919F918F910F900FBE0F901F90189546
:1003C000DF93CF93CDB7DEB7A5E5B0E0E5E5F0E08C
:1003D0008081806C8C93A6E5B0E0E6E5F0E080815A
:1003E00084608C93A0E5B0E0E0E5F0E0808180627D
:1003F0008C93CF91DF910895DF93CF93CDB7DEB784
:1004000065970FB6F894DEBF0FBECDBF80E090E1D8
:100410009D8B8C8B80E091E00E94FE091B8A1A8ADA
:1004200080C02A893B898C899D89FC01E20FF31FDA
:1004300083E8808380E090E0A0E0B0E48B879C8735
:10044000AD87BE876B857C858D859E8520E030E0FD
:100450004AE753E40E941906DC01CB018F83988799
:10046000A987BA876F81788589859A8520E030E0F1
:1004700040E85FE30E94730788232CF481E090E05A
:100480009E838D833FC06F81788589859A8520E022
:100490003FEF4FE757E40E94130718164CF56B85A2
:1004A0007C858D859E8520E030E040E251E40E940D
:1004B0001906DC01CB01BC01CD010E944304DC0123
:1004C000CB019E838D830FC089E190E09C838B8359
:1004D0008B819C810197F1F79C838B838D819E8119
:1004E00001979E838D838D819E81009769F714C04B
:1004F0006F81788589859A850E944304DC01CB0150
:100500009E838D838D819E819A83898389819A813F
:100510000197F1F79A8389838A899B8901969B8B3E
:100520008A8B8A899B8928E0803092070CF479CFE6
:100530001B8A1A8A30C02A893B898C899D89FC01D3
:10054000E20FF31F8081898B8989882F90E0988B37
:100550008F872A893B898C899D89FC01E20FF31FD3
:100560008081833899F000D000D0EDB7FEB7319686
:100570008CE091E0918380838A899B899383828335
:100580000E94E9090F900F900F900F908A899B8924
:1005900001969B8B8A8B8A899B8928E08030920701
:1005A00054F283E291E00E94FE09FFCFDF93CF93E4
:1005B000CDB7DEB7E7E3F0E01082E8E3F0E08FEFDD
:1005C0008083CF91DF910895DF93CF93CDB7DEB7CE
:1005D000A1970FB6F894DEBF0FBECDBF8F8F80E01E
:1005E00098E19E8F8D8F8F8D883709F097C08D8D04
:1005F0009E8DFC01E150FF4F84E0808380E090E01D
:10060000A0E0B0E4898F9A8FAB8FBC8F698D7A8D13
:100610008B8D9C8D2AE93BE949E954E40E94190637
:10062000DC01CB018D8B9E8BAF8BB88F6D897E8962
:100630008F89988D20E030E040E85FE30E947307E7
:1006400088232CF481E090E09C8B8B8B3FC06D89DC
:100650007E898F89988D20E03FEF4FE757E40E9415
:10066000130718164CF5698D7A8D8B8D9C8D20E0C3
:1006700030E040E251E40E941906DC01CB01BC01EC
:10068000CD010E944304DC01CB019C8B8B8B0FC0FE
:100690008AE790E09A8B898B89899A890197F1F78B
:1006A0009A8B898B8B899C8901979C8B8B8B8B89EF
:1006B0009C89009769F714C06D897E898F89988D10
:1006C0000E944304DC01CB019C8B8B8B8B899C8922
:1006D000988B8F878F8598890197F1F7988B8F87F3
:1006E000ED8DFE8D8081282F30E000D000D0EDB759
:1006F000FEB731968FE291E091838083338322832A
:100700000E94E9090F900F900F900F90ED8DFE8DD4
:100710008081282F30E039A328A39FC08F8D89378F
:1007200009F097C08D8D9E8DFC01E150FF4F86E052
:10073000808380E090E0A0E0B0E48B879C87AD8769
:10074000BE876B857C858D859E852AE93BE949E9D5
:1007500054E40E941906DC01CB018F839887A98796
:10076000BA876F81788589859A8520E030E040E8F6
:100770005FE30E94730788232CF481E090E09E835E
:100780008D833FC06F81788589859A8520E03FEF12
:100790004FE757E40E94130718164CF56B857C85CC
:1007A0008D859E8520E030E040E251E40E941906EC
:1007B000DC01CB01BC01CD010E944304DC01CB0173
:1007C0009E838D830FC08AE790E09C838B838B810F
:1007D0009C810197F1F79C838B838D819E8101978A
:1007E0009E838D838D819E81009769F714C06F81F0
:1007F000788589859A850E944304DC01CB019E831C
:100800008D838D819E819A83898389819A810197C5
:10081000F1F79A838983ED8DFE8D8081282F30E05A
:1008200000D000D0EDB7FEB731968FE291E0918312
:100830008083338322830E94E9090F900F900F90E9
:100840000F90ED8DFE8D8081282F30E039A328A3F5
:1008500004C08FEF9FEF99A388A388A199A1A196C7
:100860000FB6F894DEBF0FBECDBFCF91DF910895D4
:10087000DF93CF93CDB7DEB7E6E3F0E080818670FB
:10088000CF91DF910895EF92FF920F931F937B0119
:100890008C0120E030E040E05FE40E9443078823C1
:1008A0008CF0C801B70120E030E040E05FE40E9436
:1008B000BB050E94A3079B01AC0120503040404083
:1008C000504806C0C801B7010E94A3079B01AC01B4
:1008D000B901CA011F910F91FF90EF900895A0E018
:1008E000B0E0E5E7F4E00C94FA0DDC012B01FA012D
:1008F0009C91923008F439C1EB018881823008F470
:1009000033C1943069F4843009F02FC111969C9161
:1009100011978981981709F428C1A3E3B1E025C193
:10092000843009F421C18230A9F4923009F01DC14C
:100930009A01AD0188E0EA010990AE01E90109924E
:100940009E018150C1F7E201898111969C91892312
:10095000818308C1923009F407C112962D903C9012
:100960001397EB018A819B811496AD90BD90CD9039
:10097000DC901797EC80FD800E811F819101281B70
:10098000390BB90137FF04C066277727621B730B49
:10099000603271050CF061C0121613066CF5370158
:1009A0004801062E04C096948794779467940A941D
:1009B000D2F721E030E040E050E004C0220F331FC6
:1009C000441F551F6A95D2F7215030404040504097
:1009D0002E213F2140235123211531054105510589
:1009E00021F021E030E040E050E079018A01E62882
:1009F000F728082919293CC0232BD1F1260E371ED0
:100A000035014601062E04C0969487947794679426
:100A10000A94D2F721E030E040E050E004C0220F19
:100A2000331F441F551F6A95D2F721503040404074
:100A300050402A213B214C215D21211531054105E2
:100A4000510521F021E030E040E050E059016A0119
:100A5000A628B728C828D9280BC0821593052CF0E2
:100A60001C01AA24BB24650103C0EE24FF248701D6
:100A700011969C91D20111968C91981709F445C05A
:100A8000992339F0A80197012A193B094C095D09FE
:100A900006C0A60195012E193F09400B510B57FDC9
:100AA00008C0118233822282248335834683578390
:100AB0001DC081E081833382228288279927DC014F
:100AC000821B930BA40BB50B84839583A683B783FA
:100AD0000DC0220F331F441F551F248335834683C7
:100AE0005783828193810197938382832481358107
:100AF00046815781DA01C9010197A109B1098F5FC8
:100B00009F4FAF4FBF4328F30BC0918333822282A4
:100B1000EA0CFB1C0C1D1D1DE482F5820683178365
:100B200083E08083248135814681578157FF1AC035
:100B3000C901AA2797FDA095BA2F81709070A07067
:100B4000B0705695479537952795822B932BA42BFC
:100B5000B52B84839583A683B78382819381019685
:100B600093838283DF0101C0D201CD01CDB7DEB70F
:100B7000E2E10C94160EA0E2B0E0E1ECF5E00C949A
:100B8000060E69837A838B839C832D833E834F83F8
:100B90005887E9E0EE2EF12CEC0EFD1ECE010196F9
:100BA000B7010E94CC088E010F5E1F4FCE01059643
:100BB000B8010E94CC088A8991E089278A8BC701F5
:100BC000B801AE01475E5F4F0E946F040E94F707B5
:100BD000A096E6E00C94220EA0E2B0E0E2EFF5E091
:100BE0000C94060E69837A838B839C832D833E83CA
:100BF0004F835887F9E0EF2EF12CEC0EFD1ECE014D
:100C00000196B7010E94CC088E010F5E1F4FCE01E6
:100C10000596B8010E94CC08C701B801AE01475E35
:100C20005F4F0E946F040E94F707A096E6E00C94C5
:100C3000220EA0E2B0E0EFE1F6E00C94FA0D698339
:100C40007A838B839C832D833E834F835887CE0189
:100C50000196BE01675F7F4F0E94CC08CE010596CA
:100C6000BE016F5E7F4F0E94CC089985923088F05C
:100C700089898230C8F0943019F4823051F404C06C
:100C8000843029F4923081F483E391E0C6C092303D
:100C900049F420E09A858A89981321E02A87CE01B9
:100CA0000996BBC0823049F420E09A858A8998135E
:100CB00021E02A8BCE014196B0C02D843E844F8422
:100CC00058886D887E888F88988CEE24FF24870151
:100CD000AA24BB24650140E050E060E070E0E0E061
:100CE000F0E0C10181709070892BE9F0E60CF71CEF
:100CF000081D191D9A01AB012A0D3B1D4C1D5D1DE0
:100D000080E090E0A0E0B0E0E614F70408051905E3
:100D100020F481E090E0A0E0B0E0BA01A901480F22
:100D2000591F6A1F7B1FAA0CBB1CCC1CDD1C97FE25
:100D300008C081E090E0A0E0B0E0A82AB92ACA2A61
:100D4000DB2A3196E032F10549F0660C771C881CED
:100D5000991C5694479437942794C3CFFA85EA890F
:100D60002B893C898B859C85280F391F2E5F3F4F2F
:100D700017C0CA0181709070892B61F01695079594
:100D8000F794E79480E090E0A0E0B0E8E82AF92A40
:100D90000A2B1B2B76956795579547952F5F3F4FED
:100DA00077FDE7CF0CC0440F551F661F771F17FD57
:100DB0004160EE0CFF1C001F111F215030404030DD
:100DC00090E0590790E0690790E4790760F32B8F72
:100DD0003C8FDB01CA018F779070A070B0708034B7
:100DE0009105A105B10561F447FD0AC0E114F104C4
:100DF0000105110529F0405C5F4F6F4F7F4F407830
:100E00001A8EFE1711F081E08A8F4D8F5E8F6F8FE3
:100E100078A383E0898FCE0149960E94F707A096B8
:100E2000E2E10C94160EA8E1B0E0E9E1F7E00C94E1
:100E3000060E69837A838B839C832D833E834F8345
:100E4000588789E0E82EF12CEC0EFD1ECE010196AC
:100E5000B7010E94CC088E010F5E1F4FCE01059690
:100E6000B8010E94CC088985823040F0898982309F
:100E700028F0C701B8010E94440901C08FEF6896AD
:100E8000E6E00C94220EA8E1B0E0E9E4F7E00C946F
:100E9000060E69837A838B839C832D833E834F83E5
:100EA000588789E0E82EF12CEC0EFD1ECE0101964C
:100EB000B7010E94CC088E010F5E1F4FCE01059630
:100EC000B8010E94CC088985823040F0898982303F
:100ED00028F0C701B8010E94440901C08FEF68964D
:100EE000E6E00C94220EA8E1B0E0E9E7F7E00C940C
:100EF000060E69837A838B839C832D833E834F8385
:100F0000588789E0E82EF12CEC0EFD1ECE010196EB
:100F1000B7010E94CC088E010F5E1F4FCE010596CF
:100F2000B8010E94CC088985823040F089898230DE
:100F300028F0C701B8010E94440901C081E0689609
:100F4000E6E00C94220EACE0B0E0E9EAF7E00C94A5
:100F50000A0E69837A838B839C83CE010196BE013E
:100F60006B5F7F4F0E94CC088D81823061F18230AF
:100F700050F1843021F48E81882351F12EC02F81CD
:100F8000388537FD20C06E812F3131051CF0662376
:100F9000F9F023C08EE190E0821B930B29853A85FE
:100FA0004B855C8504C056954795379527958A955E
:100FB000D2F76623B1F050954095309521953F4F7B
:100FC0004F4F5F4F0EC020E030E040E050E009C0DE
:100FD0002FEF3FEF4FEF5FE704C020E030E040E04D
:100FE00050E8B901CA012C96E2E00C94260EDF927B
:100FF000EF92FF920F931F93FC01E480F58006812E
:101000001781D1808081823048F480E090E0A0E1B7
:10101000B0E0E82AF92A0A2B1B2BA5C0843009F47A
:101020009FC0823021F4EE24FF24870105C0E11423
:10103000F1040105110519F4E0E0F0E096C06281C9
:1010400073819FEF623879070CF05BC022E83FEFB5
:10105000261B370B2A3131052CF020E030E040E030
:1010600050E02AC0B801A701022E04C0769567950A
:10107000579547950A94D2F781E090E0A0E0B0E060
:1010800004C0880F991FAA1FBB1F2A95D2F701978A
:10109000A109B1098E219F21A023B1230097A105A9
:1010A000B10521F081E090E0A0E0B0E09A01AB0151
:1010B000282B392B4A2B5B2BDA01C9018F779070D3
:1010C000A070B07080349105A105B10539F427FFF7
:1010D00009C0205C3F4F4F4F5F4F04C0215C3F4F22
:1010E0004F4F5F4FE0E0F0E02030A0E03A07A0E093
:1010F0004A07A0E45A0710F0E1E0F0E079018A0124
:1011000027C06038710564F5FB01E158FF4FD80135
:10111000C7018F779070A070B07080349105A105E1
:10112000B10539F4E7FE0DC080E490E0A0E0B0E046
:1011300004C08FE390E0A0E0B0E0E80EF91E0A1FC3
:101140001B1F17FF05C016950795F794E794319676
:1011500087E016950795F794E7948A95D1F705C02F
:10116000EE24FF248701EFEFF0E06E2F67956627EE
:101170006795902F9F77D794DD24D7948E2F8695EF
:10118000492F462B582F5D29B701CA011F910F9196
:10119000FF90EF90DF900895FC01DB0140815181C9
:1011A0002281622F6F7770E0221F2227221F9381F6
:1011B000892F880F822B282F30E0991F9927991F9C
:1011C00011969C93119721153105A9F541155105EB
:1011D0006105710511F482E037C082E89FEF139634
:1011E0009C938E9312979A01AB0167E0220F331FF5
:1011F000441F551F6A95D1F783E08C930DC0220FD1
:10120000331F441F551F12968D919C911397019780
:1012100013969C938E931297203080E0380780E0DD
:10122000480780E4580758F314962D933D934D9347
:101230005C93179708952F3F310579F441155105B7
:101240006105710519F484E08C93089564FF03C06F
:1012500081E08C9312C01C9210C02F57304013961F
:101260003C932E93129783E08C9387E0440F551F95
:10127000661F771F8A95D1F7706414964D935D931E
:101280006D937C93179708951F93DC01FB019C914C
:10129000923008F447C08081823008F443C0943013
:1012A00051F411961C91843099F58181682F70E07A
:1012B000611B71093FC0843021F0923031F48230DB
:1012C000B9F18181882389F12DC011961C91119764
:1012D0008230F1F081811817D9F412962D913C914A
:1012E0001397828193818217930794F02817390707
:1012F000BCF014968D919D910D90BC91A02D2481F0
:10130000358146815781281739074A075B0718F44A
:10131000112341F00AC082179307A407B50740F4D0
:10132000112319F061E070E005C06FEF7FEF02C09C
:1013300060E070E0CB011F9108950F931F93CF934E
:10134000DF938C01EB01009731F46115710519F4FD
:1013500020E030E038C081E090E06EE070E00E9474
:10136000100CFC019C01009771F180E883832097A9
:1013700071F0D387C28781E8838380915501909172
:101380005601892B21F4F0935601E0935501011584
:101390001105C9F011870087838182608383809162
:1013A000570190915801892B71F4F0935801E09303
:1013B00057018091590190915A01892B21F4F093A2
:1013C0005A01E0935901C901DF91CF911F910F910B
:1013D0000895A0E0B0E0EFEEF9E00C940A0EFE01F3
:1013E0003596619171918091570190915801AF01AB
:1013F0000E94330A2096E2E00C94260E0F931F936E
:10140000CF93DF938C01E0915701F09158018381D4
:1014100081FF21C0C0E0D0E00DC0E0915701F09104
:10142000580120853185BF01F9010995892B11F0FB
:10143000CFEFDFEFF80181918F01882371F7E09101
:101440005701F0915801208531858AE0BF01F901EB
:101450000995892B11F0CFEFDFEFCE01DF91CF910E
:101460001F910F910895ABE0B0E0E9E3FAE00C942E
:10147000FA0D3C012B015A01FC011782168283816F
:1014800081FD03C06FEF7FEFC6C19AE0892E1E0178
:101490000894211C311CF3012381F20123FD859165
:1014A00023FF81912F01882309F4B2C1853239F4D9
:1014B00023FD859123FF81912F01853229F490E04E
:1014C000B3010E944E0DE7CF982FFF24EE249924FC
:1014D000FFE1FF15D0F09B3269F09C3228F4903286
:1014E00059F0933291F40EC09D3249F0903369F473
:1014F00041E024C052E0F52A84E0F82A28C098E0B0
:10150000F92A25C0E0E1FE2A22C0F7FC29C0892F74
:1015100080538A3070F4F6FE05C0989C902C1124FC
:10152000980E15C0E89CE02C1124E80EF0E2FF2A8A
:101530000EC09E3229F4F6FC6BC140E4F42A07C0C9
:101540009C3619F450E8F52A02C0983649F4F201A5
:1015500023FD959123FF91912F01992309F0B8CF95
:10156000892F8554833018F08052833038F444E05A
:1015700050E0A40EB51E5FE359830FC0933631F0DF
:10158000933779F0933509F056C020C0F50180817A
:10159000898342E050E0A40EB51E610101E010E035
:1015A00012C0F501C080D180F6FC03C06FEF7FEF61
:1015B00002C0692D70E042E050E0A40EB51EC601E5
:1015C0000E94430D8C015FE7F52214C0F501C08035
:1015D000D180F6FC03C06FEF7FEF02C0692D70E091
:1015E00042E050E0A40EB51EC6010E94310D8C01F0
:1015F00050E8F52AF3FE07C01AC080E290E0B3017C
:101600000E944E0DEA948E2D90E008171907A8F35A
:101610000EC0F601F7FC8591F7FE81916F0190E015
:10162000B3010E944E0DE110EA94015010400115E3
:10163000110579F7EAC0943611F0993669F5F7FE8D
:1016400008C0F501208131814281538184E090E01E
:101650000AC0F501808191819C01442737FD4095A6
:10166000542F82E090E0A80EB91E9FE6F92257FFA2
:1016700009C050954095309521953F4F4F4F5F4F92
:10168000E0E8FE2ACA01B901A1012AE030E00E9487
:101690007A0DD82ED21840C0953729F41F2D1F7E01
:1016A0002AE030E01DC01F2D197F9F3661F0903772
:1016B00020F4983509F0ACC00FC0903739F0983756
:1016C00009F0A6C004C028E030E00AC0106114FD93
:1016D000146020E130E004C014FD166020E132E027
:1016E00017FF08C0F501608171818281938144E018
:1016F00050E008C0F50180819181BC0180E090E05C
:1017000042E050E0A40EB51EA1010E947A0DD82E31
:10171000D2188FE7F82EF122F6FE0BC05EEFF5220D
:10172000D91438F4F4FE07C0F2FC05C08FEEF8229D
:1017300002C01D2D01C0192DF4FE0DC0FE01ED0DDE
:10174000F11D8081803319F499EEF92208C01F5FE2
:10175000F2FE05C003C08F2D867809F01F5F0F2DA4
:10176000F3FC14C0F0FE0FC01E1510F09D2C0BC032
:101770009D2C9E0C911A1E2D06C080E290E0B301B4
:101780000E944E0D1F5F1E15C0F304C01E1510F4FD
:10179000E11A01C0EE2404FF0FC080E390E0B30122
:1017A0000E944E0D02FF1DC001FD03C088E790E0BE
:1017B0000EC088E590E00BC0802F867891F001FF85
:1017C00002C08BE201C080E2F7FC8DE290E0B30141
:1017D0000E944E0D06C080E390E0B3010E944E0DC2
:1017E0009A94D914C0F3DA94F101ED0DF11D8081C2
:1017F00090E0B3010E944E0DDD20A9F706C080E203
:1018000090E0B3010E944E0DEA94EE20C1F743CE62
:10181000F30166817781CB012B96E2E10C94160EE1
:101820000F931F93CF93DF93689F8001699F100DE3
:10183000789F100D1124C8010E942C0CEC01009718
:1018400029F060E070E0A8010E943C0DCE01DF911C
:10185000CF911F910F910895CF93DF93BC018230F8
:10186000910510F462E070E0A0915D01B0915E011D
:10187000ED01E0E0F0E040E050E021C08881998196
:101880008617970769F48A819B81309719F09383B3
:10189000828304C090935E0180935D01FE0134C099
:1018A0006817790738F44115510519F08417950721
:1018B00008F4AC01FE018A819B819C01E90120971B
:1018C000E9F641155105A9F1CA01861B970B04974A
:1018D00008F4BA01E0E0F0E02AC08D919C911197E4
:1018E00084179507F9F46417750781F412968D91A2
:1018F0009C911397309719F09383828304C090933F
:101900005E0180935D01FD0132964FC0CA01861BC6
:10191000970BFD01E80FF91F6193719302978D9367
:101920009C9343C0FD01828193819C01D901109752
:10193000A1F680915B0190915C01892B41F480912B
:101940003D0190913E0190935C0180935B01409139
:101950003F01509140014115510541F44DB75EB72B
:1019600080913B0190913C01481B590B20915B01F8
:1019700030915C0124173507B0F4CA01821B930B28
:101980008617970780F0AB014E5F5F4F841795076E
:1019900050F0420F531F50935C0140935B01F901DB
:1019A0006193719302C0E0E0F0E0CF01DF91CF914D
:1019B0000895CF93DF93009709F450C0EC0122976C
:1019C0001B821A82A0915D01B0915E01109709F10E
:1019D00040E050E0AC17BD0708F1BB83AA83FE01CD
:1019E00021913191E20FF31FAE17BF0779F48D916A
:1019F0009C911197280F391F2E5F3F4F3983288301
:101A000012968D919C9113979B838A834115510562
:101A100071F4D0935E01C0935D0120C012968D9148
:101A20009C911397AD01009711F0DC01D3CFFA011F
:101A3000D383C28321913191E20FF31FCE17DF07C9
:101A400069F488819981280F391F2E5F3F4FFA0171
:101A5000318320838A819B8193838283DF91CF911D
:101A60000895FC010590615070400110D8F78095F1
:101A700090958E0F9F1F0895DC0101C06D9341501A
:101A80005040E0F70895FC01615070400190011052
:101A9000D8F7809590958E0F9F1F08950F931F93F1
:101AA000CF93DF938C01EB018B8181FF1BC082FF01
:101AB0000DC02E813F818C819D812817390764F4E8
:101AC000E881F9810193F983E88306C0E885F98507
:101AD000802F0995892B31F48E819F8101969F83F8
:101AE0008E8302C00FEF1FEFC801DF91CF911F91CE
:101AF0000F910895FA01AA27283051F1203181F180
:101B0000E8946F936E7F6E5F7F4F8F4F9F4FAF4F05
:101B1000B1E03ED0B4E03CD0670F781F891F9A1F18
:101B2000A11D680F791F8A1F911DA11D6A0F711DCC
:101B3000811D911DA11D20D009F468943F912AE0D8
:101B4000269F11243019305D3193DEF6CF010895C0
:101B5000462F4770405D4193B3E00FD0C9F7F6CFF1
:101B6000462F4F70405D4A3318F0495D31FD4052B9
:101B7000419302D0A9F7EACFB4E0A695979587954F
:101B800077956795BA95C9F700976105710508952E
:101B90009B01AC010A2E06945795479537952795DA
:101BA000BA95C9F7620F731F841F951FA01D089572
:101BB000A1E21A2EAA1BBB1BFD010DC0AA1FBB1F51
:101BC000EE1FFF1FA217B307E407F50720F0A21BC3
:101BD000B30BE40BF50B661F771F881F991F1A9430
:101BE00069F760957095809590959B01AC01BD015A
:101BF000CF0108952F923F924F925F926F927F9202
:101C00008F929F92AF92BF92CF92DF92EF92FF920C
:101C10000F931F93CF93DF93CDB7DEB7CA1BDB0BB8
:101C20000FB6F894DEBF0FBECDBF09942A8839885D
:101C300048885F846E847D848C849B84AA84B98464
:101C4000C884DF80EE80FD800C811B81AA81B98170
:101C5000CE0FD11D0FB6F894DEBF0FBECDBFED0184
:061C60000895F894FFCF87
:101C66005374617274696E672E2E2E004572726F00
:101C7600722121212052414D206E6F2E2030782571
:101C860078200046696E6973686564212121002504
:101C9600630A00000000000000000020005F010051
:021CA60000003C
:00000001FF
