:100000000C9438000C9494040C94E3040C94550064
:100010000C9455000C9455000C9455000C9455000C
:100020000C9455000C9455000C9455000C945500FC
:100030000C9455000C9455000C9455000C945500EC
:100040000C9455000C9455000C9455000C945500DC
:100050000C9455000C9455000C9455000C945500CC
:100060000C9455000C9455000C9455000C945500BC
:1000700011241FBECFEFD4E0DEBFCDBF12E0A0E061
:10008000B1E0ECE3F3E202C005900D92AA39B107AA
:10009000D9F712E0AAE9B2E001C01D92A43AB10773
:1000A000E1F70E9457000C949C110C940000DF9320
:1000B000CF93CDB7DEB70E94C90180E895E20E94D8
:1000C00082000E94AA000E94AB010E94EC000E94E4
:1000D000BC0580E090E0CF91DF9108951F93182F29
:1000E0008A3019F48DE00E946E005D9BFECF1CB932
:1000F00080E090E01F9108955F9BFECF8CB18CB1A2
:1001000090E008959C0140E050E064E0220F331F2E
:10011000441F551F6A95D1F76AEF70E08BE490E0B9
:100120000E944311C901DA010197A109B109292FE0
:100130003A2F4B2F552720BD89B988E18AB986EA25
:1001400080BD8EE690E06CE770E00E94010D80E0DB
:1001500090E0089585B7806C85BF86B7846086BFC0
:1001600080B7806280BF08950F931F93CF93DF9372
:1001700080E091E00E94690DE0E0F0E143E829E9C8
:1001800039E04193C9010197F1F788E1E030F807C0
:10019000C1F7C0E0D0E00CE011E0C050D04F888142
:1001A000C050D041833871F000D000D0EDB7FEB719
:1001B00012830183D483C3830E944D0D0F900F904F
:1001C0000F900F902196F8E0C030DF0731F783E2FF
:1001D00091E00E94690DFFCFDF93CF93CDB7DEB7DB
:1001E00028970FB6F894DEBF0FBECDBFE3E5F0E071
:1001F0008DE0808380EC898380EE8A838FEF8B8310
:100200008FEF8C838FEF8D838FEF8E838FEF8F83B4
:100210008FEF8887E1E5F0E088EC8083A9E5B0E026
:10022000E9E5F0E0808181608C9328960FB6F89420
:10023000DEBF0FBECDBFCF91DF910895DF93CF9387
:1002400000D000D0CDB7DEB78B8380E098E19A83F1
:1002500089838B818837B1F4E981FA8184E08083D6
:10026000E6E3F0E08081882F90E081709070882331
:10027000B9F7E981FA818081882F90E00E946701B7
:100280008C831DC08B818937C1F4E981FA8186E0B6
:100290008083E6E3F0E08081882F90E081709070A9
:1002A0008823B9F7E981FA818081882F90E0805016
:1002B0009F4F0E9467018C8302C08FEF8C838C81DB
:1002C0000F900F900F900F90CF91DF910895DF93D3
:1002D000CF9300D00F92CDB7DEB79B838A83ECE338
:1002E000F0E08081882F90E0827090700097B9F7DD
:1002F000EEE3F0E08A819B8191838083E09A8DB365
:10030000898389810F900F900F90CF91DF9108958D
:10031000DF93CF93CDB7DEB7E6E3F0E08081882F9F
:1003200090E08670907095958795CF91DF910895B4
:10033000DF93CF9300D000D0CDB7DEB79A83898307
:1003400088E590E00E94620D0F900F900F900F9043
:10035000CF91DF91089587B38770886B87BB81E564
:100360008DB988B3886188BB08958FB9779BFECF1C
:10037000089580E48FB9779BFECF779BFECF8FB136
:100380000895823611F4C3980895833709F4C49808
:10039000089588B3886188BB0895DF93CF9300D018
:1003A000CDB7DEB70E9440068FEF898380EE8A8347
:1003B000898160E20E94DB068A8161E20E94DB069D
:1003C00083E0898380EE8A83898160E00E94DB0676
:1003D0008A8161E00E94DB068FEF898380EE8A8349
:1003E000898164E20E94DB068A8165E20E94DB0665
:1003F00019821A82898168E00E94DB068A8169E09D
:100400000E94DB06198280E28A83898160E10E9472
:10041000DB068A8161E10E94DB06198280E48A831F
:10042000898164E10E94DB068A8165E10E94DB0626
:10043000198280E68A83898168E10E94DB068A81CD
:1004400069E10E94DB068FE060EE40E00E948707D2
:1004500080E660E640E20E9487078CE06FE04FEFA5
:100460000E9487070E9471040F900F90CF91DF9137
:100470000895DF93CF93CDB7DEB769970FB6F894A1
:10048000DEBF0FBECDBF8FE291E00E94690D1A8AD8
:10049000198A88E08B8B80E491E09D8B8C8B188A85
:1004A0001F8644C18F859889998F888F888D998DF3
:1004B0008430910509F46BC0888D998D8530910544
:1004C000ECF4888D998D8130910509F445C0888DB3
:1004D000998D823091052CF4888D998D009799F132
:1004E0008BC0888D998D8230910509F43EC0888D2E
:1004F000998D8330910509F441C07EC0888D998D16
:100500008730910509F45EC0888D998D88309105FA
:100510006CF4888D998D8530910509F441C0888DE2
:10052000998D8630910509F444C066C0888D998DF7
:100530008830910509F44FC0888D998D89309105D7
:1005400009F452C059C082E491E09D8B8C8B8FE1FD
:1005500090E09A8B898B50C084E491E09D8B8C8BCA
:100560008EE190E09A8B898B47C086E491E09D8B69
:100570008C8B82E090E09A8B898B3EC088E491E07E
:100580009D8B8C8B83E090E09A8B898B35C08AE4BD
:1005900091E09D8B8C8B84E090E09A8B898B2CC0B2
:1005A0008CE491E09D8B8C8B85E090E09A8B898B1D
:1005B00023C08EE491E09D8B8C8B86E090E09A8B3B
:1005C000898B1AC080E591E09D8B8C8B87E090E051
:1005D0009A8B898B11C082E591E09D8B8C8B88E092
:1005E00090E09A8B898B08C084E591E09D8B8C8B81
:1005F00089E090E09A8B898B2C893D8900D000D0CE
:10060000EDB7FEB7319686E591E091838083338321
:1006100022830E944D0D0F900F900F900F904C89E8
:100620005D8989899A899C01CA01B9010E94A9033F
:10063000009729F08FEF9FEF9F8B8E8B7FC080E01C
:1006400090E0AAEFB3E48B879C87AD87BE876B856C
:100650007C858D859E852AE93BE949E954E40E9421
:100660007D09DC01CB018F839887A987BA876F81C9
:10067000788589859A8520E030E040E85FE30E9434
:10068000D70A88232CF481E090E09E838D833FC0BD
:100690006F81788589859A8520E03FEF4FE757E4A1
:1006A0000E94770A18164CF56B857C858D859E8592
:1006B00020E030E040E251E40E947D09DC01CB0102
:1006C000BC01CD010E94A707DC01CB019E838D8375
:1006D0000FC08AE790E09C838B838B819C8101977C
:1006E000F1F79C838B838D819E8101979E838D83FF
:1006F0008D819E81009769F714C06F817885898507
:100700009A850E94A707DC01CB019E838D838D8192
:100710009E819A83898389819A810197F1F79A83CF
:1007200089838F8598890196988B8F878F85988983
:100730008A3091050CF4B6CE1F8A1E8A8E899F8955
:1007400069960FB6F894DEBF0FBECDBFCF91DF9193
:100750000895DF93CF93CDB7DEB72E970FB6F894F9
:10076000DEBF0FBECDBF9A8789877C876B871C82CF
:100770001B8289E691E09A8389831E821D821FC0B5
:1007800029813A818D819E81D901A80FB91F2985C0
:100790003A858D819E81F901E80FF91F80818C9344
:1007A00029813A818D819E81F901E80FF91F8081AD
:1007B000882351F08D819E8101969E838D838D814A
:1007C0009E8188309105E0F2F8948B859C85959503
:1007D00087959595879595958795982F81E36FEFE8
:1007E000492F0E9487078B85982F9295990F907EAD
:1007F00082E360EE492F0E94870788E065E30E944C
:10080000DB0689819A8160E00E94F80680E00E9400
:1008100039071E821D820DC00E945D07882F90E05F
:1008200084709070009759F08D819E8101969E830F
:100830008D838D819E812FEF8F3F920769F778948A
:100840008D819E812FEF8F3F920729F48FEF9FEFCD
:100850009E878D8702C01E861D868D859E852E965D
:100860000FB6F894DEBF0FBECDBFCF91DF910895D4
:10087000DF93CF9300D000D000D0CDB7DEB79A83FE
:1008800089837C836B830E945D07282F30E08B81F6
:100890009C81880F991F019682239323009799F3D7
:1008A0008B819C818130910549F482E797E0882310
:1008B0002CF48FEF9FEF9E838D8308C02B8189815D
:1008C0009A81622F0E9490061E821D828D819E81D8
:1008D00026960FB6F894DEBF0FBECDBFCF91DF9145
:1008E0000895DF93CF93CDB7DEB7A2E3B0E0E2E3A4
:1008F000F0E080818C608C93A1E3B0E0E1E3F0E074
:100900008081837F8C93A5E5B0E0E5E5F0E0808110
:100910008C93ABE5B0E0EBE5F0E08081806C8C93EC
:100920007894CF91DF9108951F920F920FB60F9296
:1009300011242F933F934F935F936F937F938F93E4
:100940009F93AF93BF93EF93FF93DF93CF9300D029
:1009500000D00F92CDB7DEB781E791E09D838C8305
:10096000CE01019660E070E00E943804009799F48F
:100970002C813D8100D000D0EDB7FEB731968AE7DB
:1009800091E091838083338322830E944D0D0F90E9
:100990000F900F900F900F900F900F900F900F905F
:1009A000CF91DF91FF91EF91BF91AF919F918F9187
:1009B0007F916F915F914F913F912F910F900FBE5B
:1009C0000F901F9018951F920F920FB60F9211243F
:1009D0002F933F934F935F936F937F938F939F9347
:1009E000AF93BF93EF93FF93DF93CF9300D000D0EB
:1009F0000F92CDB7DEB781E791E09D838C83CE0166
:100A0000019661E070E00E943804009799F42C810F
:100A10003D8100D000D0EDB7FEB7319683E991E07B
:100A200091838083338322830E944D0D0F900F901A
:100A30000F900F900F900F900F900F900F90CF91FD
:100A4000DF91FF91EF91BF91AF919F918F917F9136
:100A50006F915F914F913F912F910F900FBE0F902B
:100A60001F9018951F93F89482E60E94C1018EE2B0
:100A70000E94B50180E090E30197F1F70E94B9016F
:100A8000182F0E94C9017894812F1F9108950F9308
:100A90001F93CF93DF938C01F89482E60E94C101EB
:100AA000C0E0D0E0F801EC0FFD1F8081882331F019
:100AB0000E94B5012196C831D105A1F780E00E94BE
:100AC000B5010E94C9017894DF91CF911F910F91D8
:100AD0000895813069F082301CF4882331F0089544
:100AE000823049F08330B9F409C08CEA91E008C043
:100AF0008CEB91E005C08BEC91E002C088ED91E0B9
:100B00000E94470580E29EE42AE730E0F901319730
:100B1000F1F70197D9F708950F931F9300E301C0F0
:100B2000012F0E943205182F8017D1F38536C9F0A6
:100B3000863628F48033C1F08436C9F40FC082377A
:100B400039F0853741F08C3691F484EE91E011C094
:100B500089EE91E00EC08FEE91E00BC082EF91E044
:100B600008C087EF91E005C08DEF91E002C084E0FE
:100B700092E00E944705D4CFAF92BF92CF92DF920E
:100B8000FF920F931F93CF93DF938AE092E00E942E
:100B900047051FEF20E3F22E94E1A92E92E0B92E33
:100BA00083E2C82E82E0D82E02C010E0F02E0E9410
:100BB0003205082F8F15D1F3C12FDD27C7FDD09542
:100BC00000D000D0EDB7FEB7B282A182D483C38338
:100BD0000E944D0D0F900F900F900F90053691F0E1
:100BE000063628F4003311F3043681F409C00237C5
:100BF000E9F2053719F00C3649F4D8CF11500AC084
:100C00001F5F08C0CE010E94690504C084E092E025
:100C10000E94470500D000D0EDB7FEB7D282C18256
:100C2000812F992787FD9095948383830E944D0D92
:100C30000F900F900F900F9017FD1CC014306CF4A4
:100C4000113081F012301CF4112339F0AECF123084
:100C500061F0133009F0A9CF0DC084E392E00E9447
:100C60004705A3CF8CE492E002C083E692E00E94A5
:100C700047059CCF88E792E00E94470513E096CF96
:100C8000DF93CF93CDB7DEB783E70E94C10180EC3D
:100C90000E94B5010E94C901CF91DF9108950F9381
:100CA0001F93DF93CF93CDB7DEB727970FB6F89496
:100CB000DEBF0FBECDBF9C838B836D835F834E836E
:100CC00083E70E94C10183E00E94B5018D810E94EB
:100CD000B5011A82198210C029813A818B819C81C9
:100CE0008C01020F131F0E94B901F80180838981D2
:100CF0009A8101969A83898329813A818E819F8185
:100D0000281739074CF30E94C90127960FB6F894AB
:100D1000DEBF0FBECDBFCF91DF911F910F91089520
:100D20000F931F93DF93CF9300D000D00F92CDB7D6
:100D3000DEB79C838B836D838D81823090F58D81AE
:100D4000882319F481E08D8305C08D81813011F4F1
:100D500083E08D8383E70E94C1018D81882F90E01D
:100D6000880F991F80690E94B5011A82198212C0EA
:100D7000EB81FC812381348189819A818901080F6B
:100D8000191F0E94B901F801808389819A81019617
:100D90009A83898389819A81883091054CF30E94D6
:100DA000C9010F900F900F900F900F90CF91DF918E
:100DB0001F910F910895DF93CF9300D000D0CDB74E
:100DC000DEB78B836C8383E70E94C10182E00E94BF
:100DD000B5018C810E94B5018B810E94B5010E94F2
:100DE000C9010F900F900F900F90CF91DF91089550
:100DF000DF93CF9300D000D00F92CDB7DEB79C83A6
:100E00008B836D838D81833060F58D81882F90E099
:100E10000196880F991F81508D8383E70E94C1013D
:100E20008D8180640E94B5011A8219820FC02981C8
:100E30003A818B819C81FC01E20FF31F80810E942B
:100E4000B50189819A8101969A83898389819A81E2
:100E50008830910564F30E94C9018AE090E00E9405
:100E6000620D0F900F900F900F900F90CF91DF9128
:100E70000895DF93CF930F92CDB7DEB78983898131
:100E8000882319F481E089830BC08981813019F4AA
:100E900082E0898305C08981823059F484E08983A6
:100EA00083E70E94C101898180680E94B5010E9488
:100EB000C9010F90CF91DF910895DF93CF930F92E7
:100EC000CDB7DEB783E70E94C10180EA0E94B50179
:100ED0000E94B90189830E94C90189810F90CF9135
:100EE000DF910895DF93CF930F92CDB7DEB783E7FD
:100EF0000E94C10180EB0E94B5010E94B901898363
:100F00000E94C90189810F90CF91DF910895DF93ED
:100F1000CF9300D00F92CDB7DEB789836A834B831E
:100F200083E70E94C10185E00E94B50189810E948A
:100F3000B5018A810E94B5018B810E94B5010E9492
:100F4000C9010F900F900F90CF91DF910895EF920C
:100F5000FF920F931F937B018C0120E030E040E073
:100F60005FE40E94A70A88238CF0C801B70120E043
:100F700030E040E05FE40E941F090E94070B9B01E4
:100F8000AC01205030404040504806C0C801B70175
:100F90000E94070B9B01AC01B901CA011F910F917F
:100FA000FF90EF900895A0E0B0E0E9EDF7E00C9439
:100FB0006511DC012B01FA019C91923008F439C1D2
:100FC000EB018881823008F433C1943069F48430B5
:100FD00009F02FC111969C9111978981981709F4F6
:100FE00028C1ACE8B2E025C1843009F421C18230C7
:100FF000A9F4923009F01DC19A01AD0188E0EA011F
:101000000990AE01E90109929E018150C1F7E20108
:10101000898111969C918923818308C1923009F4BA
:1010200007C112962D903C901397EB018A819B810A
:101030001496AD90BD90CD90DC901797EC80FD801C
:101040000E811F819101281B390BB90137FF04C0A4
:1010500066277727621B730B603271050CF061C045
:10106000121613066CF537014801062E04C096943B
:101070008794779467940A94D2F721E030E040E0B7
:1010800050E004C0220F331F441F551F6A95D2F74A
:1010900021503040404050402E213F2140235123D9
:1010A000211531054105510521F021E030E040E0F6
:1010B00050E079018A01E628F728082919293CC05F
:1010C000232BD1F1260E371E35014601062E04C012
:1010D00096948794779467940A94D2F721E030E04D
:1010E00040E050E004C0220F331F441F551F6A9593
:1010F000D2F721503040404050402A213B214C2122
:101100005D21211531054105510521F021E030E037
:1011100040E050E059016A01A628B728C828D9281C
:101120000BC0821593052CF01C01AA24BB24650179
:1011300003C0EE24FF24870111969C91D2011196E1
:101140008C91981709F445C0992339F0A8019701AB
:101150002A193B094C095D0906C0A60195012E1903
:101160003F09400B510B57FD08C011823382228288
:1011700024833583468357831DC081E08183338276
:10118000228288279927DC01821B930BA40BB50BC5
:1011900084839583A683B7830DC0220F331F441F1A
:1011A000551F24833583468357838281938101971A
:1011B000938382832481358146815781DA01C90175
:1011C0000197A109B1098F5F9F4FAF4FBF4328F32C
:1011D0000BC0918333822282EA0CFB1C0C1D1D1D67
:1011E000E482F5820683178383E08083248135813E
:1011F0004681578157FF1AC0C901AA2797FDA095BC
:10120000BA2F81709070A070B07056954795379541
:101210002795822B932BA42BB52B84839583A683B0
:10122000B78382819381019693838283DF0101C01A
:10123000D201CD01CDB7DEB7E2E10C948111A0E27D
:10124000B0E0E5E2F9E00C94711169837A838B8355
:101250009C832D833E834F835887E9E0EE2EF12C4B
:10126000EC0EFD1ECE010196B7010E94300C8E01DE
:101270000F5E1F4FCE010596B8010E94300C8A897F
:1012800091E089278A8BC701B801AE01475E5F4FA5
:101290000E94D3070E945B0BA096E6E00C948D1190
:1012A000A0E2B0E0E6E5F9E00C94711169837A837D
:1012B0008B839C832D833E834F835887F9E0EF2EE9
:1012C000F12CEC0EFD1ECE010196B7010E94300CF0
:1012D0008E010F5E1F4FCE010596B8010E94300CA3
:1012E000C701B801AE01475E5F4F0E94D3070E945D
:1012F0005B0BA096E6E00C948D11A0E2B0E0E3E871
:10130000F9E00C94651169837A838B839C832D8328
:101310003E834F835887CE010196BE01675F7F4FA2
:101320000E94300CCE010596BE016F5E7F4F0E9479
:10133000300C9985923088F089898230C8F09430D9
:1013400019F4823051F404C0843029F4923081F4CD
:101350008CE892E0C6C0923049F420E09A858A89F0
:10136000981321E02A87CE010996BBC0823049F448
:1013700020E09A858A89981321E02A8BCE01419634
:10138000B0C02D843E844F8458886D887E888F88B5
:10139000988CEE24FF248701AA24BB24650140E039
:1013A00050E060E070E0E0E0F0E0C101817090703A
:1013B000892BE9F0E60CF71C081D191D9A01AB01F9
:1013C0002A0D3B1D4C1D5D1D80E090E0A0E0B0E0CB
:1013D000E614F7040805190520F481E090E0A0E088
:1013E000B0E0BA01A901480F591F6A1F7B1FAA0C60
:1013F000BB1CCC1CDD1C97FE08C081E090E0A0E087
:10140000B0E0A82AB92ACA2ADB2A3196E032F105CF
:1014100049F0660C771C881C991C569447943794A5
:101420002794C3CFFA85EA892B893C898B859C85D3
:10143000280F391F2E5F3F4F17C0CA01817090706F
:10144000892B61F016950795F794E79480E090E07A
:10145000A0E0B0E8E82AF92A0A2B1B2B76956795BD
:10146000579547952F5F3F4F77FDE7CF0CC0440F4F
:10147000551F661F771F17FD4160EE0CFF1C001FF4
:10148000111F21503040403090E0590790E069072B
:1014900090E4790760F32B8F3C8FDB01CA018F77D3
:1014A0009070A070B07080349105A105B10561F411
:1014B00047FD0AC0E114F1040105110529F0405C63
:1014C0005F4F6F4F7F4F40781A8EFE1711F081E00B
:1014D0008A8F4D8F5E8F6F8F78A383E0898FCE01C7
:1014E00049960E945B0BA096E2E10C948111A8E161
:1014F000B0E0EDE7FAE00C94711169837A838B8395
:101500009C832D833E834F83588789E0E82EF12CFE
:10151000EC0EFD1ECE010196B7010E94300C8E012B
:101520000F5E1F4FCE010596B8010E94300C8985D1
:10153000823040F08989823028F0C701B8010E94CA
:10154000A80C01C08FEF6896E6E00C948D11A8E11D
:10155000B0E0EDEAFAE00C94711169837A838B8331
:101560009C832D833E834F83588789E0E82EF12C9E
:10157000EC0EFD1ECE010196B7010E94300C8E01CB
:101580000F5E1F4FCE010596B8010E94300C898571
:10159000823040F08989823028F0C701B8010E946A
:1015A000A80C01C08FEF6896E6E00C948D11A8E1BD
:1015B000B0E0EDEDFAE00C94711169837A838B83CE
:1015C0009C832D833E834F83588789E0E82EF12C3E
:1015D000EC0EFD1ECE010196B7010E94300C8E016B
:1015E0000F5E1F4FCE010596B8010E94300C898511
:1015F000823040F08989823028F0C701B8010E940A
:10160000A80C01C081E06896E6E00C948D11ACE076
:10161000B0E0EDE0FBE00C94751169837A838B8375
:101620009C83CE010196BE016B5F7F4F0E94300C00
:101630008D81823061F1823050F1843021F48E81CD
:10164000882351F12EC02F81388537FD20C06E814F
:101650002F3131051CF06623F9F023C08EE190E0B4
:10166000821B930B29853A854B855C8504C0569572
:101670004795379527958A95D2F76623B1F050950F
:101680004095309521953F4F4F4F5F4F0EC020E062
:1016900030E040E050E009C02FEF3FEF4FEF5FE751
:1016A00004C020E030E040E050E8B901CA012C96C7
:1016B000E2E00C949111DF92EF92FF920F931F934F
:1016C000FC01E480F58006811781D1808081823021
:1016D00048F480E090E0A0E1B0E0E82AF92A0A2B83
:1016E0001B2BA5C0843009F49FC0823021F4EE2466
:1016F000FF24870105C0E114F1040105110519F467
:10170000E0E0F0E096C0628173819FEF6238790774
:101710000CF05BC022E83FEF261B370B2A31310566
:101720002CF020E030E040E050E02AC0B801A701F2
:10173000022E04C076956795579547950A94D2F77F
:1017400081E090E0A0E0B0E004C0880F991FAA1FDC
:10175000BB1F2A95D2F70197A109B1098E219F21BC
:10176000A023B1230097A105B10521F081E090E00D
:10177000A0E0B0E09A01AB01282B392B4A2B5B2B60
:10178000DA01C9018F779070A070B0708034910534
:10179000A105B10539F427FF09C0205C3F4F4F4F29
:1017A0005F4F04C0215C3F4F4F4F5F4FE0E0F0E0E0
:1017B0002030A0E03A07A0E04A07A0E45A0710F062
:1017C000E1E0F0E079018A0127C06038710564F535
:1017D000FB01E158FF4FD801C7018F779070A070CF
:1017E000B07080349105A105B10539F4E7FE0DC054
:1017F00080E490E0A0E0B0E004C08FE390E0A0E0DF
:10180000B0E0E80EF91E0A1F1B1F17FF05C0169552
:101810000795F794E794319687E016950795F79426
:10182000E7948A95D1F705C0EE24FF248701EFEFF6
:10183000F0E06E2F679566276795902F9F77D79476
:10184000DD24D7948E2F8695492F462B582F5D295E
:10185000B701CA011F910F91FF90EF90DF9008959B
:10186000FC01DB01408151812281622F6F7770E0A2
:10187000221F2227221F9381892F880F822B282F36
:1018800030E0991F9927991F11969C931197211564
:101890003105A9F5411551056105710511F482E085
:1018A00037C082E89FEF13969C938E9312979A010C
:1018B000AB0167E0220F331F441F551F6A95D1F714
:1018C00083E08C930DC0220F331F441F551F1296C7
:1018D0008D919C911397019713969C938E931297D9
:1018E000203080E0380780E0480780E4580758F34C
:1018F00014962D933D934D935C93179708952F3F26
:10190000310579F4411551056105710519F484E03B
:101910008C93089564FF03C081E08C9312C01C92E5
:1019200010C02F57304013963C932E93129783E0AC
:101930008C9387E0440F551F661F771F8A95D1F758
:10194000706414964D935D936D937C9317970895EF
:101950001F93DC01FB019C91923008F447C0808109
:10196000823008F443C0943051F411961C918430B5
:1019700099F58181682F70E0611B71093FC0843047
:1019800021F0923031F48230B9F18181882389F1DC
:101990002DC011961C9111978230F1F0818118179A
:1019A000D9F412962D913C911397828193818217DD
:1019B000930794F028173907BCF014968D919D91E8
:1019C0000D90BC91A02D2481358146815781281727
:1019D00039074A075B0718F4112341F00AC0821740
:1019E0009307A407B50740F4112319F061E070E0F4
:1019F00005C06FEF7FEF02C060E070E0CB011F9188
:101A000008950F931F93CF93DF938C01EB01009701
:101A100031F46115710519F420E030E038C081E03F
:101A200090E06EE070E00E947B0FFC019C0100974B
:101A300071F180E88383209771F0D387C28781E8B2
:101A4000838380919A0290919B02892B21F4F093D9
:101A50009B02E0939A0201151105C9F011870087D6
:101A600083818260838380919C0290919D02892B67
:101A700071F4F0939D02E0939C0280919E029091FC
:101A80009F02892B21F4F0939F02E0939E02C901EB
:101A9000DF91CF911F910F910895A0E0B0E0E3E5B1
:101AA000FDE00C947511FE01359661917191809164
:101AB0009C0290919D02AF010E949E0D2096E2E053
:101AC0000C94911160919C0270919D020E94B9103A
:101AD00008950F931F93CF93DF938C01E0919C02A5
:101AE000F0919D02838181FF21C0C0E0D0E00DC054
:101AF000E0919C02F0919D0220853185BF01F901A2
:101B00000995892B11F0CFEFDFEFF80181918F015B
:101B1000882371F7E0919C02F0919D022085318528
:101B20008AE0BF01F9010995892B11F0CFEFDFEFB2
:101B3000CE01DF91CF911F910F910895ABE0B0E0FE
:101B4000E4EAFDE00C9465113C012B015A01FC0113
:101B500017821682838181FD03C06FEF7FEFC6C1BC
:101B60009AE0892E1E010894211C311CF301238167
:101B7000F20123FD859123FF81912F01882309F430
:101B8000B2C1853239F423FD859123FF81912F0164
:101B9000853229F490E0B3010E94B910E7CF982F65
:101BA000FF24EE249924FFE1FF15D0F09B3269F069
:101BB0009C3228F4903259F0933291F40EC09D3249
:101BC00049F0903369F441E024C052E0F52A84E002
:101BD000F82A28C098E0F92A25C0E0E1FE2A22C0B0
:101BE000F7FC29C0892F80538A3070F4F6FE05C0B7
:101BF000989C902C1124980E15C0E89CE02C112480
:101C0000E80EF0E2FF2A0EC09E3229F4F6FC6BC10A
:101C100040E4F42A07C09C3619F450E8F52A02C0C3
:101C2000983649F4F20123FD959123FF91912F01FC
:101C3000992309F0B8CF892F8554833018F080524A
:101C4000833038F444E050E0A40EB51E5FE35983BE
:101C50000FC0933631F0933779F0933509F056C0C1
:101C600020C0F5018081898342E050E0A40EB51EBA
:101C7000610101E010E012C0F501C080D180F6FCE6
:101C800003C06FEF7FEF02C0692D70E042E050E0CB
:101C9000A40EB51EC6010E94AE108C015FE7F522AE
:101CA00014C0F501C080D180F6FC03C06FEF7FEF58
:101CB00002C0692D70E042E050E0A40EB51EC601DE
:101CC0000E949C108C0150E8F52AF3FE07C01AC050
:101CD00080E290E0B3010E94B910EA948E2D90E06A
:101CE00008171907A8F30EC0F601F7FC8591F7FE57
:101CF00081916F0190E0B3010E94B910E110EA9464
:101D0000015010400115110579F7EAC0943611F021
:101D1000993669F5F7FE08C0F501208131814281CD
:101D2000538184E090E00AC0F501808191819C019B
:101D3000442737FD4095542F82E090E0A80EB91E4D
:101D40009FE6F92257FF09C050954095309521959F
:101D50003F4F4F4F5F4FE0E8FE2ACA01B901A10192
:101D60002AE030E00E94E510D82ED21840C0953706
:101D700029F41F2D1F7E2AE030E01DC01F2D197F82
:101D80009F3661F0903720F4983509F0ACC00FC051
:101D9000903739F0983709F0A6C004C028E030E049
:101DA0000AC0106114FD146020E130E004C014FD8D
:101DB000166020E132E017FF08C0F50160817181F3
:101DC0008281938144E050E008C0F50180819181D7
:101DD000BC0180E090E042E050E0A40EB51EA101FD
:101DE0000E94E510D82ED2188FE7F82EF122F6FEC9
:101DF0000BC05EEFF522D91438F4F4FE07C0F2FCF4
:101E000005C08FEEF82202C01D2D01C0192DF4FE71
:101E10000DC0FE01ED0DF11D8081803319F499EEA6
:101E2000F92208C01F5FF2FE05C003C08F2D86781F
:101E300009F01F5F0F2DF3FC14C0F0FE0FC01E153C
:101E400010F09D2C0BC09D2C9E0C911A1E2D06C0CF
:101E500080E290E0B3010E94B9101F5F1E15C0F32D
:101E600004C01E1510F4E11A01C0EE2404FF0FC0D7
:101E700080E390E0B3010E94B91002FF1DC001FD94
:101E800003C088E790E00EC088E590E00BC0802F8B
:101E9000867891F001FF02C08BE201C080E2F7FC7E
:101EA0008DE290E0B3010E94B91006C080E390E09B
:101EB000B3010E94B9109A94D914C0F3DA94F101D5
:101EC000ED0DF11D808190E0B3010E94B910DD207D
:101ED000A9F706C080E290E0B3010E94B910EA942D
:101EE000EE20C1F743CEF30166817781CB012B96BB
:101EF000E2E10C9481110F931F93CF93DF93689FBE
:101F00008001699F100D789F100D1124C8010E9457
:101F1000970FEC01009729F060E070E0A8010E94A3
:101F2000A710CE01DF91CF911F910F910895CF930C
:101F3000DF93BC018230910510F462E070E0A09163
:101F4000A202B091A302ED01E0E0F0E040E050E039
:101F500021C0888199818617970769F48A819B81BE
:101F6000309719F09383828304C09093A3028093E7
:101F7000A202FE0134C06817790738F441155105F3
:101F800019F08417950708F4AC01FE018A819B8142
:101F90009C01E9012097E9F641155105A9F1CA0113
:101FA000861B970B049708F4BA01E0E0F0E02AC022
:101FB0008D919C91119784179507F9F46417750713
:101FC00081F412968D919C911397309719F0938319
:101FD000828304C09093A3028093A202FD013296F3
:101FE0004FC0CA01861B970BFD01E80FF91F6193D3
:101FF000719302978D939C9343C0FD0182819381DD
:102000009C01D9011097A1F68091A0029091A102A4
:10201000892B41F480919602909197029093A102AE
:102020008093A00240919802509199024115510568
:1020300041F44DB75EB78091940290919502481B90
:10204000590B2091A0023091A10224173507B0F45A
:10205000CA01821B930B8617970780F0AB014E5F76
:102060005F4F8417950750F0420F531F5093A10202
:102070004093A002F9016193719302C0E0E0F0E0A7
:10208000CF01DF91CF910895CF93DF93009709F4AB
:1020900050C0EC0122971B821A82A091A202B0913B
:1020A000A302109709F140E050E0AC17BD0708F11A
:1020B000BB83AA83FE0121913191E20FF31FAE177A
:1020C000BF0779F48D919C911197280F391F2E5FCE
:1020D0003F4F3983288312968D919C9113979B8350
:1020E0008A834115510571F4D093A302C093A202D3
:1020F00020C012968D919C911397AD01009711F01D
:10210000DC01D3CFFA01D383C28321913191E20F55
:10211000F31FCE17DF0769F488819981280F391FD3
:102120002E5F3F4FFA01318320838A819B81938305
:102130008283DF91CF910895FC010590615070403A
:102140000110D8F7809590958E0F9F1F0895DC01A0
:1021500001C06D9341505040E0F70895FC0161507B
:10216000704001900110D8F7809590958E0F9F1FB9
:1021700008950F931F93CF93DF938C01EB018B8115
:1021800081FF1BC082FF0DC02E813F818C819D810C
:102190002817390764F4E881F9810193F983E8830A
:1021A00006C0E885F985802F0995892B31F48E8149
:1021B0009F8101969F838E8302C00FEF1FEFC8019E
:1021C000DF91CF911F910F910895FA01AA2728302E
:1021D00051F1203181F1E8946F936E7F6E5F7F4FF4
:1021E0008F4F9F4FAF4FB1E03ED0B4E03CD0670F70
:1021F000781F891F9A1FA11D680F791F8A1F911DC3
:10220000A11D6A0F711D811D911DA11D20D009F412
:1022100068943F912AE0269F11243019305D319354
:10222000DEF6CF010895462F4770405D4193B3E03D
:102230000FD0C9F7F6CF462F4F70405D4A3318F0E4
:10224000495D31FD4052419302D0A9F7EACFB4E095
:10225000A6959795879577956795BA95C9F700974D
:102260006105710508959B01AC010A2E06945795EE
:10227000479537952795BA95C9F7620F731F841F45
:10228000951FA01D0895A1E21A2EAA1BBB1BFD01DC
:102290000DC0AA1FBB1FEE1FFF1FA217B307E40745
:1022A000F50720F0A21BB30BE40BF50B661F771F9D
:1022B000881F991F1A9469F760957095809590957D
:1022C0009B01AC01BD01CF0108952F923F924F9227
:1022D0005F926F927F928F929F92AF92BF92CF92B6
:1022E000DF92EF92FF920F931F93CF93DF93CDB7BF
:1022F000DEB7CA1BDB0B0FB6F894DEBF0FBECDBF37
:1023000009942A88398848885F846E847D848C8407
:102310009B84AA84B984C884DF80EE80FD800C8110
:102320001B81AA81B981CE0FD11D0FB6F894DEBFF3
:0C2330000FBECDBFED010895F894FFCF63
:10233C005374617274696E672E2E2E004572726F23
:10234C00722121212052414D206E6F2E2030782594
:10235C0078200046696E6973686564212121004309
:10236C00414E5F746573742073746172746564009C
:10237C0020003000310032003300340035003600CC
:10238C0037003800390053656E64696E67207374CA
:10239C0072696E673A20257300000000000000008F
:1023AC0000000000000000000000526563656976C3
:1023BC00656420696E74657272757074303A20258C
:1023CC00730A00526563656976656420696E74658D
:1023DC007272757074313A2025730A00656E7370D1
:1023EC00696C6C657220706F656E6700656E7370DA
:1023FC00696C6C65722065766967007665727375B9
:10240C007320706F656E67007665727375732065E7
:10241C00766967006C65667400726967687400752C
:10242C007000646F776E00656E7465720063656E24
:10243C00746572006572726F720056656C6B6F6DAD
:10244C006D656E00737461746520666F723A202539
:10245C00640A0073746174652065747465723A2043
:10246C0025640A003120537461727420656E737098
:10247C00696C6C657220706F656E670032205374E6
:10248C0061727420656E7370696C6C657220657610
:10249C006967003320537461727420666C657273C3
:1024AC007020706F656E67003420537461727420F5
:1024BC00666C6572737020657669670000000000B9
:0A24CC00000000002000A402000040
:00000001FF
