:100000000C9438000C9471010C9455000C9455001C
:100010000C9455000C9455000C9455000C9455000C
:100020000C9455000C9455000C9455000C945500FC
:100030000C9455000C9455000C9455000C945500EC
:100040000C9455000C9455000C9455000C945500DC
:100050000C9455000C9455000C9455000C945500CC
:100060000C9455000C9455000C9455000C945500BC
:1000700011241FBECFEFD4E0DEBFCDBF12E0A0E061
:10008000B1E0E2E5F2E102C005900D92A239B107BC
:10009000D9F712E0A2E9B2E001C01D92AC39B10774
:1000A000E1F70E9457000C9427090C9400000E946D
:1000B0004D0180E895E20E9494000E94BC000E94DD
:1000C000FE000E942F010E946F0280E091E00E94DA
:1000D000F4040E94360200D000D028E131E0EDB7F0
:1000E000FEB732832183948383830E94D8040F90C8
:1000F0000F900F900F900E94170380E090E00895FA
:100100001F93182F8A3019F48DE00E9480005D9BA8
:10011000FECF1CB980E090E01F9108955F9BFECF59
:100120008CB18CB190E008959C0140E050E064E017
:10013000220F331F441F551F6A95D1F76AEF70E0F5
:100140008BE490E00E94CE08C901DA010197A10971
:10015000B109292F3A2F4B2F552720BD89B988E1A6
:100160008AB986EA80BD80E890E06EE870E00E947F
:100170008C0480E090E0089585B7806C85BF86B7D9
:10018000846086BF80B7806280BF08950F931F93FD
:10019000CF93DF9385E291E00E94F404E0E0F0E188
:1001A00043E829E939E04193C9010197F1F788E172
:1001B000E030F807C1F7C0E0D0E001E311E0C05043
:1001C000D04F8881C050D041833871F000D000D02A
:1001D000EDB7FEB712830183D483C3830E94D80492
:1001E0000F900F900F900F902196F8E0C030DF072E
:1001F00031F788E491E00E94F404FFCF17BA8FEF43
:1002000088BB0895883779F484E080930018B0990A
:10021000FECF80910018E199FECF90E09FBB8EBB8E
:10022000E09A8DB30895893711F08FEF089586E035
:1002300080930018B099FECF80910018E199FECF0D
:1002400090E080509F4F9FBB8EBBE09A8DB3089586
:1002500086B390E08670907095958795089587B3E2
:100260008770886B87BB81E58DB988B3886188BB4F
:1002700008958FB9779BFECF089580E48FB9779B5F
:10028000FECF779BFECF8FB10895823611F4C398CD
:100290000895833709F4C498089588B3886188BBAA
:1002A000089582B38C6082BB81B3837F81BB85B7A5
:1002B00085BF8BB7806C8BBF789408951F93CF93C5
:1002C000DF93EC01162F0E94ED0380FFFCCFCE01DF
:1002D000612F0E94FC0380E090E0DF91CF911F919D
:1002E00008951F920F920FB60F9211242F933F93F0
:1002F0004F935F936F937F938F939F93AF93BF932E
:10030000EF93FF93DF93CF9300D000D00F92CDB740
:10031000DEB784E591E09D838C8300D08DE591E08C
:10032000EDB7FEB7928381830E94D8040F900F909F
:10033000CE01019660E070E00E945E018C819D819B
:100340000E94F4040F900F900F900F900F90CF9198
:10035000DF91FF91EF91BF91AF919F918F917F912D
:100360006F915F914F913F912F910F900FBE0F9022
:100370001F901895AF92BF92CF92DF92EF92FF92AB
:100380000F931F93DF93CF9300D000D00F92CDB780
:10039000DEB77A8369837C015E010894A11CB11CDD
:1003A0004EC0EC81FD81E20FF31F8C918083EC81C4
:1003B000FD81E20FF31F8081A9014F5F5F4F88230A
:1003C00021F481E0C82ED12C07C09A011196483043
:1003D000510539F7CC24DD244B83F89481E36FEF8A
:1003E00040E00E949D0349814295440F407E82E394
:1003F00060EE0E949D038B8165E30E94CF03C501DF
:1004000060E00E94540480E00E94B80300E010E025
:100410000E94ED0382FF06C00F5F1F4F8FEF0F3F5B
:100420001807B1F778940F5F1F4F69F088E090E0EC
:10043000E80EF91ECD2819F020E030E006C0D70103
:1004400020E030E0AECF2FEF3FEFC9010F900F90CB
:100450000F900F900F90CF91DF911F910F91FF9010
:10046000EF90DF90CF90BF90AF9008950F931F93C0
:1004700088E691E00E94F4040E94E4038FE060EEBD
:1004800040E40E949D0380E660E640E20E949D03F6
:100490008CE06FE04FEF0E949D0300D000D089E711
:1004A00091E0EDB7FEB7928381830CE811E01483ED
:1004B00003830E94D8040F900F900F900F90C801F3
:1004C00060E070E00E94BA01892B19F420E030E06E
:1004D00002C02FEF3FEFC9011F910F9108950E94B5
:1004E000E4038FE060EE40E40E949D0380E660E656
:1004F00040E20E949D038CE06FE04FEF0E949D035D
:1005000082B38C6082BB81B3837F81BB85B785BF9B
:100510008BB7806C8BBF789408951F93F89482E614
:100520000E9445018EE20E94390180E090E301972C
:10053000F1F70E943D01182F0E944D017894812F00
:100540001F9108950F931F93CF93DF938C01F8941D
:1005500082E60E944501C0E0D0E0F801EC0FFD1FEB
:100560008081882331F00E9439012196C831D1055C
:10057000A1F780E00E9439010E944D017894DF913B
:10058000CF911F910F910895813069F082301CF452
:10059000882331F00895823049F08330B9F409C0DE
:1005A0008CEA91E008C08CEB91E005C08BEC91E007
:1005B00002C088ED91E00E94A20280E29EE42AE758
:1005C00030E0F9013197F1F70197D9F708950F93CA
:1005D0001F9300E301C0012F0E948D02182F801786
:1005E000D1F38536C9F0863628F48033C1F08436DD
:1005F000C9F40FC0823739F0853741F08C3691F459
:1006000084EE91E011C089EE91E00EC08FEE91E092
:100610000BC082EF91E008C087EF91E005C08DEF3D
:1006200091E002C084E092E00E94A202D4CFAF9297
:10063000BF92CF92DF92FF920F931F93CF93DF93DE
:100640008AE092E00E94A2021FEF20E3F22E94E1E2
:10065000A92E92E0B92E83E2C82E82E0D82E02C0E5
:1006600010E0F02E0E948D02082F8F15D1F3C12FBC
:10067000DD27C7FDD09500D000D0EDB7FEB7B28220
:10068000A182D483C3830E94D8040F900F900F904F
:100690000F90053691F0063628F4003311F3043636
:1006A00081F409C00237E9F2053719F00C3649F434
:1006B000D8CF11500AC01F5F08C0CE010E94C402EB
:1006C00004C084E092E00E94A20200D000D0EDB706
:1006D000FEB7D282C182812F992787FD909594839E
:1006E00083830E94D8040F900F900F900F9017FDF6
:1006F0001CC014306CF4113081F012301CF4112342
:1007000039F0AECF123061F0133009F0A9CF0DC02F
:1007100084E392E00E94A202A3CF8CE492E002C0A4
:1007200083E692E00E94A2029CCF88E792E00E94BA
:10073000A20213E096CF80E00895FF920F931F93DB
:10074000182F062FF42E83E70E94450185E00E94B2
:100750003901812F0E943901802F0E9439018F2D8C
:100760000E9439010E944D011F910F91FF90089541
:100770001F93882311F411E007C0813011F412E0B7
:1007800003C0823051F414E083E70E944501812FB9
:1007900080680E9439010E944D011F9108950F93B6
:1007A0001F93082F162F83E70E94450182E00E94C5
:1007B0003901812F0E943901802F0E9439010E9446
:1007C0004D011F910F91089583E70E94450180EC30
:1007D0000E9439010E944D0108951F9383E70E94F2
:1007E000450180EA0E9439010E943D01182F0E94B4
:1007F0004D01812F1F910895EF92FF920F931F9348
:10080000CF93DF937C016230F0F4662311F401E0B2
:1008100001C003E083E70E944501000F802F80693B
:100820000E943901C0E0D0E0F701038114810C0F70
:100830001D1F0E943D01F80180832196C830D1051B
:1008400099F70E944D01DF91CF911F910F91FF9079
:10085000EF900895CF92DF92EF92FF921F93CF9384
:10086000DF936C01162F7A0183E70E94450183E034
:100870000E943901812F0E943901C0E0D0E007C0F9
:100880000E943D01F601EC0FFD1F80832196CE15DD
:10089000DF05B4F30E944D01DF91CF911F91FF90CE
:1008A000EF90DF90CF900895EF92FF921F93CF9338
:1008B000DF937C01633050F5DC0112968C91893016
:1008C00028F5162F110F1E5F83E70E944501115076
:1008D000812F80640E943901C0E0D0E00BC0D701B5
:1008E0001396ED91FC911497EC0FFD1F80810E94EF
:1008F00039012196F701828190E0C817D9077CF36E
:100900000E944D018AE090E00E94ED04DF91CF91BA
:100910001F91FF90EF9008950F931F93CF93DF9354
:100920008C01EB01009731F46115710519F420E099
:1009300030E038C081E090E06EE070E00E94060791
:10094000FC019C01009771F180E88383209771F08E
:10095000D387C28781E8838380919202909193022A
:10096000892B21F4F0939302E09392020115110573
:10097000C9F011870087838182608383809194020C
:1009800090919502892B71F4F0939502E093940273
:100990008091960290919702892B21F4F09397020F
:1009A000E0939602C901DF91CF911F910F910895B5
:1009B000A0E0B0E0EEEDF4E00C940009FE01359605
:1009C000619171918091940290919502AF010E9482
:1009D00029052096E2E00C941C0960919402709124
:1009E00095020E94440808950F931F93CF93DF93BD
:1009F0008C01E0919402F0919502838181FF21C0E6
:100A0000C0E0D0E00DC0E0919402F0919502208505
:100A10003185BF01F9010995892B11F0CFEFDFEF87
:100A2000F80181918F01882371F7E0919402F09190
:100A30009502208531858AE0BF01F9010995892B4E
:100A400011F0CFEFDFEFCE01DF91CF911F910F912A
:100A50000895ABE0B0E0EFE2F5E00C94F0083C0163
:100A60002B015A01FC0117821682838181FD03C08C
:100A70006FEF7FEFC6C19AE0892E1E010894211CFA
:100A8000311CF3012381F20123FD859123FF819124
:100A90002F01882309F4B2C1853239F423FD8591F1
:100AA00023FF81912F01853229F490E0B3010E9448
:100AB0004408E7CF982FFF24EE249924FFE1FF1587
:100AC000D0F09B3269F09C3228F4903259F0933286
:100AD00091F40EC09D3249F0903369F441E024C096
:100AE00052E0F52A84E0F82A28C098E0F92A25C0C7
:100AF000E0E1FE2A22C0F7FC29C0892F80538A300A
:100B000070F4F6FE05C0989C902C1124980E15C028
:100B1000E89CE02C1124E80EF0E2FF2A0EC09E3281
:100B200029F4F6FC6BC140E4F42A07C09C3619F4A2
:100B300050E8F52A02C0983649F4F20123FD959158
:100B400023FF91912F01992309F0B8CF892F855464
:100B5000833018F08052833038F444E050E0A40E23
:100B6000B51E5FE359830FC0933631F0933779F0A8
:100B7000933509F056C020C0F5018081898342E099
:100B800050E0A40EB51E610101E010E012C0F501B5
:100B9000C080D180F6FC03C06FEF7FEF02C0692DEB
:100BA00070E042E050E0A40EB51EC6010E94390874
:100BB0008C015FE7F52214C0F501C080D180F6FCFE
:100BC00003C06FEF7FEF02C0692D70E042E050E09C
:100BD000A40EB51EC6010E9427088C0150E8F52A14
:100BE000F3FE07C01AC080E290E0B3010E944408FF
:100BF000EA948E2D90E008171907A8F30EC0F601AD
:100C0000F7FC8591F7FE81916F0190E0B3010E949E
:100C10004408E110EA94015010400115110579F7DC
:100C2000EAC0943611F0993669F5F7FE08C0F5016F
:100C3000208131814281538184E090E00AC0F50136
:100C4000808191819C01442737FD4095542F82E09B
:100C500090E0A80EB91E9FE6F92257FF09C05095F3
:100C60004095309521953F4F4F4F5F4FE0E8FE2A6A
:100C7000CA01B901A1012AE030E00E947008D82E13
:100C8000D21840C0953729F41F2D1F7E2AE030E08E
:100C90001DC01F2D197F9F3661F0903720F49835C5
:100CA00009F0ACC00FC0903739F0983709F0A6C0F2
:100CB00004C028E030E00AC0106114FD146020E197
:100CC00030E004C014FD166020E132E017FF08C0D8
:100CD000F501608171818281938144E050E008C018
:100CE000F50180819181BC0180E090E042E050E01C
:100CF000A40EB51EA1010E947008D82ED2188FE74D
:100D0000F82EF122F6FE0BC05EEFF522D91438F46E
:100D1000F4FE07C0F2FC05C08FEEF82202C01D2DC4
:100D200001C0192DF4FE0DC0FE01ED0DF11D8081F5
:100D3000803319F499EEF92208C01F5FF2FE05C056
:100D400003C08F2D867809F01F5F0F2DF3FC14C0B0
:100D5000F0FE0FC01E1510F09D2C0BC09D2C9E0C9C
:100D6000911A1E2D06C080E290E0B3010E94440853
:100D70001F5F1E15C0F304C01E1510F4E11A01C058
:100D8000EE2404FF0FC080E390E0B3010E9444080A
:100D900002FF1DC001FD03C088E790E00EC088E59A
:100DA00090E00BC0802F867891F001FF02C08BE2AB
:100DB00001C080E2F7FC8DE290E0B3010E9444089C
:100DC00006C080E390E0B3010E9444089A94D914CD
:100DD000C0F3DA94F101ED0DF11D808190E0B301D3
:100DE0000E944408DD20A9F706C080E290E0B3012C
:100DF0000E944408EA94EE20C1F743CEF3016681D5
:100E00007781CB012B96E2E10C940C090F931F9391
:100E1000CF93DF93689F8001699F100D789F100D1D
:100E20001124C8010E942207EC01009729F060E01C
:100E300070E0A8010E943208CE01DF91CF911F918E
:100E40000F910895CF93DF93BC018230910510F488
:100E500062E070E0A0919A02B0919B02ED01E0E0A7
:100E6000F0E040E050E021C0888199818617970723
:100E700069F48A819B81309719F09383828304C03F
:100E800090939B0280939A02FE0134C06817790701
:100E900038F44115510519F08417950708F4AC0191
:100EA000FE018A819B819C01E9012097E9F64115A9
:100EB0005105A9F1CA01861B970B049708F4BA01E2
:100EC000E0E0F0E02AC08D919C911197841795077E
:100ED000F9F46417750781F412968D919C9113971C
:100EE000309719F09383828304C090939B02809380
:100EF0009A02FD0132964FC0CA01861B970BFD0175
:100F0000E80FF91F6193719302978D939C9343C0EF
:100F1000FD01828193819C01D9011097A1F68091F6
:100F2000980290919902892B41F480918E029091C0
:100F30008F02909399028093980240919002509171
:100F400091024115510541F44DB75EB780918C0275
:100F500090918D02481B590B209198023091990273
:100F600024173507B0F4CA01821B930B8617970725
:100F700080F0AB014E5F5F4F8417950750F0420F32
:100F8000531F5093990240939802F9016193719312
:100F900002C0E0E0F0E0CF01DF91CF910895CF9360
:100FA000DF93009709F450C0EC0122971B821A824C
:100FB000A0919A02B0919B02109709F140E050E095
:100FC000AC17BD0708F1BB83AA83FE0121913191C3
:100FD000E20FF31FAE17BF0779F48D919C91119723
:100FE000280F391F2E5F3F4F3983288312968D912A
:100FF0009C9113979B838A834115510571F4D0937B
:101000009B02C0939A0220C012968D919C911397D7
:10101000AD01009711F0DC01D3CFFA01D383C28375
:1010200021913191E20FF31FCE17DF0769F4888118
:101030009981280F391F2E5F3F4FFA01318320839A
:101040008A819B8193838283DF91CF910895FC01F4
:101050000590615070400110D8F7809590958E0FE3
:101060009F1F0895DC0101C06D9341505040E0F78F
:101070000895FC016150704001900110D8F78095EF
:1010800090958E0F9F1F08950F931F93CF93DF931B
:101090008C01EB018B8181FF1BC082FF0DC02E8173
:1010A0003F818C819D812817390764F4E881F9819B
:1010B0000193F983E88306C0E885F985802F0995B7
:1010C000892B31F48E819F8101969F838E8302C08C
:1010D0000FEF1FEFC801DF91CF911F910F9108957E
:1010E000FA01AA27283051F1203181F1E8946F9359
:1010F0006E7F6E5F7F4F8F4F9F4FAF4FB1E03ED0FF
:10110000B4E03CD0670F781F891F9A1FA11D680F9C
:10111000791F8A1F911DA11D6A0F711D811D911DCF
:10112000A11D20D009F468943F912AE0269F112444
:101130003019305D3193DEF6CF010895462F4770A8
:10114000405D4193B3E00FD0C9F7F6CF462F4F7003
:10115000405D4A3318F0495D31FD4052419302D061
:10116000A9F7EACFB4E0A695979587957795679507
:10117000BA95C9F700976105710508959B01AC0107
:101180000A2E06945795479537952795BA95C9F72E
:10119000620F731F841F951FA01D0895A1E21A2ED0
:1011A000AA1BBB1BFD010DC0AA1FBB1FEE1FFF1F0B
:1011B000A217B307E407F50720F0A21BB30BE40B5B
:1011C000F50B661F771F881F991F1A9469F76095A2
:1011D0007095809590959B01AC01BD01CF0108955C
:1011E0002F923F924F925F926F927F928F929F9237
:1011F000AF92BF92CF92DF92EF92FF920F931F9325
:10120000CF93DF93CDB7DEB7CA1BDB0B0FB6F894D5
:10121000DEBF0FBECDBF09942A88398848885F8415
:101220006E847D848C849B84AA84B984C884DF8086
:10123000EE80FD800C811B81AA81B981CE0FD11D6A
:101240000FB6F894DEBF0FBECDBFED010895F89440
:02125000FFCFCE
:10125200496E697469616C697A6174696F6E206341
:101262006F6D706C6574650043414E5F7465737495
:101272003A202564005374617274696E672E2E2EB3
:10128200004572726F722121212052414D206E6FF2
:101292002E2030782578200046696E69736865646F
:1012A20021212100000000000000000000526563BF
:1012B20065697665643A200043414E5F74657374D4
:1012C20020737461727465640053656E64696E673D
:1012D20020737472696E673A202573003133323499
:1012E20035363738393130313131323133313431C9
:1012F200353136313731383139323000656E7370FD
:10130200696C6C657220706F656E6700656E7370D4
:10131200696C6C65722065766967007665727375B3
:101322007320706F656E67007665727375732065E2
:10133200766967006C656674007269676874007527
:101342007000646F776E00656E7465720063656E1F
:10135200746572006572726F720056656C6B6F6DA8
:101362006D656E00737461746520666F723A202534
:10137200640A0073746174652065747465723A203E
:1013820025640A003120537461727420656E737093
:10139200696C6C657220706F656E670032205374E1
:1013A20061727420656E7370696C6C65722065760B
:1013B2006967003320537461727420666C657273BE
:1013C2007020706F656E67003420537461727420F0
:1013D200666C6572737020657669670020009C02F6
:0213E200000009
:00000001FF
