:100000000C9438000C947E000C94A8000C94FC0016
:100010000C9455000C9455000C9455000C9455000C
:100020000C9455000C9455000C9455000C945500FC
:100030000C9455000C9455000C9455000C945500EC
:100040000C94D2000C9455000C9455000C9455005F
:100050000C9455000C9455000C9455000C945500CC
:100060000C9455000C9455000C9455000C945500BC
:1000700011241FBECFEFD4E0DEBFCDBF12E0A0E061
:10008000B1E0E8E7FAE202C005900D92A23AB107AA
:10009000D9F712E0A2EAB2E001C01D92AE3AB10770
:1000A000E1F70E9457000C943A150C940000DF937E
:1000B000CF93CDB7DEB70E94120480E895E20E948C
:1000C000260180E091E00E94E0100E94DD010E9484
:1000D000F9010E94F4030E9416040E94700286E057
:1000E00091E00E94E01078948EE191E060E070E091
:1000F0000E94F2050E9430070000FECF1F920F926F
:100100000FB60F9211242F933F934F935F936F93EA
:100110007F938F939F93AF93BF93EF93FF93DF935F
:10012000CF93CDB7DEB70E94D406CF91DF91FF9178
:10013000EF91BF91AF919F918F917F916F915F915F
:100140004F913F912F910F900FBE0F901F901895D8
:100150001F920F920FB60F9211242F933F934F933C
:100160005F936F937F938F939F93AF93BF93EF931F
:10017000FF93DF93CF93CDB7DEB70E940207CF91F5
:10018000DF91FF91EF91BF91AF919F918F917F91FF
:100190006F915F914F913F912F910F900FBE0F90F4
:1001A0001F9018951F920F920FB60F9211242F9344
:1001B0003F934F935F936F937F938F939F93AF93EF
:1001C000BF93EF93FF93DF93CF93CDB7DEB70E943A
:1001D0004103CF91DF91FF91EF91BF91AF919F913B
:1001E0008F917F916F915F914F913F912F910F90E0
:1001F0000FBE0F901F9018951F920F920FB60F927F
:1002000011242F933F934F935F936F937F938F931B
:100210009F93AF93BF93EF93FF93DF93CF93CDB7AC
:10022000DEB70E94D203CF91DF91FF91EF91BF9192
:10023000AF919F918F917F916F915F914F913F917E
:100240002F910F900FBE0F901F901895DF93CF93B3
:10025000CDB7DEB727970FB6F894DEBF0FBECDBF80
:100260009F838E838E819F81CC01A0E0B0E08A8342
:100270009B83AC83BD838A819B81AC81BD81880FC8
:10028000991FAA1FBB1F880F991FAA1FBB1F880F8A
:10029000991FAA1FBB1F880F991FAA1FBB1F9C0174
:1002A000AD018AEF90E0ABE4B0E0BC01CD010E946B
:1002B000CD14DA01C9010197A109B1098A839B8391
:1002C000AC83BD831982E0E4F0E08A819B81AC813C
:1002D000BD81892F9A2FAB2FBB278083E9E2F0E005
:1002E0008A818083EAE2F0E088E180838981866008
:1002F0008983898180628983898180688983E0E438
:10030000F0E08981808385E991E02CEB31E0B9014F
:100310000E947F1080E090E027960FB6F894DEBF31
:100320000FBECDBFCF91DF910895DF93CF9300D063
:100330000F92CDB7DEB789837B836A8389818A3048
:1003400031F42A813B818DE0B9010E949501EBE2F5
:10035000F0E08081882F90E0807290700097B9F370
:10036000ECE2F0E08981808380E090E00F900F90D4
:100370000F90CF91DF910895DF93CF9300D00F922C
:10038000CDB7DEB79B838A83EBE2F0E080818823E0
:10039000DCF7ECE2F0E08081898389818D3011F413
:1003A0008AE08983ECE2F0E08081882F90E00F9072
:1003B0000F900F90CF91DF910895DF93CF93CDB73A
:1003C000DEB7A5E5B0E0E5E5F0E08081806C8C93D8
:1003D000A6E5B0E0E6E5F0E0808184608C93A0E5DE
:1003E000B0E0E0E5F0E0808180628C93CF91DF9116
:1003F0000895DF93CF93CDB7DEB727970FB6F89464
:10040000DEBF0FBECDBF80E090E19F838E8300D022
:10041000EDB7FEB7319684E291E0918380830E942C
:10042000CB100F900F901D821C820EC02C813D813D
:100430008E819F81FC01E20FF31F83E880838C8112
:100440009D8101969D838C838C819D8128E08030E5
:10045000920764F31D821C8230C02C813D818E8105
:100460009F81FC01E20FF31F80818B838B81882F9A
:1004700090E09A8389832C813D818E819F81FC014C
:10048000E20FF31F8081833899F000D000D0EDB7E0
:10049000FEB7319683E391E0918380838C819D81C7
:1004A000938382830E94CB100F900F900F900F9038
:1004B0008C819D8101969D838C838C819D8128E018
:1004C0008030920754F28AE491E00E94E01027966F
:1004D0000FB6F894DEBF0FBECDBFCF91DF91089568
:1004E000DF93CF93CDB7DEB728970FB6F894DEBF72
:1004F0000FBECDBFA7E3B0E0E7E3F0E080818E7FE1
:100500008C93A8E3B0E0E8E3F0E080818C93A6E26E
:10051000B0E0E6E2F0E080818E7F8C93A7E2B0E06D
:10052000E7E2F0E0808181608C93A6E5B0E0E6E54B
:10053000F0E080818E7F8C93ABE5B0E0EBE5F0E0FE
:10054000808180628C93E3E5F0E08DE0808380E33E
:10055000898388EF8A838FEF8B838FEF8C838FEF74
:100560008D838FEF8E838FEF8F838FEF8887E1E509
:10057000F0E089818083A9E5B0E0E9E5F0E08081E1
:1005800081608C9328960FB6F894DEBF0FBECDBF66
:10059000CF91DF910895DF93CF9300D000D000D0AA
:1005A000CDB7DEB78B8380E098E19A8389838B8116
:1005B000282F30E03E832D838D819E8188379105E1
:1005C00031F02D813E8129373105B9F02EC0E98106
:1005D000FA8184E08083E6E3F0E08081882F90E078
:1005E000817090708823B9F7E981FA818081882F22
:1005F00090E00E9420038C8319C0E981FA8185E094
:100600008083E6E3F0E08081882F90E08170907035
:100610008823B9F7E981FA818081882F90E08050A2
:100620009F4F0E9420038C8301C01C828C812696E0
:100630000FB6F894DEBF0FBECDBFCF91DF91089506
:10064000DF93CF9300D00F92CDB7DEB79B838A8321
:10065000ECE3F0E08081882F90E08270907000974A
:10066000B9F7EEE3F0E08A819B8191838083E09A81
:100670008DB3898389810F900F900F90CF91DF9177
:1006800008950F931F93DF93CF9300D0CDB7DEB7BC
:100690008091A2029091A30201969093A30280936D
:1006A000A2028EE491E09A838983E981FA818FE046
:1006B000808389819A81FC01319688E780838981D2
:1006C0009A818C010E5F1F4F88E70E94CB02F801D0
:1006D000808389819A816FE170E00E94F2058091A8
:1006E000A2029091A30224E130E0B9010E94BA1461
:1006F0000097C1F489819A81FC0132968081282F6C
:1007000030E000D000D0EDB7FEB7319686E591E03D
:1007100091838083338322830E94CB100F900F90AC
:100720000F900F9089819A81FC01319689E780832F
:1007300089819A818C010E5F1F4F89E70E94CB024D
:10074000F801808389819A816FE170E00E94F2054F
:100750008091A2029091A30224E130E0B9010E94AD
:10076000BA140097C1F489819A81FC013296808184
:10077000282F30E000D000D0EDB7FEB731968DE5E0
:1007800091E091838083338322830E94CB100F906A
:100790000F900F900F900F900F90CF91DF911F91BE
:1007A0000F910895DF93CF9300D0CDB7DEB784E6E5
:1007B00091E00E94E0108EE491E09A838983E981C0
:1007C000FA818FE0808389819A81FC01319682E6EB
:1007D000808389819A816FE170E00E94F2050F9019
:1007E0000F90CF91DF91089587B38770886B87BB97
:1007F00081E58DB988B3886188BB08958FB9779BEF
:10080000FECF089580E48FB9779BFECF779BFECF14
:100810008FB10895823611F4C3980895833709F48F
:10082000C498089588B3886188BB0895DF93CF93F7
:1008300000D0CDB7DEB70E94C2098FEF898380EE6A
:100840008A83898160E20E945D0A8A8161E20E9456
:100850005D0A83E0898380EE8A83898160E00E945B
:100860005D0A8A8161E00E945D0A8FEF898380EED4
:100870008A83898164E20E945D0A8A8165E20E941E
:100880005D0A19821A82898168E00E945D0A8A8164
:1008900069E00E945D0A198280E28A83898160E1B1
:1008A0000E945D0A8A8161E10E945D0A198280E4EA
:1008B0008A83898164E10E945D0A8A8165E10E94E0
:1008C0005D0A198280E68A83898168E10E945D0A57
:1008D0008A8169E10E945D0A8FE060EE40E00E943B
:1008E000050B80E660E640E20E94050B8CE06FE0BD
:1008F0004FEF0E94050B0E94B2060F900F90CF9110
:10090000DF910895DF93CF93CDB7DEB769970FB628
:10091000F894DEBF0FBECDBF83E791E00E94E010E8
:100920001A8A198A88E08B8B84E891E09D8B8C8BE6
:10093000188A1F8644C18F859889998F888F888DE2
:10094000998D8430910509F46BC0888D998D85301F
:100950009105ECF4888D998D8130910509F445C09D
:10096000888D998D823091052CF4888D998D009712
:1009700099F18BC0888D998D8230910509F43EC024
:10098000888D998D8330910509F441C07EC0888D92
:10099000998D8730910509F45EC0888D998D8830D6
:1009A00091056CF4888D998D8530910509F441C0CD
:1009B000888D998D8630910509F444C066C0888D74
:1009C000998D8830910509F44FC0888D998D8930B3
:1009D000910509F452C059C086E891E09D8B8C8B3B
:1009E0008FE190E09A8B898B50C088E891E09D8BD5
:1009F0008C8B8EE190E09A8B898B47C08AE891E0DE
:100A00009D8B8C8B82E090E09A8B898B3EC08CE82A
:100A100091E09D8B8C8B83E090E09A8B898B35C025
:100A20008EE891E09D8B8C8B84E090E09A8B898B93
:100A30002CC080E991E09D8B8C8B85E090E09A8BB7
:100A4000898B23C082E991E09D8B8C8B86E090E0BE
:100A50009A8B898B1AC084E991E09D8B8C8B87E0FF
:100A600090E09A8B898B11C086E991E09D8B8C8BED
:100A700088E090E09A8B898B08C088E991E09D8B93
:100A80008C8B89E090E09A8B898B2C893D8900D0F2
:100A900000D0EDB7FEB731968AE991E0918380836B
:100AA000338322830E94CB100F900F900F900F90F2
:100AB0004C895D8989899A899C01CA01B9010E9482
:100AC000F205009729F08FEF9FEF9F8B8E8B7FC0F1
:100AD00080E090E0AAEFB3E48B879C87AD87BE8768
:100AE0006B857C858D859E852AE93BE949E954E43F
:100AF0000E94FB0CDC01CB018F839887A987BA8702
:100B00006F81788589859A8520E030E040E85FE351
:100B10000E94550E88232CF481E090E09E838D8303
:100B20003FC06F81788589859A8520E03FEF4FE748
:100B300057E40E94F50D18164CF56B857C858D8564
:100B40009E8520E030E040E251E40E94FB0CDC0195
:100B5000CB01BC01CD010E94250BDC01CB019E83A2
:100B60008D830FC08AE790E09C838B838B819C816F
:100B70000197F1F79C838B838D819E8101979E83E2
:100B80008D838D819E81009769F714C06F81788570
:100B900089859A850E94250BDC01CB019E838D837C
:100BA0008D819E819A83898389819A810197F1F74A
:100BB0009A8389838F8598890196988B8F878F85F3
:100BC00098898A3091050CF4B6CE1F8A1E8A8E89C8
:100BD0009F8969960FB6F894DEBF0FBECDBFCF9147
:100BE000DF910895DF93CF93CDB7DEB72E970FB681
:100BF000F894DEBF0FBECDBF9A8789877C876B874D
:100C00001C821B828DEA91E09A8389831E821D8259
:100C100015C029813A818D819E81D901A80FB91F04
:100C200029853A858D819E81F901E80FF91F808120
:100C30008C938D819E8101969E838D838D819E8173
:100C40008830910530F38B859C8595958795959592
:100C5000879595958795982F81E36FEF492F0E948F
:100C6000050B8B85982F9295990F907E82E360EE0D
:100C7000492F0E94050B88E065E30E945D0A898187
:100C80009A8160E00E947A0A80E00E94B70A1E8280
:100C90001D820DC00E94DB0A882F90E08470907046
:100CA000009759F08D819E8101969E838D838D8161
:100CB0009E812FEF8F3F920769F78D819E812FEFE5
:100CC0008F3F920729F48FEF9FEF9E878D8702C099
:100CD0001E861D868D859E852E960FB6F894DEBFE6
:100CE0000FBECDBFCF91DF910895DF93CF9300D09A
:100CF00000D000D0CDB7DEB79A8389837C836B8325
:100D00000E94DB0A282F30E08B819C81880F991F7D
:100D1000019682239323009799F38B819C818130E4
:100D2000910569F40E94F00A882F90E08074907019
:100D3000009729F08FEF9FEF9E838D8308C02B8152
:100D400089819A81622F0E94120A1E821D828D81E2
:100D50009E8126960FB6F894DEBF0FBECDBFCF9111
:100D6000DF910895DF93CF93CDB7DEB7A1E3B0E075
:100D7000E1E3F0E08081837F8C93A2E3B0E0E2E3E3
:100D8000F0E080818C608C93A5E5B0E0E5E5F0E0D3
:100D900080818C93ABE5B0E0EBE5F0E08081806C86
:100DA0008C93CF91DF910895DF93CF9300D000D043
:100DB0000F92CDB7DEB785EB91E09D838C83CE019A
:100DC000019660E070E00E947506009799F42C810E
:100DD0003D8100D000D0EDB7FEB731968EEB91E0AB
:100DE00091838083338322830E94CB100F900F90D6
:100DF0000F900F900F900F900F900F900F90CF913A
:100E0000DF910895DF93CF9300D000D00F92CDB73C
:100E1000DEB785EB91E09D838C83CE01019661E086
:100E200070E00E947506009799F42C813D8100D0F6
:100E300000D0EDB7FEB7319688EC91E091838083C6
:100E4000338322830E94CB100F900F900F900F904E
:100E50000F900F900F900F900F90CF91DF9108950A
:100E6000DF93CF93CDB7DEB727970FB6F894DEBFE9
:100E70000FBECDBF8FEF8B8380E38A8382ED91E03D
:100E80000E943B088A8189830E9475088A839A811F
:100E900089819817B9F38A81282F30E03F832E8308
:100EA0008E819F818536910541F12E813F812636C5
:100EB00031055CF48E819F818033910519F32E8179
:100EC0003F8124363105A9F01FC08E819F81823772
:100ED0009105C1F22E813F812537310531F08E8198
:100EE0009F818C36910571F20FC08B8181508B836D
:100EF0000FC08B818F5F8B830BC08B81992787FD00
:100F000090950E94080904C08CED91E00E943B0876
:100F10008B81282F332727FD309500D000D0EDB7E7
:100F2000FEB7319682EE91E09183808333832283F2
:100F30000E94CB100F900F900F900F908B81882301
:100F400014F483E08B838B8184300CF01B828B81C3
:100F5000282F332727FD30953D832C838C819D815D
:100F600081309105D1F02C813D81223031052CF466
:100F70008C819D81009761F01FC02C813D812230C2
:100F8000310581F08C819D818330910581F014C001
:100F900081EF91E00E943B0875CF83E092E00E94D0
:100FA0003B0870CF84E192E00E943B086BCF88E25F
:100FB00092E00E943B0866CF1B8264CFDF93CF9301
:100FC00000D000D0CDB7DEB780E38A838A818983E1
:100FD0000E9475088A839A8189819817B9F38A815A
:100FE000282F30E03C832B838B819C8185369105B3
:100FF00099F12B813C81263631055CF48B819C81F3
:101000008033910571F12B813C8124363105F9F053
:101010002DC08B819C818237910579F02B813C8199
:101020002537310579F08B819C818C369105F1F45F
:101030008BE392E00E943B08C9CF80E492E00E94DB
:101040003B08C4CF86E492E00E943B08BFCF89E40E
:1010500092E00E943B08BACF8EE492E00E943B08E7
:10106000B5CF84E592E00E943B08B0CF8CED91E0D3
:101070000E943B08ABCFDF93CF9300D000D0CDB719
:10108000DEB79C838B83F89482E60E940A041A825E
:10109000198219C029813A818B819C81FC01E20F60
:1010A000F31F80818823A1F029813A818B819C8163
:1010B000FC01E20FF31F80810E94FE0389819A8167
:1010C00001969A83898389819A818831910514F3E5
:1010D00080E00E94FE030E94120478940F900F900B
:1010E0000F900F90CF91DF910895DF93CF93CDB7FD
:1010F000DEB72F970FB6F894DEBF0FBECDBFF894C2
:1011000082E60E940A048EE20E94FE0380E090E0E4
:10111000A0E2B1E48B879C87AD87BE876B857C8519
:101120008D859E852AE93BE949E954E40E94FB0C40
:10113000DC01CB018F839887A987BA876F81788577
:1011400089859A8520E030E040E85FE30E94550EF3
:1011500088232CF481E090E09E838D833FC06F81D3
:10116000788589859A8520E03FEF4FE757E40E9414
:10117000F50D18164CF56B857C858D859E8520E0D8
:1011800030E040E251E40E94FB0CDC01CB01BC01E9
:10119000CD010E94250BDC01CB019E838D830FC006
:1011A0008AE790E09C838B838B819C810197F1F788
:1011B0009C838B838D819E8101979E838D838D81FE
:1011C0009E81009769F714C06F81788589859A851B
:1011D0000E94250BDC01CB019E838D838D819E8136
:1011E0009A83898389819A810197F1F79A83898308
:1011F0000E9402048F870E94120478948F852F9694
:101200000FB6F894DEBF0FBECDBFCF91DF9108952A
:10121000DF93CF93CDB7DEB761970FB6F894DEBFFB
:101220000FBECDBF8F878F85282F332727FD3095A1
:10123000398B288B8889998981309105D1F028894B
:101240003989223031052CF488899989009761F019
:1012500090C0288939892230310581F0888999899F
:101260008330910581F085C08BE592E00E943B08B8
:101270000EC08BE692E00E943B0809C08AE792E02C
:101280000E943B0804C087E892E00E943B0880E08F
:1012900090E0AAEFB4E48B879C87AD87BE876B850F
:1012A0007C858D859E852AE93BE949E954E40E94C5
:1012B000FB0CDC01CB018F839887A987BA876F81EC
:1012C000788589859A8520E030E040E85FE30E94D8
:1012D000550E88232CF481E090E09E838D833FC0DF
:1012E0006F81788589859A8520E03FEF4FE757E445
:1012F0000E94F50D18164CF56B857C858D859E85B5
:1013000020E030E040E251E40E94FB0CDC01CB0124
:10131000BC01CD010E94250BDC01CB019E838D8396
:101320000FC08AE790E09C838B838B819C8101971F
:10133000F1F79C838B838D819E8101979E838D83A2
:101340008D819E81009769F714C06F8178858985AA
:101350009A850E94250BDC01CB019E838D838D81B4
:101360009E819A83898389819A810197F1F79A8373
:10137000898361960FB6F894DEBF0FBECDBFCF91C3
:10138000DF910895DF93CF93CDB7DEB783E70E9457
:101390000A0480EC0E94FE030E941204CF91DF91A8
:1013A00008950F931F93DF93CF93CDB7DEB72797A1
:1013B0000FB6F894DEBF0FBECDBF9C838B836D83C9
:1013C0005F834E8383E70E940A0483E00E94FE034A
:1013D0008D810E94FE031A82198210C029813A81F0
:1013E0008B819C818C01020F131F0E940204F80163
:1013F000808389819A8101969A83898329813A81A0
:101400008E819F81281739074CF30E94120427967A
:101410000FB6F894DEBF0FBECDBFCF91DF911F9105
:101420000F9108950F931F93DF93CF9300D000D0B7
:101430000F92CDB7DEB79C838B836D838D81823015
:1014400090F58D81882319F481E08D8305C08D810D
:10145000813011F483E08D8383E70E940A048D813B
:10146000882F90E0880F991F80690E94FE031A82DE
:10147000198212C0EB81FC812381348189819A8198
:101480008901080F191F0E940204F80180838981D5
:101490009A8101969A83898389819A8188309105FE
:1014A0004CF30E9412040F900F900F900F900F902A
:1014B000CF91DF911F910F910895DF93CF9300D0CB
:1014C00000D0CDB7DEB78B836C8383E70E940A041C
:1014D00082E00E94FE038C810E94FE038B810E94A9
:1014E000FE030E9412040F900F900F900F90CF9167
:1014F000DF910895DF93CF9300D000D00F92CDB746
:10150000DEB79C838B836D838D81833040F58D8125
:10151000882F90E00196880F991F81508D8383E773
:101520000E940A048D8180640E94FE031A8219823F
:101530000FC029813A818B819C81FC01E20FF31F4E
:1015400080810E94FE0389819A8101969A83898312
:1015500089819A818830910564F30E9412040F906A
:101560000F900F900F900F90CF91DF910895DF9320
:10157000CF930F92CDB7DEB789838981882319F481
:1015800081E089830BC08981813019F482E08983ED
:1015900005C08981823059F484E0898383E70E9401
:1015A0000A04898180680E94FE030E9412040F9041
:1015B000CF91DF910895DF93CF930F92CDB7DEB730
:1015C00083E70E940A0480EA0E94FE030E9402044C
:1015D00089830E94120489810F90CF91DF91089531
:1015E000DF93CF930F92CDB7DEB783E70E940A0453
:1015F00080EB0E94FE030E94020489830E94120471
:1016000089810F90CF91DF910895DF93CF9300D020
:101610000F92CDB7DEB789836A834B8383E70E943D
:101620000A0485E00E94FE0389810E94FE038A81EC
:101630000E94FE038B810E94FE030E9412040F9001
:101640000F900F90CF91DF910895EF92FF920F933B
:101650001F937B018C0120E030E040E05FE40E94BA
:10166000250E88238CF0C801B70120E030E040E06F
:101670005FE40E949D0C0E94850E9B01AC012050EE
:1016800030404040504806C0C801B7010E94850E56
:101690009B01AC01B901CA011F910F91FF90EF901E
:1016A0000895A0E0B0E0E7E5FBE00C940315DC0151
:1016B0002B01FA019C91923008F439C1EB01888129
:1016C000823008F433C1943069F4843009F02FC1BA
:1016D00011969C9111978981981709F428C1A3E963
:1016E000B2E025C1843009F421C18230A9F49230DE
:1016F00009F01DC19A01AD0188E0EA010990AE012F
:10170000E90109929E018150C1F7E2018981119698
:101710009C918923818308C1923009F407C11296F4
:101720002D903C901397EB018A819B811496AD908C
:10173000BD90CD90DC901797EC80FD800E811F81CD
:101740009101281B390BB90137FF04C066277727A1
:10175000621B730B603271050CF061C01216130628
:101760006CF537014801062E04C09694879477944F
:1017700067940A94D2F721E030E040E050E004C0E2
:10178000220F331F441F551F6A95D2F72150304056
:10179000404050402E213F21402351232115310547
:1017A0004105510521F021E030E040E050E07901B1
:1017B0008A01E628F728082919293CC0232BD1F1F2
:1017C000260E371E35014601062E04C096948794D6
:1017D000779467940A94D2F721E030E040E050E03B
:1017E00004C0220F331F441F551F6A95D2F72150A2
:1017F0003040404050402A213B214C215D212115A1
:1018000031054105510521F021E030E040E050E094
:1018100059016A01A628B728C828D9280BC0821503
:1018200093052CF01C01AA24BB24650103C0EE24FF
:10183000FF24870111969C91D20111968C919817E3
:1018400009F445C0992339F0A80197012A193B09E9
:101850004C095D0906C0A60195012E193F09400BF0
:10186000510B57FD08C011823382228224833583B5
:10187000468357831DC081E081833382228288277B
:101880009927DC01821B930BA40BB50B84839583F2
:10189000A683B7830DC0220F331F441F551F248317
:1018A0003583468357838281938101979383828313
:1018B0002481358146815781DA01C9010197A10947
:1018C000B1098F5F9F4FAF4FBF4328F30BC0918388
:1018D00033822282EA0CFB1C0C1D1D1DE482F58262
:1018E0000683178383E08083248135814681578175
:1018F00057FF1AC0C901AA2797FDA095BA2F81707A
:101900009070A070B0705695479537952795822BAB
:10191000932BA42BB52B84839583A683B7838281D5
:101920009381019693838283DF0101C0D201CD01AF
:10193000CDB7DEB7E2E10C941F15A0E2B0E0E3EA18
:10194000FCE00C940F1569837A838B839C832D8331
:101950003E834F835887E9E0EE2EF12CEC0EFD1EFE
:10196000CE010196B7010E94AE0F8E010F5E1F4F90
:10197000CE010596B8010E94AE0F8A8991E08927B1
:101980008A8BC701B801AE01475E5F4F0E94510BC1
:101990000E94D90EA096E6E00C942B15A0E2B0E0D0
:1019A000E4EDFCE00C940F1569837A838B839C83B0
:1019B0002D833E834F835887F9E0EF2EF12CEC0EF8
:1019C000FD1ECE010196B7010E94AE0F8E010F5E83
:1019D0001F4FCE010596B8010E94AE0FC701B80196
:1019E000AE01475E5F4F0E94510B0E94D90EA09638
:1019F000E6E00C942B15A0E2B0E0E1E0FDE00C94F1
:101A0000031569837A838B839C832D833E834F8365
:101A10005887CE010196BE01675F7F4F0E94AE0FCF
:101A2000CE010596BE016F5E7F4F0E94AE0F998575
:101A3000923088F089898230C8F0943019F482306D
:101A400051F404C0843029F4923081F483E992E0A7
:101A5000C6C0923049F420E09A858A89981321E023
:101A60002A87CE010996BBC0823049F420E09A85CE
:101A70008A89981321E02A8BCE014196B0C02D842B
:101A80003E844F8458886D887E888F88988CEE2499
:101A9000FF248701AA24BB24650140E050E060E0F8
:101AA00070E0E0E0F0E0C10181709070892BE9F016
:101AB000E60CF71C081D191D9A01AB012A0D3B1DF0
:101AC0004C1D5D1D80E090E0A0E0B0E0E614F7045E
:101AD0000805190520F481E090E0A0E0B0E0BA012B
:101AE000A901480F591F6A1F7B1FAA0CBB1CCC1CE5
:101AF000DD1C97FE08C081E090E0A0E0B0E0A82ADD
:101B0000B92ACA2ADB2A3196E032F10549F0660C7F
:101B1000771C881C991C5694479437942794C3CFFC
:101B2000FA85EA892B893C898B859C85280F391F8A
:101B30002E5F3F4F17C0CA0181709070892B61F0F2
:101B400016950795F794E79480E090E0A0E0B0E860
:101B5000E82AF92A0A2B1B2B769567955795479506
:101B60002F5F3F4F77FDE7CF0CC0440F551F661F17
:101B7000771F17FD4160EE0CFF1C001F111F215045
:101B80003040403090E0590790E0690790E47907D1
:101B900060F32B8F3C8FDB01CA018F779070A070B0
:101BA000B07080349105A105B10561F447FD0AC00C
:101BB000E114F1040105110529F0405C5F4F6F4FFE
:101BC0007F4F40781A8EFE1711F081E08A8F4D8F7B
:101BD0005E8F6F8F78A383E0898FCE0149960E9434
:101BE000D90EA096E2E10C941F15A8E1B0E0EBEF4E
:101BF000FDE00C940F1569837A838B839C832D837E
:101C00003E834F83588789E0E82EF12CEC0EFD1EB1
:101C1000CE010196B7010E94AE0F8E010F5E1F4FDD
:101C2000CE010596B8010E94AE0F8985823040F042
:101C30008989823028F0C701B8010E94261001C0AE
:101C40008FEF6896E6E00C942B15A8E1B0E0EBE28C
:101C5000FEE00C940F1569837A838B839C832D831C
:101C60003E834F83588789E0E82EF12CEC0EFD1E51
:101C7000CE010196B7010E94AE0F8E010F5E1F4F7D
:101C8000CE010596B8010E94AE0F8985823040F0E2
:101C90008989823028F0C701B8010E94261001C04E
:101CA0008FEF6896E6E00C942B15A8E1B0E0EBE529
:101CB000FEE00C940F1569837A838B839C832D83BC
:101CC0003E834F83588789E0E82EF12CEC0EFD1EF1
:101CD000CE010196B7010E94AE0F8E010F5E1F4F1D
:101CE000CE010596B8010E94AE0F8985823040F082
:101CF0008989823028F0C701B8010E94261001C0EE
:101D000081E06896E6E00C942B15ACE0B0E0EBE8DF
:101D1000FEE00C94131569837A838B839C83CE0138
:101D20000196BE016B5F7F4F0E94AE0F8D818230A6
:101D300061F1823050F1843021F48E81882351F199
:101D40002EC02F81388537FD20C06E812F3131059F
:101D50001CF06623F9F023C08EE190E0821B930B08
:101D600029853A854B855C8504C0569547953795FE
:101D700027958A95D2F76623B1F050954095309516
:101D800021953F4F4F4F5F4F0EC020E030E040E0C5
:101D900050E009C02FEF3FEF4FEF5FE704C020E0B6
:101DA00030E040E050E8B901CA012C96E2E00C9422
:101DB0002F15DF92EF92FF920F931F93FC01E480A7
:101DC000F58006811781D1808081823048F480E0DF
:101DD00090E0A0E1B0E0E82AF92A0A2B1B2BA5C06D
:101DE000843009F49FC0823021F4EE24FF2487015F
:101DF00005C0E114F1040105110519F4E0E0F0E07B
:101E000096C0628173819FEF623879070CF05BC0E6
:101E100022E83FEF261B370B2A3131052CF020E05A
:101E200030E040E050E02AC0B801A701022E04C013
:101E300076956795579547950A94D2F781E090E09B
:101E4000A0E0B0E004C0880F991FAA1FBB1F2A950D
:101E5000D2F70197A109B1098E219F21A023B123B7
:101E60000097A105B10521F081E090E0A0E0B0E08D
:101E70009A01AB01282B392B4A2B5B2BDA01C901C4
:101E80008F779070A070B07080349105A105B10576
:101E900039F427FF09C0205C3F4F4F4F5F4F04C00C
:101EA000215C3F4F4F4F5F4FE0E0F0E02030A0E07B
:101EB0003A07A0E04A07A0E45A0710F0E1E0F0E09A
:101EC00079018A0127C06038710564F5FB01E1588A
:101ED000FF4FD801C7018F779070A070B070803429
:101EE0009105A105B10539F4E7FE0DC080E490E04D
:101EF000A0E0B0E004C08FE390E0A0E0B0E0E80E26
:101F0000F91E0A1F1B1F17FF05C016950795F794AA
:101F1000E794319687E016950795F794E7948A95AC
:101F2000D1F705C0EE24FF248701EFEFF0E06E2F1C
:101F3000679566276795902F9F77D794DD24D79470
:101F40008E2F8695492F462B582F5D29B701CA0140
:101F50001F910F91FF90EF90DF900895FC01DB013E
:101F6000408151812281622F6F7770E0221F2227EA
:101F7000221F9381892F880F822B282F30E0991FF1
:101F80009927991F11969C93119721153105A9F551
:101F9000411551056105710511F482E037C082E8F1
:101FA0009FEF13969C938E9312979A01AB0167E073
:101FB000220F331F441F551F6A95D1F783E08C937E
:101FC0000DC0220F331F441F551F12968D919C91F7
:101FD0001397019713969C938E931297203080E06D
:101FE000380780E0480780E4580758F314962D938B
:101FF0003D934D935C93179708952F3F310579F4E6
:10200000411551056105710519F484E08C9308951B
:1020100064FF03C081E08C9312C01C9210C02F5744
:10202000304013963C932E93129783E08C9387E075
:10203000440F551F661F771F8A95D1F77064149659
:102040004D935D936D937C93179708951F93DC01D7
:10205000FB019C91923008F447C08081823008F4E3
:1020600043C0943051F411961C91843099F58181CC
:10207000682F70E0611B71093FC0843021F09230FD
:1020800031F48230B9F18181882389F12DC0119614
:102090001C9111978230F1F081811817D9F41296B2
:1020A0002D913C911397828193818217930794F02D
:1020B00028173907BCF014968D919D910D90BC9115
:1020C000A02D2481358146815781281739074A0779
:1020D0005B0718F4112341F00AC082179307A40785
:1020E000B50740F4112319F061E070E005C06FEF0F
:1020F0007FEF02C060E070E0CB011F9108950F9365
:102100001F93CF93DF938C01EB01009731F461159E
:10211000710519F420E030E038C081E090E06EE015
:1021200070E00E94F212FC019C01009771F180E8BE
:102130008383209771F0D387C28781E8838380915E
:10214000A4029091A502892B21F4F093A502E093BB
:10215000A40201151105C9F01187008783818260EF
:1021600083838091A6029091A702892B71F4F0934A
:10217000A702E093A6028091A8029091A902892B60
:1021800021F4F093A902E093A802C901DF91CF9155
:102190001F910F910895A0E0B0E0E1EDF0E10C9403
:1021A0001315FE013596619171918091A60290916F
:1021B000A702AF010E9415112096E2E00C942F15A2
:1021C0000F931F93CF93DF938C01E091A602F091C0
:1021D000A702838181FF21C0C0E0D0E00DC0E09163
:1021E000A602F091A70220853185BF01F90109956A
:1021F000892B11F0CFEFDFEFF80181918F01882358
:1022000071F7E091A602F091A702208531858AE05E
:10221000BF01F9010995892B11F0CFEFDFEFCE0156
:10222000DF91CF911F910F910895ABE0B0E0EBE10A
:10223000F1E10C9403153C012B015A01FC011782BA
:102240001682838181FD03C06FEF7FEFC6C19AE0E4
:10225000892E1E010894211C311CF3012381F201F7
:1022600023FD859123FF81912F01882309F4B2C1B9
:10227000853239F423FD859123FF81912F01853229
:1022800029F490E0B3010E943014E7CF982FFF2487
:10229000EE249924FFE1FF15D0F09B3269F09C32C7
:1022A00028F4903259F0933291F40EC09D3249F0E7
:1022B000903369F441E024C052E0F52A84E0F82A22
:1022C00028C098E0F92A25C0E0E1FE2A22C0F7FCE8
:1022D00029C0892F80538A3070F4F6FE05C0989C7F
:1022E000902C1124980E15C0E89CE02C1124E80EC7
:1022F000F0E2FF2A0EC09E3229F4F6FC6BC140E4E6
:10230000F42A07C09C3619F450E8F52A02C0983622
:1023100049F4F20123FD959123FF91912F01992317
:1023200009F0B8CF892F8554833018F0805283305C
:1023300038F444E050E0A40EB51E5FE359830FC0AB
:10234000933631F0933779F0933509F056C020C0B9
:10235000F5018081898342E050E0A40EB51E610141
:1023600001E010E012C0F501C080D180F6FC03C08E
:102370006FEF7FEF02C0692D70E042E050E0A40EE5
:10238000B51EC6010E9425148C015FE7F52214C01A
:10239000F501C080D180F6FC03C06FEF7FEF02C073
:1023A000692D70E042E050E0A40EB51EC6010E9407
:1023B00013148C0150E8F52AF3FE07C01AC080E21E
:1023C00090E0B3010E943014EA948E2D90E008173B
:1023D0001907A8F30EC0F601F7FC8591F7FE81916D
:1023E0006F0190E0B3010E943014E110EA940150B3
:1023F00010400115110579F7EAC0943611F09936AD
:1024000069F5F7FE08C0F5012081318142815381D1
:1024100084E090E00AC0F501808191819C0144270D
:1024200037FD4095542F82E090E0A80EB91E9FE63C
:10243000F92257FF09C050954095309521953F4F9F
:102440004F4F5F4FE0E8FE2ACA01B901A1012AE01F
:1024500030E00E945C14D82ED21840C0953729F481
:102460001F2D1F7E2AE030E01DC01F2D197F9F36D3
:1024700061F0903720F4983509F0ACC00FC0903768
:1024800039F0983709F0A6C004C028E030E00AC04F
:10249000106114FD146020E130E004C014FD1660EA
:1024A00020E132E017FF08C0F5016081718182816F
:1024B000938144E050E008C0F50180819181BC0126
:1024C00080E090E042E050E0A40EB51EA1010E9421
:1024D0005C14D82ED2188FE7F82EF122F6FE0BC02E
:1024E0005EEFF522D91438F4F4FE07C0F2FC05C003
:1024F0008FEEF82202C01D2D01C0192DF4FE0DC073
:10250000FE01ED0DF11D8081803319F499EEF92261
:1025100008C01F5FF2FE05C003C08F2D867809F04A
:102520001F5F0F2DF3FC14C0F0FE0FC01E1510F03E
:102530009D2C0BC09D2C9E0C911A1E2D06C080E276
:1025400090E0B3010E9430141F5F1E15C0F304C059
:102550001E1510F4E11A01C0EE2404FF0FC080E341
:1025600090E0B3010E94301402FF1DC001FD03C0C2
:1025700088E790E00EC088E590E00BC0802F867859
:1025800091F001FF02C08BE201C080E2F7FC8DE216
:1025900090E0B3010E94301406C080E390E0B301E4
:1025A0000E9430149A94D914C0F3DA94F101ED0D1D
:1025B000F11D808190E0B3010E943014DD20A9F765
:1025C00006C080E290E0B3010E943014EA94EE204D
:1025D000C1F743CEF30166817781CB012B96E2E10F
:1025E0000C941F150F931F93CF93DF93689F800167
:1025F000699F100D789F100D1124C8010E940E13C1
:10260000EC01009729F060E070E0A8010E941E1420
:10261000CE01DF91CF911F910F910895CF93DF935A
:10262000BC018230910510F462E070E0A091AC0230
:10263000B091AD02ED01E0E0F0E040E050E021C0FB
:10264000888199818617970769F48A819B813097E1
:1026500019F09383828304C09093AD028093AC02FF
:10266000FE0134C06817790738F44115510519F097
:102670008417950708F4AC01FE018A819B819C01B7
:10268000E9012097E9F641155105A9F1CA01861B18
:10269000970B049708F4BA01E0E0F0E02AC08D91AE
:1026A0009C91119784179507F9F46417750781F4C5
:1026B00012968D919C911397309719F09383828392
:1026C00004C09093AD028093AC02FD0132964FC0DE
:1026D000CA01861B970BFD01E80FF91F61937193E7
:1026E00002978D939C9343C0FD01828193819C014D
:1026F000D9011097A1F68091AA029091AB02892B83
:1027000041F480919D0290919E029093AB02809340
:10271000AA0240919F025091A0024115510541F437
:102720004DB75EB780919B0290919C02481B590B5C
:102730002091AA023091AB0224173507B0F4CA01E8
:10274000821B930B8617970780F0AB014E5F5F4F9C
:102750008417950750F0420F531F5093AB024093DC
:10276000AA02F9016193719302C0E0E0F0E0CF01A9
:10277000DF91CF910895CF93DF93009709F450C074
:10278000EC0122971B821A82A091AC02B091AD029B
:10279000109709F140E050E0AC17BD0708F1BB838A
:1027A000AA83FE0121913191E20FF31FAE17BF07FB
:1027B00079F48D919C911197280F391F2E5F3F4F0F
:1027C0003983288312968D919C9113979B838A83DA
:1027D0004115510571F4D093AD02C093AC0220C0F5
:1027E00012968D919C911397AD01009711F0DC0129
:1027F000D3CFFA01D383C28321913191E20FF31F2A
:10280000CE17DF0769F488819981280F391F2E5F61
:102810003F4FFA01318320838A819B819383828396
:10282000DF91CF910895FC01059061507040011037
:10283000D8F7809590958E0F9F1F0895DC0101C0F9
:102840006D9341505040E0F70895FC016150704095
:1028500001900110D8F7809590958E0F9F1F0895D5
:102860000F931F93CF93DF938C01EB018B8181FF3B
:102870001BC082FF0DC02E813F818C819D81281756
:10288000390764F4E881F9810193F983E88306C08C
:10289000E885F985802F0995892B31F48E819F81F8
:1028A00001969F838E8302C00FEF1FEFC801DF9157
:1028B000CF911F910F910895FA01AA27283051F165
:1028C000203181F1E8946F936E7F6E5F7F4F8F4F61
:1028D0009F4FAF4FB1E03ED0B4E03CD0670F781FC0
:1028E000891F9A1FA11D680F791F8A1F911DA11DA5
:1028F0006A0F711D811D911DA11D20D009F46894DE
:102900003F912AE0269F11243019305D3193DEF685
:10291000CF010895462F4770405D4193B3E00FD03B
:10292000C9F7F6CF462F4F70405D4A3318F0495D26
:1029300031FD4052419302D0A9F7EACFB4E0A69509
:102940009795879577956795BA95C9F7009761052B
:10295000710508959B01AC010A2E06945795479581
:1029600037952795BA95C9F7620F731F841F951F76
:10297000A01D089597FB092E07260AD077FD04D0E5
:102980002ED006D000201AF4709561957F4F0895DF
:10299000F6F7909581959F4F0895A1E21A2EAA1BF4
:1029A000BB1BFD010DC0AA1FBB1FEE1FFF1FA217FF
:1029B000B307E407F50720F0A21BB30BE40BF50BFC
:1029C000661F771F881F991F1A9469F76095709585
:1029D000809590959B01AC01BD01CF010895AA1B84
:1029E000BB1B51E107C0AA1FBB1FA617B70710F0FA
:1029F000A61BB70B881F991F5A95A9F7809590952C
:102A0000BC01CD0108952F923F924F925F926F9239
:102A10007F928F929F92AF92BF92CF92DF92EF926E
:102A2000FF920F931F93CF93DF93CDB7DEB7CA1BEF
:102A3000DB0B0FB6F894DEBF0FBECDBF09942A881A
:102A4000398848885F846E847D848C849B84AA84C2
:102A5000B984C884DF80EE80FD800C811B81AA814F
:102A6000B981CE0FD11D0FB6F894DEBF0FBECDBF1A
:082A7000ED010895F894FFCF79
:102A7800726573657400496E697469616C697A611D
:102A880074696F6E20636F6D706C65746500707229
:102A9800696E740054657374696E672072616D2E77
:102AA8002E2E004572726F722121212052414D2035
:102AB8006E6F2E203078257820004F4B21000000C3
:102AC800000000000000783A2025640A00793A20C6
:102AD80025640A004A6F79737469636B206B6E61B1
:102AE80070700043414E5F74657374207374617233
:102AF8007465640020003000310032003300340077
:102B08003500360037003800390053656E64696E49
:102B18006720737472696E673A202573000000009D
:102B28000000000000000000000000000000434119
:102B38004E303A2025730A0043414E313A2025731E
:102B48000A0056656C6B6F6D6D656E006572726F0D
:102B580072006D656E7573746174653A2025640A38
:102B6800003120456E7370696C6C657220706F65FA
:102B78006E67003220456E7370696C6C65722065F3
:102B8800766967003320466C65727370696C6C6592
:102B98007220706F656E67003420466C65727370C2
:102BA800696C6C65722065766967006C656674008F
:102BB800726967687400757000646F776E00656E7F
:102BC8007465720063656E74657200656E73706912
:102BD8006C6C657220706F656E6700656E737069E6
:102BE8006C6C6572206576696700766572737573BB
:102BF80020706F656E6700766572737573206576F1
:102C080069670000000000000000002000AE02001C
:022C18000000BA
:00000001FF
