:100000000C9438000C9488000C9455000C94550006
:100010000C9455000C9455000C9455000C9455000C
:100020000C9455000C9455000C9455000C945500FC
:100030000C9455000C9455000C9455000C945500EC
:100040000C9455000C9455000C9455000C945500DC
:100050000C9455000C9455000C9455000C945500CC
:100060000C9455000C9455000C9455000C945500BC
:1000700011241FBECFEFD4E0DEBFCDBF11E0A0E062
:10008000B1E0E4E7FCE102C005900D92AE37B107A4
:10009000D9F711E0AEE7B1E001C01D92A838B10771
:1000A000E1F70E9457000C94380E0C940000DF9387
:1000B000CF930F92CDB7DEB780E895E20E94A801FA
:1000C0000E945F020E9455030E94DD0380E091E0E0
:1000D0000E94050AA2E3B0E0E2E3F0E080818460E0
:1000E0008C93A7E3B0E0E7E3F0E080818B7F8C9313
:1000F000A5E5B0E0E5E5F0E0808183608C93ABE5B9
:10010000B0E0EBE5F0E0808180648C937894FFCFE1
:100110001F920F920FB60F9211242F933F934F937C
:100120005F936F937F938F939F93AF93BF93EF935F
:10013000FF93DF93CF93CDB7DEB76197DEBFCDBF1F
:100140008EE290E00E94F70380E090E0A0E8BFE339
:100150008B879C87AD87BE876B857C858D859E85CB
:100160002AE93BE949E954E40E942006DC01CB017D
:100170008F839887A987BA876F81788589859A85C3
:1001800020E030E040E85FE30E947A0788232CF407
:1001900081E090E09E838D833FC06F817885898563
:1001A0009A8520E03FEF4FE757E40E941A071816A0
:1001B0004CF56B857C858D859E8520E030E040E2A6
:1001C00051E40E942006DC01CB01BC01CD010E945C
:1001D0004A04DC01CB019E838D830FC08AE790E047
:1001E0009C838B838B819C810197F1F79C838B830C
:1001F0008D819E8101979E838D838D819E81009745
:1002000069F714C06F81788589859A850E944A04B0
:10021000DC01CB019E838D838D819E819A838983AE
:1002200089819A810197F1F79A8389830E94380422
:100230008F878F85282F30E0398B288B8889998983
:100240008536910509F444C0288939892636310557
:1002500064F4888999898033910509F442C028891A
:1002600039892436310559F145C088899989823701
:10027000910599F02889398925373105B9F08889A0
:1002800099898C369105B1F586E091E00E940A04C7
:1002900086E091E00E94050A45C08BE091E00E9453
:1002A0000A048BE091E00E94050A3CC081E191E0E4
:1002B0000E940A0481E191E00E94050A33C084E1B2
:1002C00091E00E940A0484E191E00E94050A2AC09C
:1002D00089E191E00E940A0489E191E00E94050A07
:1002E00021C08FE191E00E940A0488E291E00E941F
:1002F000050A18C08FE291E00E940A048F85282F1A
:1003000030E000D000D0EDB7FEB7319685E391E044
:1003100091838083338322830E94F0090F900F9092
:100320000F900F906196DEBFCDBFCF91DF91FF910F
:10033000EF91BF91AF919F918F917F916F915F915D
:100340004F913F912F910F900FBE0F901F901895D6
:10035000DF93CF93CDB7DEB727970FB6F894DEBF04
:100360000FBECDBF9F838E838E819F81CC01A0E085
:10037000B0E08A839B83AC83BD838A819B81AC81FF
:10038000BD81880F991FAA1FBB1F880F991FAA1F25
:10039000BB1F880F991FAA1FBB1F880F991FAA1F79
:1003A000BB1F9C01AD018AEF90E0ABE4B0E0BC0163
:1003B000CD010E94DF0DDA01C9010197A109B10940
:1003C0008A839B83AC83BD831982E0E4F0E08A8159
:1003D0009B81AC81BD81892F9A2FAB2FBB27808356
:1003E000E9E2F0E08A818083EAE2F0E088E180835C
:1003F0008981866089838981806289838981806817
:100400008983E0E4F0E08981808387E192E02EE354
:1004100032E0B9010E94A40980E090E027960FB66F
:10042000F894DEBF0FBECDBFCF91DF910895DF936B
:10043000CF9300D00F92CDB7DEB789837B836A83D9
:1004400089818A3031F42A813B818DE0B9010E9493
:100450001702EBE2F0E08081882F90E080729070CC
:100460000097B9F3ECE2F0E08981808380E090E0CE
:100470000F900F900F90CF91DF910895DF93CF935E
:1004800000D00F92CDB7DEB79B838A83EBE2F0E01A
:1004900080818823DCF7ECE2F0E080818983898128
:1004A0008D3011F48AE08983ECE2F0E08081882FBE
:1004B00090E00F900F900F90CF91DF910895DF9310
:1004C000CF93CDB7DEB7A5E5B0E0E5E5F0E08081FC
:1004D000806C8C93A6E5B0E0E6E5F0E08081846076
:1004E0008C93A0E5B0E0E0E5F0E0808180628C9341
:1004F000CF91DF910895DF93CF93CDB7DEB76597A6
:100500000FB6F894DEBF0FBECDBF80E090E19D8BAB
:100510008C8B80E491E00E94050A1B8A1A8A80C0B5
:100520002A893B898C899D89FC01E20FF31F83E8AE
:10053000808380E090E0A0E0B0E48B879C87AD876B
:10054000BE876B857C858D859E8520E030E04AE7FF
:1005500053E40E942006DC01CB018F839887A98792
:10056000BA876F81788589859A8520E030E040E8F8
:100570005FE30E947A0788232CF481E090E09E8359
:100580008D833FC06F81788589859A8520E03FEF14
:100590004FE757E40E941A0718164CF56B857C85C7
:1005A0008D859E8520E030E040E251E40E942006E7
:1005B000DC01CB01BC01CD010E944A04DC01CB016E
:1005C0009E838D830FC089E190E09C838B838B8118
:1005D0009C810197F1F79C838B838D819E8101978C
:1005E0009E838D838D819E81009769F714C06F81F2
:1005F000788589859A850E944A04DC01CB019E8317
:100600008D838D819E819A83898389819A810197C7
:10061000F1F79A8389838A899B8901969B8B8A8BC0
:100620008A899B8928E0803092070CF479CF1B8A55
:100630001A8A30C02A893B898C899D89FC01E20F86
:10064000F31F8081898B8989882F90E0988B8F8711
:100650002A893B898C899D89FC01E20FF31F8081E7
:10066000833899F000D000D0EDB7FEB731968CE416
:1006700091E0918380838A899B89938382830E94FE
:10068000F0090F900F900F900F908A899B89019627
:100690009B8B8A8B8A899B8928E08030920754F251
:1006A00083E691E00E94050AFFCFDF93CF93CDB799
:1006B000DEB7E7E3F0E01082E8E3F0E08FEF80835D
:1006C000CF91DF910895DF93CF9300D000D0CDB7C5
:1006D000DEB78B8380E098E19A8389838B818837AA
:1006E000B1F4E981FA8184E08083E6E3F0E080817F
:1006F000882F90E0817090708823B9F7E981FA81A2
:100700008081882F90E00E94AC038C831DC08B8178
:100710008937C1F4E981FA8186E08083E6E3F0E07D
:100720008081882F90E0817090708823B9F7E981EB
:10073000FA818081882F90E080509F4F0E94AC0307
:100740008C8302C08FEF8C838C810F900F900F9061
:100750000F90CF91DF910895DF93CF9300D00F9248
:10076000CDB7DEB79B838A83ECE3F0E08081882FEE
:1007700090E0827090700097B9F7EEE3F0E08A8124
:100780009B8191838083E09A8DB3898389810F90C7
:100790000F900F90CF91DF910895DF93CF93CDB756
:1007A000DEB7E6E3F0E08081882F90E086709070FD
:1007B00095958795CF91DF910895DF93CF93CDB72E
:1007C000DEB7A7E3B0E0E7E3F0E080818770886AF6
:1007D0008C93EDE2F0E081E58083A8E3B0E0E8E30C
:1007E000F0E08081877F8C93CF91DF910895DF9334
:1007F000CF930F92CDB7DEB78983EFE2F0E0898126
:100800008083EEE2F0E080818823DCF70F90CF91C7
:10081000DF910895DF93CF9300D000D0CDB7DEB73E
:100820009C838B831A8219820FC029813A818B8124
:100830009C81FC01E20FF31F80810E94F7038981F4
:100840009A8101969A83898329813A818B819C813F
:10085000FC01E20FF31F8081882339F780E00E94BA
:10086000F7030F900F900F900F90CF91DF910895A5
:10087000DF93CF93CDB7DEB780E40E94F703EEE2BB
:10088000F0E080818823DCF7EFE2F0E08081CF9117
:10089000DF910895EF92FF920F931F937B018C01DC
:1008A00020E030E040E05FE40E944A0788238CF0BB
:1008B000C801B70120E030E040E05FE40E94C205DB
:1008C0000E94AA079B01AC01205030404040504894
:1008D00006C0C801B7010E94AA079B01AC01B9017B
:1008E000CA011F910F91FF90EF900895A0E0B0E032
:1008F000ECE7F4E00C94010EDC012B01FA019C9171
:10090000923008F439C1EB018881823008F433C198
:10091000943069F4843009F02FC111969C9111979D
:100920008981981709F428C1AFE6B1E025C1843068
:1009300009F421C18230A9F4923009F01DC19A0155
:10094000AD0188E0EA010990AE01E90109929E013A
:100950008150C1F7E201898111969C91892381839D
:1009600008C1923009F407C112962D903C9013975C
:10097000EB018A819B811496AD90BD90CD90DC9067
:100980001797EC80FD800E811F819101281B390B88
:10099000B90137FF04C066277727621B730B6032EB
:1009A00071050CF061C0121613066CF53701480191
:1009B000062E04C096948794779467940A94D2F78D
:1009C00021E030E040E050E004C0220F331F441F1C
:1009D000551F6A95D2F721503040404050402E219B
:1009E0003F2140235123211531054105510521F0B7
:1009F00021E030E040E050E079018A01E628F72864
:100A0000082919293CC0232BD1F1260E371E3501A8
:100A10004601062E04C096948794779467940A94AE
:100A2000D2F721E030E040E050E004C0220F331F55
:100A3000441F551F6A95D2F7215030404040504026
:100A40002A213B214C215D2121153105410551050C
:100A500021F021E030E040E050E059016A01A62891
:100A6000B728C828D9280BC0821593052CF01C0183
:100A7000AA24BB24650103C0EE24FF24870111963C
:100A80009C91D20111968C91981709F445C0992335
:100A900039F0A80197012A193B094C095D0906C0E4
:100AA000A60195012E193F09400B510B57FD08C0B7
:100AB00011823382228224833583468357831DC06B
:100AC00081E081833382228288279927DC01821B7F
:100AD000930BA40BB50B84839583A683B7830DC0BA
:100AE000220F331F441F551F2483358346835783AA
:100AF000828193810197938382832481358146810A
:100B00005781DA01C9010197A109B1098F5F9F4F90
:100B1000AF4FBF4328F30BC0918333822282EA0C8C
:100B2000FB1C0C1D1D1DE482F5820683178383E0E8
:100B30008083248135814681578157FF1AC0C901BE
:100B4000AA2797FDA095BA2F81709070A070B07001
:100B50005695479537952795822B932BA42BB52B2C
:100B600084839583A683B78382819381019693833F
:100B70008283DF0101C0D201CD01CDB7DEB7E2E152
:100B80000C941D0EA0E2B0E0E8ECF5E00C940D0E24
:100B900069837A838B839C832D833E834F8358871D
:100BA000E9E0EE2EF12CEC0EFD1ECE010196B70110
:100BB0000E94D3088E010F5E1F4FCE010596B8012B
:100BC0000E94D3088A8991E089278A8BC701B801DE
:100BD000AE01475E5F4F0E9476040E94FE07A0961A
:100BE000E6E00C94290EA0E2B0E0E9EFF5E00C9409
:100BF0000D0E69837A838B839C832D833E834F8381
:100C00005887F9E0EF2EF12CEC0EFD1ECE01019677
:100C1000B7010E94D3088E010F5E1F4FCE010596CB
:100C2000B8010E94D308C701B801AE01475E5F4F0B
:100C30000E9476040E94FE07A096E6E00C94290E1E
:100C4000A0E2B0E0E6E2F6E00C94010E69837A835C
:100C50008B839C832D833E834F835887CE010196DF
:100C6000BE01675F7F4F0E94D308CE010596BE018B
:100C70006F5E7F4F0E94D3089985923088F08989F2
:100C80008230C8F0943019F4823051F404C08430BA
:100C900029F4923081F48FE691E0C6C0923049F495
:100CA00020E09A858A89981321E02A87CE01099647
:100CB000BBC0823049F420E09A858A89981321E0EC
:100CC0002A8BCE014196B0C02D843E844F84588833
:100CD0006D887E888F88988CEE24FF248701AA2453
:100CE000BB24650140E050E060E070E0E0E0F0E04F
:100CF000C10181709070892BE9F0E60CF71C081D8A
:100D0000191D9A01AB012A0D3B1D4C1D5D1D80E094
:100D100090E0A0E0B0E0E614F7040805190520F41F
:100D200081E090E0A0E0B0E0BA01A901480F591FAE
:100D30006A1F7B1FAA0CBB1CCC1CDD1C97FE08C0C5
:100D400081E090E0A0E0B0E0A82AB92ACA2ADB2A14
:100D50003196E032F10549F0660C771C881C991C2D
:100D60005694479437942794C3CFFA85EA892B8900
:100D70003C898B859C85280F391F2E5F3F4F17C0FC
:100D8000CA0181709070892B61F016950795F794D0
:100D9000E79480E090E0A0E0B0E8E82AF92A0A2B86
:100DA0001B2B76956795579547952F5F3F4F77FD9E
:100DB000E7CF0CC0440F551F661F771F17FD41601A
:100DC000EE0CFF1C001F111F21503040403090E0FE
:100DD000590790E0690790E4790760F32B8F3C8F07
:100DE000DB01CA018F779070A070B07080349105DC
:100DF000A105B10561F447FD0AC0E114F104010544
:100E0000110529F0405C5F4F6F4F7F4F40781A8E7D
:100E1000FE1711F081E08A8F4D8F5E8F6F8F78A360
:100E200083E0898FCE0149960E94FE07A096E2E1F9
:100E30000C941D0EA8E1B0E0E0E2F7E00C940D0E7A
:100E400069837A838B839C832D833E834F8358876A
:100E500089E0E82EF12CEC0EFD1ECE010196B701C3
:100E60000E94D3088E010F5E1F4FCE010596B80178
:100E70000E94D3088985823040F08989823028F029
:100E8000C701B8010E944B0901C08FEF6896E6E0E8
:100E90000C94290EA8E1B0E0E0E5F7E00C940D0E0B
:100EA00069837A838B839C832D833E834F8358870A
:100EB00089E0E82EF12CEC0EFD1ECE010196B70163
:100EC0000E94D3088E010F5E1F4FCE010596B80118
:100ED0000E94D3088985823040F08989823028F0C9
:100EE000C701B8010E944B0901C08FEF6896E6E088
:100EF0000C94290EA8E1B0E0E0E8F7E00C940D0EA8
:100F000069837A838B839C832D833E834F835887A9
:100F100089E0E82EF12CEC0EFD1ECE010196B70102
:100F20000E94D3088E010F5E1F4FCE010596B801B7
:100F30000E94D3088985823040F08989823028F068
:100F4000C701B8010E944B0901C081E06896E6E044
:100F50000C94290EACE0B0E0E0EBF7E00C94110E3D
:100F600069837A838B839C83CE010196BE016B5F7C
:100F70007F4F0E94D3088D81823061F1823050F121
:100F8000843021F48E81882351F12EC02F81388541
:100F900037FD20C06E812F3131051CF06623F9F03A
:100FA00023C08EE190E0821B930B29853A854B8507
:100FB0005C8504C056954795379527958A95D2F755
:100FC0006623B1F050954095309521953F4F4F4F96
:100FD0005F4F0EC020E030E040E050E009C02FEF4E
:100FE0003FEF4FEF5FE704C020E030E040E050E823
:100FF000B901CA012C96E2E00C942D0EDF92EF921B
:10100000FF920F931F93FC01E480F5800681178106
:10101000D1808081823048F480E090E0A0E1B0E0AF
:10102000E82AF92A0A2B1B2BA5C0843009F49FC09B
:10103000823021F4EE24FF24870105C0E114F1047D
:101040000105110519F4E0E0F0E096C062817381BA
:101050009FEF623879070CF05BC022E83FEF261B58
:10106000370B2A3131052CF020E030E040E050E031
:101070002AC0B801A701022E04C07695679557953E
:1010800047950A94D2F781E090E0A0E0B0E004C078
:10109000880F991FAA1FBB1F2A95D2F70197A10994
:1010A000B1098E219F21A023B1230097A105B1058D
:1010B00021F081E090E0A0E0B0E09A01AB01282BA4
:1010C000392B4A2B5B2BDA01C9018F779070A07006
:1010D000B07080349105A105B10539F427FF09C02E
:1010E000205C3F4F4F4F5F4F04C0215C3F4F4F4F3D
:1010F0005F4FE0E0F0E02030A0E03A07A0E04A07D0
:10110000A0E45A0710F0E1E0F0E079018A0127C07D
:101110006038710564F5FB01E158FF4FD801C70144
:101120008F779070A070B07080349105A105B105E3
:1011300039F4E7FE0DC080E490E0A0E0B0E004C028
:101140008FE390E0A0E0B0E0E80EF91E0A1F1B1F3D
:1011500017FF05C016950795F794E794319687E039
:1011600016950795F794E7948A95D1F705C0EE2474
:10117000FF248701EFEFF0E06E2F679566276795F4
:10118000902F9F77D794DD24D7948E2F8695492F63
:10119000462B582F5D29B701CA011F910F91FF906F
:1011A000EF90DF900895FC01DB01408151812281A5
:1011B000622F6F7770E0221F2227221F9381892FD1
:1011C000880F822B282F30E0991F9927991F11969D
:1011D0009C93119721153105A9F54115510561051C
:1011E000710511F482E037C082E89FEF13969C935B
:1011F0008E9312979A01AB0167E0220F331F441FB1
:10120000551F6A95D1F783E08C930DC0220F331FD1
:10121000441F551F12968D919C9113970197139619
:101220009C938E931297203080E0380780E0480727
:1012300080E4580758F314962D933D934D935C9397
:10124000179708952F3F310579F441155105610530
:10125000710519F484E08C93089564FF03C081E064
:101260008C9312C01C9210C02F57304013963C93A1
:101270002E93129783E08C9387E0440F551F661FCF
:10128000771F8A95D1F7706414964D935D936D9393
:101290007C93179708951F93DC01FB019C9192307A
:1012A00008F447C08081823008F443C0943051F480
:1012B00011961C91843099F58181682F70E0611B33
:1012C00071093FC0843021F0923031F48230B9F19D
:1012D0008181882389F12DC011961C91119782304C
:1012E000F1F081811817D9F412962D913C91139742
:1012F000828193818217930794F028173907BCF0F5
:1013000014968D919D910D90BC91A02D24813581D5
:1013100046815781281739074A075B0718F41123BC
:1013200041F00AC082179307A407B50740F41123C0
:1013300019F061E070E005C06FEF7FEF02C060E080
:1013400070E0CB011F9108950F931F93CF93DF930C
:101350008C01EB01009731F46115710519F420E05F
:1013600030E038C081E090E06EE070E00E94170C41
:10137000FC019C01009771F180E88383209771F054
:10138000D387C28781E8838380917E0190917F011A
:10139000892B21F4F0937F01E0937E010115110563
:1013A000C9F01187008783818260838380918001E7
:1013B00090918101892B71F4F0938101E093800178
:1013C0008091820190918301892B21F4F093830114
:1013D000E0938201C901DF91CF911F910F91089590
:1013E000A0E0B0E0E6EFF9E00C94110EFE013596B6
:1013F000619171918091800190918101AF010E9472
:101400003A0A2096E2E00C942D0E0F931F93CF938F
:10141000DF938C01E0918001F0918101838181FF54
:1014200021C0C0E0D0E00DC0E0918001F0918101C9
:1014300020853185BF01F9010995892B11F0CFEF86
:10144000DFEFF80181918F01882371F7E09180012E
:10145000F0918101208531858AE0BF01F90109956C
:10146000892B11F0CFEFDFEFCE01DF91CF911F91EC
:101470000F910895ABE0B0E0E0E4FAE00C94010EC7
:101480003C012B015A01FC0117821682838181FDE8
:1014900003C06FEF7FEFC6C19AE0892E1E0108944A
:1014A000211C311CF3012381F20123FD859123FFCF
:1014B00081912F01882309F4B2C1853239F423FDCB
:1014C000859123FF81912F01853229F490E0B301AA
:1014D0000E94550DE7CF982FFF24EE249924FFE1B9
:1014E000FF15D0F09B3269F09C3228F4903259F00D
:1014F000933291F40EC09D3249F0903369F441E08B
:1015000024C052E0F52A84E0F82A28C098E0F92A9D
:1015100025C0E0E1FE2A22C0F7FC29C0892F8053B4
:101520008A3070F4F6FE05C0989C902C1124980E19
:1015300015C0E89CE02C1124E80EF0E2FF2A0EC052
:101540009E3229F4F6FC6BC140E4F42A07C09C36B5
:1015500019F450E8F52A02C0983649F4F20123FD47
:10156000959123FF91912F01992309F0B8CF892FED
:101570008554833018F08052833038F444E050E0D2
:10158000A40EB51E5FE359830FC0933631F0933735
:1015900079F0933509F056C020C0F5018081898328
:1015A00042E050E0A40EB51E610101E010E012C05F
:1015B000F501C080D180F6FC03C06FEF7FEF02C061
:1015C000692D70E042E050E0A40EB51EC6010E94F5
:1015D0004A0D8C015FE7F52214C0F501C080D1806F
:1015E000F6FC03C06FEF7FEF02C0692D70E042E0B0
:1015F00050E0A40EB51EC6010E94380D8C0150E8C3
:10160000F52AF3FE07C01AC080E290E0B3010E9401
:10161000550DEA948E2D90E008171907A8F30EC017
:10162000F601F7FC8591F7FE81916F0190E0B3011F
:101630000E94550DE110EA9401501040011511056A
:1016400079F7EAC0943611F0993669F5F7FE08C0CB
:10165000F501208131814281538184E090E00AC00C
:10166000F501808191819C01442737FD4095542FDD
:1016700082E090E0A80EB91E9FE6F92257FF09C04C
:1016800050954095309521953F4F4F4F5F4FE0E883
:10169000FE2ACA01B901A1012AE030E00E94810DB1
:1016A000D82ED21840C0953729F41F2D1F7E2AE06E
:1016B00030E01DC01F2D197F9F3661F0903720F458
:1016C000983509F0ACC00FC0903739F0983709F061
:1016D000A6C004C028E030E00AC0106114FD146008
:1016E00020E130E004C014FD166020E132E017FF75
:1016F00008C0F501608171818281938144E050E0EE
:1017000008C0F50180819181BC0180E090E042E059
:1017100050E0A40EB51EA1010E94810DD82ED21852
:101720008FE7F82EF122F6FE0BC05EEFF522D914FA
:1017300038F4F4FE07C0F2FC05C08FEEF82202C0B8
:101740001D2D01C0192DF4FE0DC0FE01ED0DF11D82
:101750008081803319F499EEF92208C01F5FF2FEF0
:1017600005C003C08F2D867809F01F5F0F2DF3FC95
:1017700014C0F0FE0FC01E1510F09D2C0BC09D2C48
:101780009E0C911A1E2D06C080E290E0B3010E94CB
:10179000550D1F5F1E15C0F304C01E1510F4E11A8D
:1017A00001C0EE2404FF0FC080E390E0B3010E946B
:1017B000550D02FF1DC001FD03C088E790E00EC07B
:1017C00088E590E00BC0802F867891F001FF02C081
:1017D0008BE201C080E2F7FC8DE290E0B3010E9451
:1017E000550D06C080E390E0B3010E94550D9A9418
:1017F000D914C0F3DA94F101ED0DF11D808190E070
:10180000B3010E94550DDD20A9F706C080E290E0EB
:10181000B3010E94550DEA94EE20C1F743CEF301C7
:1018200066817781CB012B96E2E10C941D0E0F931C
:101830001F93CF93DF93689F8001699F100D789F5E
:10184000100D1124C8010E94330CEC01009729F0FF
:1018500060E070E0A8010E94430DCE01DF91CF91BE
:101860001F910F910895CF93DF93BC0182309105B2
:1018700010F462E070E0A0918601B0918701ED0163
:10188000E0E0F0E040E050E021C0888199818617D7
:10189000970769F48A819B81309719F0938382833B
:1018A00004C09093870180938601FE0134C06817BD
:1018B000790738F44115510519F08417950708F494
:1018C000AC01FE018A819B819C01E9012097E9F628
:1018D00041155105A9F1CA01861B970B049708F41D
:1018E000BA01E0E0F0E02AC08D919C911197841735
:1018F0009507F9F46417750781F412968D919C9100
:101900001397309719F09383828304C090938701D3
:1019100080938601FD0132964FC0CA01861B970B4A
:10192000FD01E80FF91F6193719302978D939C93CA
:1019300043C0FD01828193819C01D9011097A1F6DA
:101940008091840190918501892B41F480917901E6
:1019500090917A01909385018093840140917B015D
:1019600050917C014115510541F44DB75EB780910E
:10197000770190917801481B590B20918401309197
:10198000850124173507B0F4CA01821B930B861713
:10199000970780F0AB014E5F5F4F8417950750F0BB
:1019A000420F531F5093850140938401F9016193C5
:1019B000719302C0E0E0F0E0CF01DF91CF91089594
:1019C000CF93DF93009709F450C0EC0122971B825C
:1019D0001A82A0918601B0918701109709F140E029
:1019E00050E0AC17BD0708F1BB83AA83FE0121912B
:1019F0003191E20FF31FAE17BF0779F48D919C91DF
:101A00001197280F391F2E5F3F4F39832883129675
:101A10008D919C9113979B838A834115510571F495
:101A2000D0938701C093860120C012968D919C911E
:101A30001397AD01009711F0DC01D3CFFA01D383E6
:101A4000C28321913191E20FF31FCE17DF0769F4B2
:101A500088819981280F391F2E5F3F4FFA0131830A
:101A600020838A819B8193838283DF91CF91089524
:101A7000FC010590615070400110D8F78095909559
:101A80008E0F9F1F0895DC0101C06D93415050409F
:101A9000E0F70895FC016150704001900110D8F703
:101AA000809590958E0F9F1F08950F931F93CF934E
:101AB000DF938C01EB018B8181FF1BC082FF0DC086
:101AC0002E813F818C819D812817390764F4E8813C
:101AD000F9810193F983E88306C0E885F985802FB1
:101AE0000995892B31F48E819F8101969F838E8386
:101AF00002C00FEF1FEFC801DF91CF911F910F912F
:101B00000895FA01AA27283051F1203181F1E89493
:101B10006F936E7F6E5F7F4F8F4F9F4FAF4FB1E0E0
:101B20003ED0B4E03CD0670F781F891F9A1FA11DDB
:101B3000680F791F8A1F911DA11D6A0F711D811DDC
:101B4000911DA11D20D009F468943F912AE0269FA1
:101B500011243019305D3193DEF6CF010895462F00
:101B60004770405D4193B3E00FD0C9F7F6CF462FE1
:101B70004F70405D4A3318F0495D31FD405241934A
:101B800002D0A9F7EACFB4E0A69597958795779507
:101B90006795BA95C9F700976105710508959B018E
:101BA000AC010A2E06945795479537952795BA9517
:101BB000C9F7620F731F841F951FA01D0895A1E22E
:101BC0001A2EAA1BBB1BFD010DC0AA1FBB1FEE1FB7
:101BD000FF1FA217B307E407F50720F0A21BB30B02
:101BE000E40BF50B661F771F881F991F1A9469F77E
:101BF00060957095809590959B01AC01BD01CF01DA
:101C000008952F923F924F925F926F927F928F92A0
:101C10009F92AF92BF92CF92DF92EF92FF920F937B
:101C20001F93CF93DF93CDB7DEB7CA1BDB0B0FB685
:101C3000F894DEBF0FBECDBF09942A883988488842
:101C40005F846E847D848C849B84AA84B984C884D8
:101C5000DF80EE80FD800C811B81AA81B981CE0FCF
:101C6000D11D0FB6F894DEBF0FBECDBFED010895B4
:041C7000F894FFCF16
:101C74005374617274006C65667400726967687489
:101C840000757000646F776E00656E746572006332
:101C9400656E74657231320063656E7465720065D9
:101CA40072726F72006572726F723A2025630A0055
:101CB4005374617274696E672E2E2E004572726FB2
:101CC400722121212052414D206E6F2E2030782523
:101CD40078200046696E69736865642121210000DB
:0E1CE400000000000000002000880100000049
:00000001FF
