:100000000C9464000C9481000C9481000C94810089
:100010000C9481000C9481000C9481000C9481005C
:100020000C9481000C9481000C9481000C9481004C
:100030000C9481000C9481000C9481000C9481003C
:100040000C9481000C9481000C9481000C9481002C
:100050000C9481000C9481000C94DF02510A802AD8
:100060000000000A510A000059551801111E111B09
:10007000500B411B411F1101511F511B000000007B
:1000800000000000000000000000510F91394114F1
:100090009131411E410E411D500F802010154886A0
:1000A0004014780570855115510E5195518E21904F
:1000B00081205015484450C528C028200950000010
:1000C000000000000000000011241FBECFEFD4E0AC
:1000D000DEBFCDBF11E0A0E0B1E0E0E7FCE002C090
:1000E00005900D92AA30B107D9F711E0AAE0B1E06E
:1000F00001C01D92A734B107E1F70E94E4000C94FF
:1001000036060C940000DF93CF9300D0CDB7DEB756
:100110008A83198206C089818F5F89838A818A5088
:100120008A838A818A30B8F78981882F90E0829506
:100130009295907F9827807F9827982F8A81892B86
:100140000F900F90CF91DF910895DF93CF9300D060
:100150000F92CDB7DEB78B831A82198208C08981CE
:100160009A8101969A8389838B8184568B838B81B4
:100170008436A8F789819A8182959295907F9827F5
:10018000807F98279A83898308C089819A81019604
:100190009A8389838B818A508B838B818A30A8F7DD
:1001A00089819A819C0122953295307F3227207F68
:1001B00032278B81882F90E0822B932B0F900F900A
:1001C0000F90CF91DF910895DF93CF9300D0CDB7FB
:1001D000DEB70E947E0480E091E09A8389830E94CA
:1001E000000178940E949104E981FA8180838981D9
:1001F0009A8161E00E946A0180E00E94EB01F2CFE7
:10020000DF93CF93CDB7DEB70E941902CF91DF9174
:100210000895DF93CF93CDB7DEB72A970FB6F89442
:10022000DEBF0FBECDBF998788876A8780910A019C
:100230008823E1F71F8218C08F81482F50E08F81FB
:10024000282F30E088859985820F931F9E838D83A8
:10025000ED81FE8184918C838C81FA01ED5DFE4FEE
:1002600080838F818F5F8F838F81282F30E08885F7
:100270009985820F931F9B838A83EA81FB818491F6
:1002800089838981882319F08F818931A8F28F8130
:10029000882F90E0FC01ED5DFE4F10828F8187304A
:1002A00048F081E080930E0110923C0183E080933E
:1002B0000B0104C010920E0110923C0181E080936A
:1002C0000A012A960FB6F894DEBF0FBECDBFCF91BC
:1002D000DF910895DF93CF9300D000D0CDB7DEB784
:1002E0009B838A836C8380910A018823E1F71982BA
:1002F00013C08981482F50E08981282F30E08A81FE
:100300009B81FC01E20FF31F8081FA01ED5DFE4F3E
:10031000808389818F5F89838981282F30E08A815A
:100320009B81FC01E20FF31F8081882319F08981F2
:100330008931F8F28981882F90E0FC01ED5DFE4F54
:1003400010828981873048F081E080930E011092FD
:100350003C0183E080930B0104C010920E011092C7
:100360003C0181E080930A010F900F900F900F9055
:10037000CF91DF910895DF93CF9300D0CDB7DEB753
:1003800089836A838981893140F48981882F90E04B
:10039000FC01ED5DFE4F8A8180830F900F90CF911D
:1003A000DF910895DF93CF930F92CDB7DEB7198217
:1003B0000BC08981882F90E0FC01ED5DFE4F80E24B
:1003C000808389818F5F89838981893190F30F9040
:1003D000CF91DF910895DF93CF930F92CDB7DEB722
:1003E0008983898180930D010F90CF91DF910895CA
:1003F000DF93CF9300D0CDB7DEB789836A83809136
:100400000A018823E1F78A8180930E0110923C0152
:10041000898180930A010F900F90CF91DF91089509
:10042000DF93CF93CDB7DEB710920C01CF91DF9160
:100430000895DF93CF93CDB7DEB780E00E94BF026F
:10044000E7EEF0E08FE08083E5EEF0E087EB80837D
:10045000E6EEF0E087E08083E4EEF0E080EC80837D
:10046000A4EEB0E0E4EEF0E0808188608C9310921E
:100470000A01CF91DF910895DF93CF93CDB7DEB717
:100480002D970FB6F894DEBF0FBECDBF8C876D875A
:100490001B861A868D85863008F068C08C858A3266
:1004A00010F18C858B37F8F48C85813618F08C85AB
:1004B0008F7D8C878C858A528C878C85882F90E0E5
:1004C000880F991F845A9F4F9C838B838B819C81BB
:1004D000FC01859194919A838983FC83EB838981C4
:1004E0009A819B878A878D85882F90E08170907094
:1004F000882319F08FE0898702C080EF89878D8576
:100500008695882F90E0815F9E4F9F838E831D820A
:100510002AC08A858F7088878A859B859295829567
:100520008F7089279F7089279B878A878D85882F61
:1005300090E081709070882321F088858295807F7B
:100540008887EE81FF819081898598238885892B12
:10055000EE81FF8180838E819F8105969F838E83AC
:100560008D818F5F8D838D81843098F22D960FB6AB
:10057000F894DEBF0FBECDBFCF91DF910895DF931A
:10058000CF9300D0CDB7DEB78A838A81882311F05C
:100590008FEF8A8319820BC08981882F90E0FC013C
:1005A000E15FFE4F8A81808389818F5F89838981A2
:1005B000843190F30F900F90CF91DF9108951F92A7
:1005C0000F920FB60F9211242F933F934F935F9387
:1005D0006F937F938F939F93AF93BF93EF93FF930B
:1005E000DF93CF9300D000D00F92CDB7DEB71C823F
:1005F0008091030181508093030180910E01882333
:1006000091F080910301882381F480910B0188236C
:1006100021F481E080930A0108C080910B01815090
:1006200080930B0102C010923C011A8280910A0152
:10063000813009F081C080910C01853010F41B825B
:1006400002C081E08B83198243C080913C01282F36
:10065000332727FD30958981882F90E0820F931FE3
:10066000992314F18A818823F9F48981282F30E0B5
:1006700080913C01992787FD9095820F931FFC0183
:10068000ED5DFE4F80818D838D811C82882314F463
:1006900081E08C838D818F778D838D81882331F4E8
:1006A00089818F5F8A8302C080E28D838C81882359
:1006B00041F08B81882329F080E269810E943C020D
:1006C00004C08D8169810E943C0289818F5F89838A
:1006D0008981863008F4B9CF198211C08981882FA9
:1006E00090E0DC01A451BF4F8981882F90E0FC018C
:1006F000E15FFE4F80818C9389818F5F898389813F
:10070000843160F380910D01882329F0E4EFF0E05B
:1007100081E0808303C0E4EFF0E010828A818130C1
:1007200021F48AEF80933C0105C080913C018F5FEA
:1007300080933C0110920A0180910301882319F4EF
:1007400083E08093030180910C018A3019F41092A8
:100750000C0105C080910C018F5F80930C010F90FC
:100760000F900F900F900F90CF91DF91FF91EF912D
:10077000BF91AF919F918F917F916F915F914F91B9
:100780003F912F910F900FBE0F901F901895DF9300
:10079000CF93CDB7DEB727970FB6F894DEBF0FBE65
:1007A000CDBF9F838E838E819F81CC01A0E0B0E07E
:1007B0008A839B83AC83BD838A819B81AC81BD810D
:1007C000880F991FAA1FBB1F880F991FAA1FBB1F45
:1007D000880F991FAA1FBB1F880F991FAA1FBB1F35
:1007E0009C01AD0180E092E1AAE7B0E0BC01CD013F
:1007F0000E941406DA01C9010197A109B1098A838F
:100800009B83AC83BD831982E5ECF0E08A819B81F8
:10081000AC81BD81892F9A2FAB2FBB278083E4EC5D
:10082000F0E08A818083E1ECF0E088E180838981D7
:1008300086608983898180628983898180688983D0
:10084000E2ECF0E08981808386E394E02DE534E0FA
:10085000B9010E94A00480E090E027960FB6F894BA
:10086000DEBF0FBECDBFCF91DF910895DF93CF9351
:1008700000D00F92CDB7DEB789837B836A838981ED
:100880008A3031F42A813B818DE0B9010E9436041F
:10089000E0ECF0E08081882F90E08072907000970B
:1008A000B9F3E6ECF0E08981808380E090E00F907E
:1008B0000F900F90CF91DF910895DF93CF9300D0E9
:1008C0000F92CDB7DEB79B838A83E0ECF0E08081A6
:1008D0008823DCF7E6ECF0E08081898389818D3024
:1008E00011F48AE08983E6ECF0E08081882F90E0C3
:1008F0000F900F900F90CF91DF910895DF93CF93DA
:10090000CDB7DEB7A4E2B0E0E4E2F0E08081807F22
:1009100088608C93ECE4F0E080E48083CF91DF91F9
:100920000895DF93CF93CDB7DEB7EDE4F0E080819B
:100930008823DCF7EEE4F0E08081CF91DF91089529
:100940000F931F93CF93DF938C01EB01009731F44A
:100950006115710519F420E030E038C081E090E0C5
:100960006EE070E00E94EC04FC019C01009771F1C4
:1009700080E88383209771F0D387C28781E88383DF
:1009800080913D0190913E01892B21F4F0933E012D
:10099000E0933D0101151105C9F01187008783819E
:1009A0008260838380913F0190914001892B71F493
:1009B000F0934001E0933F01809141019091420109
:1009C000892B21F4F0934201E0934101C901DF91A9
:1009D000CF911F910F9108950F931F93CF93DF93A2
:1009E000689F8001699F100D789F100D1124C80128
:1009F0000E940805EC01009729F060E070E0A80172
:100A00000E940D06CE01DF91CF911F910F910895A5
:100A1000CF93DF93BC018230910510F462E070E067
:100A2000A0914501B0914601ED01E0E0F0E040E029
:100A300050E021C0888199818617970769F48A81DF
:100A40009B81309719F09383828304C09093460171
:100A500080934501FE0134C06817790738F44115C9
:100A6000510519F08417950708F4AC01FE018A813D
:100A70009B819C01E9012097E9F641155105A9F1F7
:100A8000CA01861B970B049708F4BA01E0E0F0E076
:100A90002AC08D919C91119784179507F9F46417DA
:100AA000750781F412968D919C911397309719F0E8
:100AB0009383828304C09093460180934501FD0196
:100AC00032964FC0CA01861B970BFD01E80FF91F34
:100AD0006193719302978D939C9343C0FD01828132
:100AE00093819C01D9011097A1F6809143019091C7
:100AF0004401892B41F48091060190910701909364
:100B0000440180934301409108015091090141152E
:100B1000510541F44DB75EB78091040190910501F4
:100B2000481B590B2091430130914401241735078C
:100B3000B0F4CA01821B930B8617970780F0AB01B4
:100B40004E5F5F4F8417950750F0420F531F50932D
:100B5000440140934301F9016193719302C0E0E0C5
:100B6000F0E0CF01DF91CF910895CF93DF9300970D
:100B700009F450C0EC0122971B821A82A091450112
:100B8000B0914601109709F140E050E0AC17BD0765
:100B900008F1BB83AA83FE0121913191E20FF31F7B
:100BA000AE17BF0779F48D919C911197280F391FCB
:100BB0002E5F3F4F3983288312968D919C91139716
:100BC0009B838A834115510571F4D0934601C093EC
:100BD000450120C012968D919C911397AD0100970D
:100BE00011F0DC01D3CFFA01D383C283219131917B
:100BF000E20FF31FCE17DF0769F488819981280F70
:100C0000391F2E5F3F4FFA01318320838A819B81F8
:100C100093838283DF91CF910895DC0101C06D93AE
:100C200041505040E0F70895A1E21A2EAA1BBB1BC9
:100C3000FD010DC0AA1FBB1FEE1FFF1FA217B307A8
:100C4000E407F50720F0A21BB30BE40BF50B661FBE
:100C5000771F881F991F1A9469F760957095809582
:100C600090959B01AC01BD01CF010895F894FFCF91
:0A0C700000000F0320004701000000
:00000001FF
